:020000040800F2
:10000000A87200204901000875500008E743000865
:1000100071500008D90D0008755A00080000000052
:100020000000000000000000000000005D52000819
:10003000FD11000800000000315200085F52000866
:100040006301000863010008630100086301000800
:1000500063010008630100086301000863010008F0
:1000600063010008630100086301000891110008A2
:100070006301000863010008A1110008B111000824
:1000800063010008C1110008630100086301000852
:1000900063010008630100086301000863010008B0
:1000A00063010008630100086301000863010008A0
:1000B0006301000863010008630100086301000890
:1000C0006301000863010008630100086301000880
:1000D00063010008455A0008555A0008655A00088F
:1000E0006301000863010008630100086301000860
:1000F0006301000863010008630100086301000850
:10010000630100086301000863010008630100083F
:1001100071560008630100086301000863010008CC
:10012000630100086301000863010008630100081F
:10013000DFF810D000F096FC00480047CD7E0008A4
:10014000AFF30080A87200200648804706480047A9
:10015000FEE7FEE7FEE7FEE7FEE7FEE7FEE7FEE777
:10016000FEE7FEE7E952000831010008202A04DB1F
:10017000203A21FA02F00021704721FA02F3D04020
:10018000C2F12002914008431946704710B5431A46
:10019000934209D28318881803E010F8011D03F870
:1001A000011D521EF9D210BD40EA01039B0703D086
:1001B00009E008C9121F08C0042AFAD203E011F8A6
:1001C000013B00F8013B521EF9D210BDD2B201E052
:1001D00000F8012B491EFBD270470022F6E710B54C
:1001E00013460A4604461946FFF7F0FF204610BDA5
:1001F00030B505462A460B4612F8010B13F8014BA1
:1002000008B1A042F8D01CB1002802D06D1CF1E763
:10021000284630BD10B5044604E00B7800F8013BD9
:1002200003B1491C521EF8D2204610BDCAB2401E6E
:1002300010F8011F8A4202D00029F9D1002070472E
:10024000421C10F8011B0029FBD1801A704710B521
:10025000002200E0521C835C8C5CA34201D1002B85
:10026000F8D1D8B2E1B2401A10BD30B50546002031
:10027000034600E05B1C934205D2EC5CC85C201A8C
:1002800001D1002CF6D130BD70B50F4D00B92868F2
:10029000002412E00A4602E09E4203D0521C13786A
:1002A000002BF9D1DAB2224305D02BB124B10021C1
:1002B00000F8011B04E00446401C0678002EE9D13A
:1002C0002860204670BD00001801002010B508E02D
:1002D0000A4602E0A34208D0521C1378002BF9D141
:1002E000401C0478002CF3D1002010BD70B50646E8
:1002F00005F03AFC046805460A220021304600F069
:1003000056F92C6070BDF0B480EA0102D40F4200AF
:10031000B2EB410F02D20246084611464A0042D0D3
:10032000C30DDDB2C1F3C752AD1A202D35DAC1F3CA
:10033000160141F4000204B15242C5F1200602FA4E
:1003400006F12A411044B3EBD05F23D0C4B1012D94
:10035000A0EBC35009DCF0BC4FF0004202EAC352EC
:10036000DBB200F5000000F063B9400000F18070DE
:1003700000EBC350A0F1807040EAD170490009E061
:10038000490841EAC071A0EBC35000F500004008E5
:1003900000EBC350F0BC00F042B96142012202EB15
:1003A0004101001BF6E7F0BC704781F00041AAE76D
:1003B00080F00040A7E780EA010210B502F0004398
:1003C000400022D04A001FD0010E01EB1261C0F3A1
:1003D0005600C2F3560240F4000042F40002A0FBB3
:1003E000022000047F39140400D0401C50EA12405F
:1003F00001D44000491EC2B20C0604EBD010401CD0
:100400004008802A02D003E0002010BD20F0010047
:10041000002900DA0020184310BD30B480EA010240
:1004200002F0004530F0004221F0004013D090B1BE
:10043000C30DD40DC2F31601C0F31600E41A41F443
:10044000000140F400027D34914201D3641C00E0BD
:100450004900002C02DA30BC002070474FF4000045
:100460000023914201D3891A034340084FEA410116
:10047000F7D151B1914202D14FF0004105E002D2D3
:100480004FF0010101E06FF0010103EBC45028447B
:1004900030BC00F0C4B8C10F80EAE0700844CA075D
:1004A0009623002100F0C4B896230022114600F0E4
:1004B000BFB800F0004220F00040C10DC0F31600AC
:1004C00040F400007F2901DA00207047962903DC00
:1004D000C1F19601C84001E096398840002AF4D065
:1004E0004042704700F0004230F000400AD0C10D99
:1004F00001F56071C0F3160042EA0151C2084007DD
:10050000114370470020014670470000002801DBBE
:10051000C0F10040002901DBC1F100418142704778
:1005200030B50B46014600202022012409E021FAC3
:1005300002F59D4205D303FA02F5491B04FA02F5C0
:100540002844151EA2F10102F1DC30BD2DE9F05F57
:100550000546002092469B46884606468146402432
:100560001BE02846414647462246FFF7FFFD53461B
:100570005A46C01A914110D311461846224600F03F
:1005800083FA2D1A67EB01084F462246012000210D
:1005900000F07AFA17EB00094E41201EA4F1010485
:1005A000DFDC484631462A464346BDE8F09F2DE948
:1005B000F04791460F4680460446002614F8015B3A
:1005C0002DB100F083FA0068405DC007F6D12B2DF5
:1005D00002D02D2D18D0641E4A463946204600F020
:1005E00079FA27B13968A14201D1C7F800807105B5
:1005F0004FF002040BD54042002803DD05F0B4FAA9
:100600000460A007BDE8F08746F48066E4E70028B0
:10061000F8DA05F0A9FA04606FF00040F2E700296B
:10062000A8BF7047401C490008BF20F00100704778
:1006300010B4B0FA80FC00FA0CF050EA010404BFD8
:1006400010BC704749B1CCF1200421FA04F411FA2E
:100650000CF118BF012121430843A3EB0C01CB1D72
:100660004FEA00614FEA102042BF002010BC7047E3
:1006700000EBC35010440029A4BF10BC7047401CBD
:10068000490008BF20F0010010BC7047420005D0AF
:10069000C0F3C7525242914201DC0020704700EB88
:1006A000C15070472DE9FE4F804681EA0300C00F1C
:1006B0000C46009021F0004123F00045B8EB020009
:1006C000A94105D24046214690461C460B460246AB
:1006D00023F00040104347D0270DC7F30A00C3F3AF
:1006E0000A510290401A019040286BDAC3F31300BC
:1006F00040F4801B0098924620B10023D2EB030AFD
:1007000063EB0B0B01985946C0F14002504600F0D4
:10071000BBF906460D4650465946019A00F0C3F90A
:1007200010EB08006141002487EA115284EAE77364
:100730001A4340D0009A62B3019A012A4FEA075245
:1007400015DC001B61EB02014FF0004202EA075288
:10075000CDE90042001C41F5801132462B4600F0E5
:1007600017FA03B0BDE8F08F40462146F9E7001BB9
:1007700061EB0201001C41F5801300185B41201859
:10078000A2F5001747EB030140EAD570B6196D4199
:1007900011E06D084FEA360645EAC0754FEA075288
:1007A000001B61EB0201001C41F5801149084FEA72
:1007B00030000019514132462B4603B0BDE8F04FDE
:1007C00000F0D7B90098012240000023D0EB0202CC
:1007D00063EBE073009821464FEAE074B8EB000049
:1007E00061EB0401E9E783F000435BE781F000413E
:1007F00058E72DE9FE4F81EA030404F0004421F09C
:10080000004100944FF0000B23F0004350EA010434
:100810005ED052EA03045BD0C3F30A54C1F30A5515
:100820002C44A4F2F3340194A0FB0254C1F313014D
:1008300041F48011C3F3130343F4801301FB02441A
:1008400000FB034E840A970A44EA815447EA83571F
:10085000A4FB076802958D0A05FB07854FEA932CD8
:1008600004FB0C542705029D4FEA065847EA163749
:10087000B5EB08056EEB070C870E920E47EA811761
:1008800042EA8312A7FB0201B6EB0B0164EB000402
:100890002B0D43EA0C335E1844EB1C50DA465146EC
:1008A000E7FB0201C5F313044FEA0B3343EA145389
:1008B0004FEA0432019C43EA0603A4F10C040294BB
:1008C000009CCDE900B400F063F903B0BDE8F08FFF
:1008D00000200146F9E72DE9F04D81EA030404F018
:1008E000004B21F0004514464FF0000A23F0004170
:1008F00050EA050220D054EA01021DD0C5F30A5780
:100900000246C5F31303C1F31300C1F30A5640F4C2
:10091000801543F48013A7EB0608101BD64608F297
:10092000FD3873EB050002D308F1010801E09218CD
:100930005B41B8F1000F03DA00200146BDE8F08DFD
:1009400000204FF48011064684460EE0171B73EB1F
:10095000050705D3121B63EB050306434CEA010CA4
:1009600049084FEA300092185B4150EA0107EDD187
:1009700052EA030012D082EA040083EA0501084328
:1009800005D0101BAB4106D20122002306E0002255
:100990004FF0004302E06FF0010253101AEB060023
:1009A0004CEB085110EB0A0041EB0B01BDE8F04D98
:1009B00000F0DFB8C1F30A52C1F3130140F2FF3374
:1009C00041F480119A4202DA00200146704740F259
:1009D00033439A42A2F2334202DC5242FFF7C6BBD3
:1009E00000F052B810B500F0004420F00040C20DF5
:1009F000C0F3160040F400007F2A07DA7D2A00DAEF
:100A00007D22763A00FA02F1002008E0962A09DCFD
:100A1000A2F1760100FA01F1C2F19602D040FFF78F
:100A2000FEFD01E0963A9040002C00D0404210BDFF
:100A300030B5041E71F1000404DB4FF00044404265
:100A400064EB0101141E73F1000405DB1C464FF03A
:100A50000043524263EB0403994208BF904230BD09
:100A600000207047064C074D06E0E06840F00103A7
:100A700094E8070098471034AC42F6D3FFF75CFBCC
:100A800054A9000874A90008202A04DB203A00FABF
:100A900002F1002070479140C2F1200320FA03F3D5
:100AA000194390407047202A06DBCB17203A41FAC1
:100AB00002F043EAE07306E041FA02F3D040C2F1EB
:100AC00020029140084319467047000000487047D3
:100AD00080A800082DE9F05F8246007800271546BF
:100AE0008B460AF10104B946302801D09DB113E0CC
:100AF00014F8010B0127782803D0582801D045B1FC
:100B00000AE00DB1102D07D10027102514F8010BB4
:100B100002E0082500E00A250026B0460EE005FBAD
:100B2000080005FB06F1012701EB10461FFA80F8CB
:100B3000B6F5803F00D3B94614F8010B294600F002
:100B400075F80028EBDABBF1000F05D00FB1641E79
:100B500000E05446CBF80040B9F1000F06D005F094
:100B600003F802210160C81EBDE8F09F48EA064074
:100B7000FAE710B5141E73F1000408DA401C41F1C5
:100B8000000192185B411A4301D120F0010010BD11
:100B90002DE9F04D92469B4611B1B1FA81F202E087
:100BA000B0FA80F220329046FFF76EFF04460F46FF
:100BB00040EA0A0041EA0B0153465A46084313D063
:100BC000114653EA010019D0C8F140025046FFF720
:100BD000CDFA05460E46504659464246FFF754FFA9
:100BE000084305D0012004E020463946BDE8F08DD9
:100BF0000020054346EAE0762C4337430A98630514
:100C0000E40AA0EB08000022FD0A44EA47540A3037
:100C100002D500200146E9E7010510196941DDE927
:100C2000084500196941BDE8F04DA2E73A2800D215
:100C3000303820F02002412A01D3A2F13700884247
:100C400001D34FF0FF30704770B50446002520688F
:100C5000806800F0010018B32068806820F001006F
:100C60002168886001F0DEFB054613E001F0DAFB45
:100C7000401B02280ED92068806800F0010048B1AE
:100C8000A06A40F01000A062E06A40F00100E0625B
:100C9000012070BD2068806800F001000028E5D1C7
:100CA0000020F6E770B505466C6AA06A00F05000B7
:100CB000E0B9A06A40F40070A0622068806800F487
:100CC0006020B0F5602F0DD1207B58B9A06A20F4C8
:100CD0008070A062A06A00F4805018B9A06A40F049
:100CE0000100A062204600F0CBFB03E0206A016B0C
:100CF0002846884770BD70B505466C6AA06A40F00A
:100D00004000A062E06A40F00400E062204600F08B
:100D1000B9FB70BD70B50446656A284600F0B1FBAA
:100D200070BD000038B50446002500200090206802
:100D3000806800F0010078BB2068806840F0010006
:100D400021688860194800681949B0FBF1F00090EB
:100D500002E00098401E009000980028F9D101F0B0
:100D600061FB054619E001F05DFB401B022814D928
:100D70002068806800F0010078B9A06A40F0100097
:100D8000A062E06A40F00100E06200BF002084F849
:100D9000240000BF012038BD05E02068806800F015
:100DA00001000028DFD00020F5E700000C00002043
:100DB00040420F0033B581B005466420012302AAEA
:100DC00046210090284601F0EFFD044614B1284664
:100DD00003F026FC20463EBD00BFFEE71FB5002005
:100DE00000900190029003908020009000200190DC
:100DF000012002906946024801F066F91FBD00001B
:100E0000000801401FB5002000900190029003905F
:100E10008020009011200190012002900320039077
:100E20006946024801F050F91FBD0000000801406A
:100E300070B50024002531E06006040E4FF47A7688
:100E400008E0701E061E05D116A11E4808F07EF8A7
:100E5000002070BD80211C4801F0D6FA0028F0D097
:100E6000282005F055FD8021174801F0CDFA012812
:100E700001D144F001044FF47A7608E0701E061E9A
:100E800005D112A10F4808F061F80020E1E78021A8
:100E90000D4801F0B9FA0128F0D06D1C082DCBDB0C
:100EA0002046D6E74572726F723A20427974652007
:100EB000626974206C6F772074696D656F75740D4D
:100EC0000A0000004C030020000801404572726FC8
:100ED000723A204279746520626974206869676893
:100EE0002074696D656F75740D0A00002DE9FC476B
:100EF00007468846002000900190FFF783FF0022FC
:100F00008021464801F088FA142001F01FF80122E0
:100F10008021424801F080FA1E2005F0F9FCFFF71D
:100F20005DFF4FF47A7505E0681E051E02D10120B1
:100F3000BDE8FC878021394801F066FA0128F3D02A
:100F40004FF47A7504E0681E051E01D10120EFE719
:100F50008021324801F058FA0028F4D04FF47A7515
:100F600004E0681E051E01D10120E1E780212B4825
:100F700001F04AFA0128F4D0002604E0FFF758FFF8
:100F80000DF80600761C052EF8DB9DF800009DF894
:100F9000011008449DF8021008449DF8031008440D
:100FA0009DF80410884205D01DA1234807F0CEFF0C
:100FB0000120BDE79DF8011001F07F00FFF76BFAFB
:100FC00082461E49FFF7F7F906469DF80000FFF735
:100FD0006BFA81463146FFF796F9C8F800009DF894
:100FE000031001F07F00FFF756FA82461349FFF71E
:100FF000E2F906469DF80200FFF756FA81463146AF
:10100000FFF781F904469DF8030000F0800008B165
:1010100084F000443C6000208AE7000000080140A2
:101020004572726F723A20436865636B73756D2009
:101030006661696C0D0A00004C030020CDCCCC3DEC
:101040000448006818B10348006800687047002031
:10105000FCE70000FC0000200448006818B10348C9
:101060000068006870470020FCE70000F8000020DE
:1010700010B5042006F09CFF1F490860042006F00C
:1010800097FF1E490860012006F092FF1C49086086
:10109000042006F08DFF1B490860042006F088FF3D
:1010A000194908601448006858B11448006840B1F4
:1010B0001348006828B11348006810B1084600685A
:1010C00028B912A1184807F041FF00BFFEE7002031
:1010D00009490968086009490968086008490968F8
:1010E000087001F09FF90749096808600020064967
:1010F0000968086010BD0000F8000020FC00002016
:101100000001002004010020080100205B44485435
:1011100031315D206D616C6C6F63206661696C6557
:1011200064210D0A000000004C03002010B501F0FE
:1011300079F9044611480068007838B91048006809
:101140000068201AB0F5FA6F08D210BD0D4800688B
:101150000068201AB0F5FA6F00D2F6E70948006877
:1011600004600948016809480068FFF7BFFE18B924
:10117000012002490968087000BFE6E7000100206D
:101180000401002008010020FC000020F8000020DD
:1011900010B5024800F040FC10BD000058010020CE
:1011A00010B5024800F038FC10BD00007C020020A1
:1011B00010B5024800F030FC10BD0000C002002055
:1011C00010B5024800F028FC10BD000038020020D5
:1011D00030B590F840500124AC40C56B6C60046899
:1011E00063604468102C04D10468A2600468E16064
:1011F00003E00468A1600468E26030BD704772B625
:1012000000BFFEE7F8B5044600260020009000BFAE
:1012100094F82400012801D10220F8BD012084F8AF
:10122000240000BF2046FFF70FFD06462046FFF7CB
:1012300079FD0646002E69D1A06A20F4885040F05E
:101240000200A062022001F08FFD34490968B1FB61
:10125000F0F04000009002E00098401E00900098DE
:101260000028F9D12068806840F008002168886073
:1012700001F0D8F8054616E001F0D4F8401B0A2822
:1012800011D92068806800F0080060B1A06A20F0E1
:10129000020040F01000A06200BF002084F824008B
:1012A00000BF0120B9E72068806800F0080000282E
:1012B000E2D12068806840F004002168886001F075
:1012C000B1F8054616E001F0ADF8401B0A2811D927
:1012D0002068806800F0040060B1A06A20F002007D
:1012E00040F01000A06200BF002084F8240000BF7E
:1012F000012092E72068806800F004000028E2D115
:10130000A06A20F0020040F00100A06200BF0020AF
:1013100084F8240000BF30467FE700000C00002066
:1013200038B5024600230020009000BF92F8240048
:10133000012801D1022038BD012082F8240000BF1D
:101340004868072812D21068406B0C79641E04EBC1
:1013500084051F24AC40A0430D796D1E05EB850567
:101360000C68AC4020431468606327E048680D288F
:1013700012D21068006B0C79E41F04EB84051F2463
:10138000AC40A0430D79ED1F05EB85050C68AC4022
:1013900020431468206311E01068C06A0C790D3C8A
:1013A00004EB84051F24AC40A0430D790D3D05EBF3
:1013B00085050C68AC4020431468E06208680A2880
:1013C00012D31068C0680C780A3C04EB440507246B
:1013D000AC40A0430D780A3D05EB45058C68AC4058
:1013E00020431468E0600FE0106800690C7804EB9B
:1013F00044050724AC40A0430D7805EB45058C68F7
:10140000AC402043146820610868102802D00868A6
:10141000112827D1174C1068A0421ED1106880688F
:1014200000F40000F0B91068806840F4000014680F
:10143000A0600868102815D10F4800680F4CB0FB59
:10144000F4F000EB80004000009002E00098401EA5
:10145000009000980028F9D104E0906A40F0200044
:101460009062012300BF002082F8240000BF1846CC
:1014700061E70000002401400C00002040420F0002
:1014800070477047704700002DE9F041044600277F
:1014900000250026A84614B90120BDE8F081A06807
:1014A00010B1207D00B100BFA06A30B90020E06219
:1014B00084F82400204600F097F82046FFF7C4FB8C
:1014C0000746A06A00F01000002873D1002F7ED1DB
:1014D000A06A20F4885040F00200A0623F4AD4E99C
:1014E0000001904208D1E069B0F5402F02D14FF4DD
:1014F000002002E0E06900E0E0690143207B41EA6E
:1015000040000643A068B0F5807F02D0A0680128A3
:1015100002D14FF4807000E000200543207D0128B7
:1015200011D1207B38B9A069401E4FF4006141EA17
:101530004030054307E0A06A40F02000A062E06A66
:1015400040F00100E0622068406820F469402843D0
:10155000216848602068806821490840304321683C
:101560008860A068B0F5807F02D0A068012802D111
:101570004FF4807000E00020B0F5807F03D1208A16
:10158000401E4FEA00582068C06A20F4700040EA0C
:1015900008002168C8622068806812490840B0428B
:1015A00009D10020E062A06A20F0020040F00100B2
:1015B000A06211E00BE0A06A20F0020040F01000F1
:1015C000A062E06A40F00100E062012704E0A06A46
:1015D00040F01000A062012738465EE7003C014061
:1015E000FDF7E1FFFE0E1FFF10B586B00446002098
:1015F00002900390049005902249206888423ED1D1
:1016000000BF2148806940F400701F498861084686
:10161000806900F40070019000BF00BF00BF084661
:10162000806940F0040088610846806900F0040089
:10163000019000BF00BF122002900320039002A976
:10164000124800F041FD124812490860002048602D
:101650000021104881608021C1604900016189003A
:101660004161202181610021C16100F0A1FB08B12D
:10167000FFF7C5FD00BF07482062446200BF06B007
:1016800010BD00000024014000100240000801408D
:1016900008000240580100202DE9F04104460D46A3
:1016A0001646002757492068884203D056492068CB
:1016B000884205D15348001D006800F4702000E006
:1016C000002000287ED100BF94F82400012802D118
:1016D0000220BDE8F081012084F8240000BF2046EC
:1016E000FFF720FB0746002F6DD1A06A40F601618D
:1016F000884340F48070A06243492068884209D141
:101700004048001D006800F4702008B9012002E084
:10171000002000E0012078B1A06A20F48010A062CF
:101720002068406800F4806000B3A06A20F4005094
:1017300040F48050A06219E0A06A40F48010A062DA
:1017400030492068884203D02F492068884205D15B
:101750002C48001D006800F4806000E0002028B1E3
:10176000A06A20F4005040F48050A062A06A00F407
:10177000805020B1E06A20F00600E06201E0002025
:10178000E06200BF002084F8240000BF1F48216AE7
:1017900088621F48216AC8621E48216A08636FF088
:1017A0000200216808602068806840F48070216829
:1017B0008860226802F14C0133462A46206A00F014
:1017C00076FB01E01AE014E02068806800F46020F5
:1017D000B0F5602F06D12068806840F4A000216831
:1017E00088600CE02068806840F480102168886080
:1017F00005E000BF002084F8240000E001273846FF
:1018000067E700000024014000280140A50C000803
:10181000150D0008F70C00080146002291F8210080
:10182000022808D00420886300BF002081F820002F
:1018300000BF012070470868006820F00E000B68A8
:1018400018600868006820F001000B68186091F8C3
:10185000403001209840CB6B5860012081F8210076
:1018600000BF002081F8200000BF1046E2E7000022
:1018700070B50446002594F82100022803D0042006
:10188000A0630125C1E02068006820F00E002168F7
:1018900008602068006820F00100216808605C4949
:1018A0002068884252D95A4978392068884201D143
:1018B000012047E0564964392068884201D1102050
:1018C00040E0534950392068884201D1801539E001
:1018D0004F493C392068884201D1801432E04C499C
:1018E00028392068884202D14FF480302AE04849E4
:1018F00014392068884202D14FF4801022E0444914
:101900002068884201D140041CE042492068884296
:1019100001D1012016E03F4914312068884201D1ED
:1019200010200FE03B4928312068884201D1801502
:1019300008E038493C312068884201D1801401E038
:101940004FF480303349091F086051E0304978393D
:101950002068884201D1012047E02D496439206880
:10196000884201D1102040E029495039206888423E
:1019700001D1801539E026493C392068884201D1DF
:10198000801432E0224928392068884202D14FF47D
:1019900080302AE01E4914392068884202D14FF471
:1019A000801022E01A492068884201D140041CE0DE
:1019B00018492068884201D1012016E015491431E8
:1019C0002068884201D110200FE012492831206898
:1019D000884201D1801508E00E493C3120688842D8
:1019E00001D1801401E04FF480300949803948600A
:1019F000012084F8210000BF002084F8200000BFEF
:101A0000606B10B12046616B8847284670BD0000AE
:101A1000800002400804024070B50446E06B05688F
:101A20002068066894F84010042088402840002868
:101A300075D006F004000028FAD02068006800F095
:101A4000200028B92068006820F0040021680860A0
:101A5000D5492068884254D9D349783920688842CA
:101A600001D1042049E0D04964392068884201D17D
:101A7000402042E0CC4950392068884201D100150D
:101A80003BE0C9493C392068884202D14FF480408C
:101A900033E0C54928392068884202D14FF48020BC
:101AA0002BE0C14914392068884202D14FF48000EC
:101AB00023E0BD492068884201D1C0041DE0BB4934
:101AC0002068884201D1042017E0B8491431206809
:101AD000884201D1402010E0B44928312068884272
:101AE00001D1001509E0B1493C312068884202D19A
:101AF0004FF4804001E04FF48020AC49091F08609A
:101B000054E0A94978392068884201D104204AE08C
:101B1000A54964392068884202D1402043E04CE066
:101B2000A14950392068884201D100153BE09E4907
:101B30003C392068884202D14FF4804033E09A4912
:101B400028392068884202D14FF480202BE0964942
:101B500014392068884202D14FF4800023E0924972
:101B60002068884201D1C0041DE090492068884265
:101B700001D1042017E08D4914312068884201D139
:101B8000402010E0894928312068884201D10015A1
:101B900009E086493C312068884202D14FF48040F8
:101BA00001E04FF48020804980394860E06A0028D5
:101BB00002D02046E16A8847F4E094F84010022001
:101BC00088402840002871D006F002000028FAD092
:101BD0002068006800F0200040B92068006820F00C
:101BE0000A0021680860012084F821006E492068FD
:101BF000884254D96C4978392068884201D1022042
:101C000049E0694964392068884201D1202042E0D6
:101C1000654950392068884201D140153BE062494E
:101C20003C392068884202D14FF4005033E05E49CD
:101C300028392068884202D14FF400302BE05A49FD
:101C400014392068884202D14FF4001023E056492D
:101C50002068884201D180041DE0544920688842F0
:101C600001D1022017E0514914312068884201D186
:101C7000202010E04D4928312068884201D14015CC
:101C800009E04A493C312068884202D14FF40050B3
:101C900001E04FF400304549091F086054E0424913
:101CA00078392068884202D102204AE057E03E4954
:101CB00064392068884201D1202042E03A495039F5
:101CC0002068884201D140153BE037493C39206803
:101CD000884202D14FF4005033E03349283920685C
:101CE000884202D14FF400302BE02F49143920688C
:101CF000884202D14FF4001023E02B49206888422B
:101D000001D180041DE029492068884201D10220C8
:101D100017E0264914312068884201D1202010E0C4
:101D2000224928312068884201D1401509E01F4925
:101D30003C312068884202D14FF4005001E04FF45A
:101D4000003019498039486000BF002084F8200025
:101D500000BFA06A30B32046A16A884722E094F809
:101D60004010082088402840E0B106F00800C8B1C3
:101D70002068006820F00E002168086094F8401088
:101D800001208840E16B48600120A06384F82100B5
:101D900000BF002084F8200000BF206B10B1204657
:101DA000216B884770BD000080000240080402409B
:101DB0000146002209B9012070471E4B086898426D
:101DC0000BD21D4B0868C01A1423B0FBF3F080003F
:101DD000086419480838C8630AE0164B0868C01A36
:101DE0001423B0FBF3F08000086412480838C8637D
:101DF000022081F821000868026843F6F0708243EF
:101E0000D1E901031843CB6818430B6918434B69A8
:101E100018438B691843CB69184302430868026072
:101E200000208863012081F82100002081F8200033
:101E300000BFC1E708040240080002402DE9F0415C
:101E400004460D4616461F464FF0000800BF94F8A2
:101E50002000012802D10220BDE8F081012084F891
:101E6000200000BF94F82100012817D1022084F837
:101E700021000020A0632068006820F00100216894
:101E800008603B46324629462046FFF7A1F9206804
:101E9000006840F001002168086006E000BF0020F3
:101EA00084F8200000BF4FF002084046D4E72DE937
:101EB000F04104460D4616461F464FF0000800BF8D
:101EC00094F82000012802D10220BDE8F081012011
:101ED00084F8200000BF94F8210001282CD10220B2
:101EE00084F821000020A0632068006820F0010031
:101EF000216808603B46324629462046FFF768F9CC
:101F0000E06A30B12068006840F00E002168086087
:101F10000BE02068006820F0040021680860206859
:101F2000006840F00A00216808602068006840F0FE
:101F300001002168086006E000BF002084F820004E
:101F400000BF4FF002084046BFE7000070B50446EE
:101F500000F068FA06462546681C10B1044800786F
:101F6000054400BF00F05EFA801BA842FAD370BDA2
:101F7000080000202DE9F04102460B4600208CE0CD
:101F80000127874007EA030100296FD0464F4FEA37
:101F9000900C57F82C4087074FEA177C0F2707FA59
:101FA0000CF73C40414FBA4201D1002719E0404FA5
:101FB000BA4201D1012714E03E4FBA4201D10227B3
:101FC0000FE03D4FBA4201D103270AE03B4FBA422E
:101FD00001D1042705E03A4FBA4201D1052700E0BC
:101FE00006274FEA807C4FEA1C7C07FA0CF7A742D1
:101FF00032D1344F3F688F43DFF8C8C0CCF800704F
:102000000CF104073F688F430CF1040CCCF800700E
:102010002C4F0C373F688F43DFF8A8C00CF10C0C35
:10202000CCF80070ACF104073F688F43ACF1040CAE
:10203000CCF8007087074FEA177C0F2707FA0CF4DB
:10204000194F4FEA900C57F82C70A743DFF858C08F
:102050004FEA90084CF82870FF2901D8174600E095
:10206000171D3D46FF2902D8870003E014E0A0F1C8
:102070000807BF003E462F684FF00F0C0CFA06FC15
:1020800027EA0C074FF0040C0CFA06FC47EA0C0791
:102090002F60D7688F43D760401C23FA00F7002FCA
:1020A0007FF46EAFBDE8F0810800014000080140F8
:1020B000000C0140001001400014014000180140D4
:1020C000001C0140000401402DE9F84702460023AE
:1020D0009C467BE14FF0010808FA03F4D1F8008038
:1020E00008EA0400A0427DD1DFF8F4A2D1F8048010
:1020F000A8EB0A09D0453AD014DCB8F1030F50D050
:1021000009DCB8F1000F31D0B8F1010F1CD0B8F1E3
:10211000020F49D120E0B8F1110F18D0B8F1120F19
:1021200042D11EE0B9F5881F25D006DCB9F5803F05
:1021300020D0B9F5801F37D11AE0B9F5001F18D0AB
:10214000B9F5041F30D117E0D1F80CC02DE0D1F85B
:102150000C8008F1040C28E0D1F80C8008F1080C80
:1021600023E0D1F80C8008F10C0C1EE000BF00BF8A
:1021700000BF00BF00BF00BFD1F80880B8F1000F5A
:1021800002D14FF0040C0BE0D1F80880B8F1010F38
:1021900003D14FF0080C146102E04FF0080C5461B9
:1021A00003E04FF0000C00E000BF00BFFF2801D8A3
:1021B000904601E002F104084646FF2802D84FEAA3
:1021C000830803E0A3F108084FEA88084746D6F8D9
:1021D00000804FF00F0909FA07F928EA09080CFAFC
:1021E00007F900E07AE048EA0908C6F80080D1F86B
:1021F000048008F08058B8F1805F6FD100BFDFF82D
:10220000E481D8F8188048F00108DFF8D891C9F8BF
:102210001880C846D8F8188008F00108CDF800806A
:1022200000BF00BF4FEAB9384FEA930958F8295068
:102230004FEA83784FEA18794FF00F0808FA09F847
:1022400025EA0805DFF8A081424502D14FF00008D9
:1022500024E0DFF89881424502D14FF001081DE0EB
:10226000DFF88C81424502D14FF0020816E0DFF81A
:102270008481424502D14FF003080FE0DFF87881F6
:10228000424502D14FF0040808E0DFF87081424572
:1022900002D14FF0050801E04FF006084FEA8379BC
:1022A0004FEA197908FA09F848EA0505DFF850817C
:1022B0004FEA930948F82950D1F8048008F48018AF
:1022C000B8F5801F0BD1DFF83C81D8F8008048EAD0
:1022D0000008DFF83091C9F800800AE075E0DFF807
:1022E0002481D8F8008028EA0008DFF81891C9F89E
:1022F0000080D1F8048008F40018B8F5001F0ED152
:10230000DFF8008108F10408D8F8008048EA0008E6
:10231000DFF8F09009F10409C9F800800DE0DFF85A
:10232000E48008F10408D8F8008028EA0008DFF803
:10233000D49009F10409C9F80080D1F8048008F4A8
:102340000038B8F5003F0ED1DFF8B880A8F10408D6
:10235000D8F8008048EA0008DFF8A890A9F104093D
:10236000C9F800800DE0DFF89C80A8F10408D8F8D7
:10237000008028EA0008DFF88C90A9F10409C9F868
:102380000080D1F8048008F48038B8F5803F0ED181
:10239000DFF87080A8F10808D8F8008048EA000843
:1023A000DFF86090A9F10809C9F800800DE0DFF8B6
:1023B0005480A8F10808D8F8008028EA0008DFF85F
:1023C0004490A9F10809C9F800805B1CD1F800808D
:1023D00028FA03F8B8F1000F7FF47CAEBDE8F88767
:1023E000000011100010024000080140000C0140E4
:1023F000001001400014014000180140001C014081
:102400000800014008040140024693680B400BB1EC
:10241000012000E0002070470AB1016101E00B04D7
:102420000361704701480068704700000000002009
:1024300010B504460CB9012010BD242084F83D00DD
:102440002068006820F0010021680860204600F044
:1024500063FB0020206484F83D00206384F83E0084
:1024600000BF84F83C0000BF00BFE5E770B504463C
:102470000CB9012070BD94F83D0028B9002084F803
:102480003C00204600F064FB242084F83D002068D6
:10249000006820F00100216808602068006840F4AE
:1024A0000040216808602068006820F4004021682E
:1024B000086000F049FE05465C496068884206D81D
:1024C0005B48854201D2012007E0002005E0594821
:1024D000854201D2012000E00020012800D1C9E797
:1024E0005548B5FBF0F62068406820F03F003043C7
:1024F000216848604D496068884201D8701C07E037
:102500004FF4967070434FF47A71B0FBF1F0401CB9
:102510002168096A21F03F010843216808624349A4
:102520006068884214D8681E61684900B0FBF1F009
:10253000401CC0F30B00042801D204203DE0681EBB
:1025400061684900B0FBF1F0401CC0F30B0034E0BF
:10255000A06838B9681E616801EB4101B0FBF1F079
:10256000401C0AE0681E616801EBC10202EB011128
:10257000B0FBF1F0401C40F48040C0F30B0008B900
:1025800001201AE0A06848B9681E616801EB4101AA
:10259000B0FBF1F0401CC0F30B000CE0681E61685A
:1025A00001EBC10202EB0111B0FBF1F0401CC0F3E2
:1025B0000B0040F4804040F400402168C9694CF6AB
:1025C000FF72914308432168C861D4E907010843B9
:1025D0002168096821F0C001084321680860D4E936
:1025E000031008432168896848F2FF329143084389
:1025F00021688860D4E9050108432168C96821F091
:10260000FF0108432168C8602068006840F00100AD
:102610002168086000202064202084F83D0000200C
:10262000206384F83E0000BF24E70000A08601007C
:1026300080841E0000093D0040420F002DE9FC4748
:1026400004468946174698460A9E00200190FFF7E7
:10265000E9FE054694F83D0020286FD11923012298
:10266000CD492046009502F024F810B10220BDE8C3
:10267000FC8700BF94F83C00012801D10220F6E756
:10268000012084F83C0000BF2068006800F00100D1
:1026900028B92068006840F00100216808602068BF
:1026A000006820F4006021680860222084F83D0062
:1026B000102084F83E00002020646762A4F82A807D
:1026C000608D2085B548E0622B463246494620465B
:1026D00001F0AAFE08B10120C9E7208D88B900BF2A
:1026E0000020009020684069009020688069009078
:1026F00000BF00BF2068006840F4007021680860D7
:102700004BE0208D01281AD12068006820F48060F9
:102710002168086072B600BF002000902068406900
:10272000009020688069009000BF00BF20680068AA
:1027300040F400702168086062B62EE029E1208D27
:10274000022819D12068006840F400602168086000
:1027500072B600BF00200090206840690090206899
:102760008069009000BF00BF2068006820F480608E
:102770002168086062B610E02068006840F480605C
:102780002168086000BF0020009020684069009028
:1027900020688069009000BF00BFEBE0208D032817
:1027A0007ED8208D012815D12A463146204602F0D8
:1027B0005CF808B101205AE720680069616A087076
:1027C000606A401C6062208D401E2085608D401E26
:1027D0006085CFE0208D02282CD13346002270493D
:1027E0002046009501F065FF08B101203FE772B671
:1027F0002068006840F40070216808602068006963
:10280000616A0870606A401C6062208D401E2085ED
:10281000608D401E608562B620680069616A08703C
:10282000606A401C6062208D401E2085608D401EC5
:1028300060859FE03346002259492046009501F00B
:1028400038FF08B1012012E72068006820F480609A
:102850002168086072B620680069616A0870606A61
:10286000401C6062208D401E2085608D401E60856A
:102870004C4800681921B0FBF1F04FF47A71B0FBBD
:10288000F1F0C0EBC00000EB8000019000BF0198A8
:10289000401E01900198A8B900202063202000E08C
:1028A00038E084F83D00002084F83E00206C40F0C1
:1028B0002000206462B600BF002084F83C0000BF06
:1028C0000120D4E620684069C0F380000028DED0F3
:1028D0002068006840F40070216808602068006982
:1028E000616A0870606A401C6062208D401E20850D
:1028F000608D401E608562B620680069616A08705C
:10290000606A401C6062208D401E2085608D401EE4
:1029100060852FE02A463146204601F0A6FF08B127
:102920000120A4E620680069616A0870606A401CA2
:102930006062208D401E2085608D401E608520686D
:102940004069C0F38000A8B1208D032805D120681C
:10295000006820F480602168086020680069616A6E
:102960000870606A401C6062208D401E2085608D6A
:10297000401E6085208D00287FF410AF202084F851
:102980003D00002084F83E0000BF84F83C0000BFFA
:102990006DE602206BE60000020010000000FFFF61
:1029A000040001000C0000202DE9F843044689468C
:1029B00016461F46DDF82080FFF734FD054694F8E3
:1029C0003D0020287ED1192301225149204600953F
:1029D00001F06FFE10B10220BDE8F88300BF94F84B
:1029E0003C00012801D10220F6E7012084F83C00D8
:1029F00000BF2068006800F0010028B92068006866
:102A000040F00100216808602068006820F4006040
:102A100021680860212084F83D00102084F83E00E1
:102A20000020206466626785608D20853948E062F9
:102A30002B4642464946204601F092FD08B101204E
:102A4000CAE700BF0020009020684069009020681D
:102A50008069009000BF00BF44E02A4641462046FE
:102A600001F048FF50B1206C042805D120680068AF
:102A700040F40070216808600120ADE7606A0078CA
:102A800021680861606A401C6062608D401E60853C
:102A9000208D401E208520684069C0F3800070B101
:102AA000208D60B1606A007821680861606A401C0E
:102AB0006062608D401E6085208D401E20852A4604
:102AC000414600E022E0204601F0C0FD50B1206CFC
:102AD000042805D12068006840F40070216808606F
:102AE000012079E7208D0028B7D12068006840F4E4
:102AF000007021680860202084F83D00002084F8E0
:102B00003E0000BF84F83C0000BF65E7022063E799
:102B1000020010000000FFFF10B5044609492068BC
:102B200088420DD10848C06920F400100649C861E8
:102B300040210648FFF71EFA80210448FFF71AFAE1
:102B400010BD00000054004000100240000C014085
:102B500010B586B0044600200290039004900590C2
:102B600015492068884225D100BF1448806940F08B
:102B70000800124988610846806900F00800019049
:102B800000BF00BFC02002901220039003200590D8
:102B900002A90B48FFF798FA00BF0848C06940F443
:102BA00000100649C8610846C06900F40010019091
:102BB00000BF00BF06B010BD00540040001002402E
:102BC000000C0140034800680349097808440149A2
:102BD00008607047000000200800002010B5084879
:102BE000006840F0100006490860032000F0A8F8D3
:102BF000002000F007F800F02BF8002010BD0000C6
:102C00000020024070B504460E4800784FF47A71F7
:102C1000B1FBF0F00C490968B1FBF0F5284600F073
:102C20001DFD08B1012070BD102C07D200222146E5
:102C3000501E00F047F80548046001E00120F2E76B
:102C40000020F0E7080000200C0000200400002015
:102C500008B500BF1148806940F001000F49886144
:102C60000846806900F00100009000BF00BF00BF6F
:102C70000846C06940F08050C8610846C06900F04D
:102C80008050009000BF00BF00BF0549486820F099
:102C9000E06040F00070486000BF08BD00100240D6
:102CA0000000014001460846002809DB00F01F0330
:102CB00001229A4043099B0003F1E023C3F800215D
:102CC00000BF70472DE9F05F80460D46164600278D
:102CD00002F02EFF074639462A46334601F0070028
:102CE000C0F1070ABAF1040F02D94FF0040A01E05B
:102CF000C0F1070AD14600F1040ABAF1070F02D267
:102D00004FF0000A01E0A0F1030AD4464FF0010A97
:102D10000AFA09FAAAF1010A0AEA020A0AFA0CFAFC
:102D20004FF0010B0BFA0CFBABF1010B0BEA030BA1
:102D30004AEA0B042146404602F002FFBDE8F09F3C
:102D400000BF00F00702064B19684FF6FF03194059
:102D5000044B0B4343EA0221014B196000BF70474B
:102D60000CED00E00000FA052DE9F04706464FF0B3
:102D70000008002500270024A146042E37D004DCDB
:102D8000012E3CD0022E6CD160E0082E33D0102EE4
:102D900067D136484468006800F0807008B3344852
:102DA000C4F38341475C04F4803078B12F48406815
:102DB000C0F340402F4911F8008004F4803040B146
:102DC0002D48B0FBF8F000FB07F502E02B4807FBAD
:102DD00000F52648406800F48000B0F5800F01D16E
:102DE000A94603E068000321B0FBF1F93AE000F0E6
:102DF000CBF9814636E000F0C7F9814632E01B4846
:102E0000046A04F44070B0F5807F05D104F002003C
:102E100010B14FF4004918E004F44070B0F5007FA1
:102E200007D11248406A00F0020010B149F640494B
:102E30000BE004F44070B0F5407F06D10B48006809
:102E400000F4003008B14FF224490BE000F08CF997
:102E500006494968C1F38131491C4900B0FBF1F9C9
:102E600000E000BF00BF4846BDE8F0870010024008
:102E70007EA600088EA6000800127A0000093D0018
:102E8000F8B5044600260025207800F0010000284F
:102E90006BD000274348C06900F0805070B900BF74
:102EA0004048C06940F080503E49C8610846C0694A
:102EB00000F08050009000BF00BF01273A48006832
:102EC00000F48070B0B93848006840F4807036492A
:102ED0000860FFF7A7FA064606E0FFF7A3FA801B93
:102EE000642801D90320F8BD2F48006800F48070E1
:102EF0000028F2D02B48006A00F440752DB3A0885A
:102F000000F44070A84220D02648006A20F44075A2
:102F1000012026490860002008602248056205F06B
:102F2000010090B1FFF77EFA064608E0FFF77AFA53
:102F3000801B41F28831884201D90320D3E7194828
:102F4000006A00F002000028F0D01648006A20F461
:102F500040706168084313490862012F04D1084694
:102F6000C06920F08050C86100BF207800F00200E6
:102F7000022807D10B48406820F44040A16808436C
:102F800008494860207800F01000102807D1054853
:102F9000406820F4800061690843024948600020CD
:102FA000A1E70000001002400070004040044242CF
:102FB00070B504460D460CB9012070BD5A48006832
:102FC00000F00700A8420ED25748006820F0070022
:102FD0002843554908600846006800F00700A842E9
:102FE00001D00120E9E7207800F0020002281DD17D
:102FF000207800F00400042805D14C48406840F4D3
:10300000E0604A494860207800F00800082805D1AF
:103010004648406840F4605044494860434840682E
:1030200020F0F000A168084340494860207800F093
:10303000010078B36068012806D13C48006800F4BC
:10304000003090B90120B8E76068022806D13748FF
:10305000006800F0007040B90120AEE73348006816
:1030600000F0020008B90120A7E73048406820F0CE
:103070000300616808432D494860FFF7D3F906460D
:1030800009E0FFF7CFF9801B41F28831884202D96D
:10309000032092E707E02548406800F00C006168D3
:1030A000B0EB810FEDD12048006800F00700A84286
:1030B0000ED91D48006820F0070028431A4908600F
:1030C0000846006800F00700A84201D0012074E71C
:1030D000207800F00400042807D11448406820F448
:1030E000E060E168084311494860207800F008007A
:1030F000082808D10D48406820F46050216940EA52
:10310000C1000A49486000F03FF808494968C1F326
:103110000311074A515CC840064908600648006828
:10312000FFF770FD002048E7002002400010024039
:1031300090A600080C000020040000200148006850
:10314000704700000C00002000B5FFF7F7FF0449AE
:103150004968C1F30221034A515CC84000BD000028
:1031600000100240A0A6000800B5FFF7E7FF0449E1
:103170004968C1F3C221034A515CC84000BD000048
:1031800000100240A0A6000870B500210022002413
:1031900000230020134D696801F00C05F5B1042DE2
:1031A00002D0082D19D101E00F4819E00F4DC1F3ED
:1031B0008346AB5D01F4803555B10A4D6D68C5F3AA
:1031C00040450B4E725D084D5D43B5FBF2F402E0E5
:1031D000084D03FB05F4204602E000BF024800BF93
:1031E00000BF70BD0010024000127A006CA60008FB
:1031F0007CA6000800093D00F8B504460CB9012082
:10320000F8BD207800F00100002878D0F848406828
:1032100000F00C0004280CD0F548406800F00C00C9
:10322000082811D1F248406800F48030B0F5803FA2
:103230000AD1EF48006800F4003000285FD06068D1
:1032400000285CD10120DBE700BF6068B0F5803F5B
:1032500006D1E748006840F48030E549086028E07E
:10326000606858B9E248006820F48030E04908609E
:103270000846006820F4802008601AE06068B0F515
:10328000A02F0BD1DA48006840F48020D8490860AC
:103290000846006840F4803008600AE0D4480068BE
:1032A00020F48030D24908600846006820F480206D
:1032B000086000BF606888B1FFF7B4F8054606E013
:1032C000FFF7B0F8401B642801D9032098E7C848ED
:1032D000006800F400300028F2D010E0FFF7A2F8F8
:1032E000054606E0FFF79EF8401B642801D903203D
:1032F00086E7BF48006800F400300028F2D120784B
:1033000000F00200022857D1B948406800F00C00D4
:1033100050B1B748406800F00C00082818D1B448F4
:10332000406800F4803098B9B148006800F00200AD
:1033300020B12069012801D0012061E7AC48006874
:1033400020F0F800616940EAC100A949086033E053
:103350002069E8B10120A7490860FFF763F8054636
:1033600006E0FFF75FF8401B022801D9032047E77A
:103370009F48006800F002000028F2D09C480068D6
:1033800020F0F800616940EAC1009949086013E043
:10339000002098490860FFF745F8054606E0FFF76A
:1033A00041F8401B022801D9032029E79048006812
:1033B00000F002000028F2D1207800F00800082870
:1033C0002DD1A069B8B101208B490860FFF72AF818
:1033D000054606E0FFF726F8401B022801D9032026
:1033E0000EE78348406A00F002000028F2D0012076
:1033F00001F020FF13E000207F490860FFF712F87A
:10340000054606E0FFF70EF8401B022801D903200D
:10341000F6E67748406A00F002000028F2D12078F2
:1034200000F00400042873D100277148C06900F03F
:10343000805070B900BF6E48C06940F080506C4940
:10344000C8610846C06900F08050009000BF00BF0E
:1034500001276A48006800F48070B0B967480068C6
:1034600040F4807065490860FEF7DCFF054606E021
:10347000FEF7D8FF401B642801D90320C0E65F484F
:10348000006800F480700028F2D000BFE0680128D6
:1034900006D15748006A40F001005549086227E00C
:1034A000E06858B95248006A20F0010050490862AB
:1034B0000846006A20F00400086219E0E068052868
:1034C0000BD14B48006A40F00400494908620846A5
:1034D000006A40F0010008620AE04548006A20F0F6
:1034E0000100434908620846006A20F004000862AF
:1034F00000BFE068A0B1FEF795FF054609E0FEF7C2
:1035000091FF401B41F28831884202D9032077E6BF
:1035100022E03748006A00F002000028EFD012E0F5
:10352000FEF780FF054608E0FEF77CFF401B41F2F6
:103530008831884201D9032062E62D48006A00F0F4
:1035400002000028F0D1012F05D12948C06920F0E0
:1035500080502749C86100BFE069C8B3244840686B
:1035600000F00C00082860D0E069022848D1002053
:1035700020490866FEF756FF054606E0FEF752FFB3
:10358000401B022801D903203AE61948006800F0E0
:1035900000700028F2D1206AB0F5803F07D11448AE
:1035A000406820F40030A168084311494860D4E91C
:1035B000080108430E49496821F4741108430C4975
:1035C000486001200B490866FEF72CFF054607E01E
:1035D0003DE0FEF727FF401B022801D903200FE63C
:1035E0000348006800F000700028F2D02FE00000CF
:1035F000001002400000424280044242007000403D
:10360000002014490866FEF70DFF054606E0FEF7A8
:1036100009FF401B022801D90320F1E50E4800688C
:1036200000F000700028F2D111E0E069012800D11B
:10363000E6E50948466806F48031206A814204D1F3
:1036400006F47011606A814201D00120D8E50020A3
:10365000D6E50000000042420010024070B504466A
:103660002546681EB0F1807F01D301200FE0681E5F
:103670004FF0E02148610F214FF0FF3002F060FA77
:1036800000204FF0E021886107200861002070BD14
:1036900030B502460B4600BF92F83C00012801D12C
:1036A000022030BD012082F83C0000BF022082F8D9
:1036B0003D00106844681068816824F07004186840
:1036C000044310684460144D1068A84213D0134D91
:1036D0001068A8420FD01068B0F1804F0BD0104D89
:1036E0001068A84207D00F4D1068A84203D00E4DB5
:1036F0001068A84205D121F0800158680143106884
:103700008160012082F83D0000BF002082F83C006B
:1037100000BF00BFC5E70000002C0140003401409D
:103720000004004000080040000C004010B50446B2
:103730000CB9012010BD94F83D0028B9002084F890
:103740003C00204600F026F8022084F83D00211DB0
:10375000206801F00DFE012084F8460000BF84F8C7
:103760003E0001213F2001554020015541200155D7
:1037700000BF00BF012084F84200432001554420CF
:1037800001554520015500BF012084F83D0000206F
:10379000D0E7000038B5044635492068884266D134
:1037A00000BF3448C06940F004003249C86108468F
:1037B000C06900F00400009000BF00BF2E482F49F0
:1037C00008601020486000212C4881608021C16081
:1037D0004900016189004161002181614FF48051FC
:1037E000C161FEF7E5FA08B1FDF709FD00BF234806
:1037F0002062446200BF20483C3821490860102004
:10380000486000211E4881608021C160490001613B
:1038100089004161002181614FF48051C161FEF74F
:10382000C7FA08B1FDF7EBFC00BF1549A1620846D5
:10383000446200BF104828381249086010204860D0
:103840000021104881608021C16049000161890028
:10385000416100218161C161FEF7AAFA08B1FDF75B
:10386000CEFC00BF0749E1620846446200BF38BD94
:103870000008004000100240800002403802002092
:103880007C020020C00200202DE9F04104460D46D4
:10389000002700BF94F83C00012802D10220BDE8B7
:1038A000F081012084F83C0000BF022084F83D0034
:1038B0002068866826F0770626F47F4620688660B2
:1038C0002868502833D00CDC202850D004DC002895
:1038D0004BD0102851D149E0302849D040284CD154
:1038E00039E060282DD0702807D0B0F5805F03D074
:1038F000B0F5005F41D10DE041E0D5E902136A68FF
:10390000206801F09CFD2068866846F077062068F4
:10391000866034E0D5E902136A68206801F08FFD03
:103920002068806840F480402168886027E0EA6869
:103930006968206801F074FE5021206801F08AFD5A
:103940001DE0EA686968206801F07DFE602120685A
:1039500001F080FD13E0EA686968206801F060FE0C
:103960004021206801F076FD09E000BF00BF00BFE4
:103970002968206801F06EFD01E0012700BF00BF4B
:10398000012084F83D0000BF002084F83C0000BF07
:10399000384684E710B586B00446002002900390B4
:1039A000049005901849206888422BD100BF174821
:1039B000806940F02000154988610846806900F060
:1039C0002000019000BF00BF4FF4E04002900220B1
:1039D00003900320059002A90D48FEF775FB4FF4F4
:1039E0000040029002200390059002A90848FEF7CB
:1039F0006BFB00BF0749486840F0E06040F480502E
:103A0000486000BF06B010BD000800400010024032
:103A100000140140000001402DE9F04104460D462C
:103A20001646002700BF94F83C00012802D102206E
:103A3000BDE8F081012084F83C0000BF36B1042EBF
:103A40001BD0082E31D00C2E5ED145E029462068CF
:103A500001F00AFD2068806940F008002168886153
:103A60002068806920F004002168886120688069EE
:103A7000296908432168886148E02946206801F0E7
:103A80002BFD2068806940F400602168886120680F
:103A9000806920F4806021688861206880692969D4
:103AA00040EA01202168886130E02946206801F061
:103AB00051FD2068C06940F008002168C861206895
:103AC000C06920F004002168C8612068C0692969C4
:103AD00008432168C86119E02946206801F076FD95
:103AE0002068C06940F400602168C8612068C0692E
:103AF00020F480602168C8612068C069296940EAB3
:103B000001202168C86101E0012700BF00BF00BF9C
:103B1000002084F83C0000BF384689E710B5044611
:103B20000CB9012010BD94F83D0028B9002084F89C
:103B30003C00204600F025F8022084F83D00211DBD
:103B4000206801F015FC012084F8460000BF84F8CD
:103B50003E0001213F2001554020015541200155E3
:103B600000BF00BF012084F84200432001554420DB
:103B700001554520015500BF012084F83D0000207B
:103B8000D0E7704770B504460D4615B994F83E006D
:103B90000BE0042D02D13F20005D06E0082D02D18C
:103BA0004020005D01E04120005D012801D001209E
:103BB00070BD1DB9022084F83E000EE0042D03D133
:103BC00002213F20015508E0082D03D102214020A9
:103BD000015502E0022141200155012229462068B9
:103BE00001F01CFC1F492068884203D01E49206850
:103BF000884201D1012000E0002028B12068406CFB
:103C000040F400402168486416492068884213D077
:103C10001549206888420FD02068B0F1804F0BD042
:103C200012492068884207D011492068884203D091
:103C30001049206888420CD12068806800F007068F
:103C4000062E0CD02068006840F001002168086052
:103C500005E02068006840F001002168086000204D
:103C6000A6E70000002C01400034014000040040A1
:103C700000080040000C0040F8B504460E46174608
:103C800094F8420020282ED106B10FB90120F8BDCA
:103C900001202063002060633A463146204601F04F
:103CA0003BFE0546EDB9206B012819D100BF00206D
:103CB000009020680068009020684068009000BF75
:103CC00000BF00BF00BF21680C3151E8001F41F068
:103CD000100021680C3141E80002002AF3D100E015
:103CE00001252846D3E70220D1E7000070B505463C
:103CF0000C46234885420ED122490C70B4F5007F52
:103D000002D20020204908554FF400721E491C4879
:103D1000FFF7B2FF32E01D48854210D11C490C70FC
:103D2000B4F5007F02D200201A49085501201A4933
:103D30000870420217491548FFF79EFF1EE017481A
:103D400085420CD116490C707D2C02D200201549F9
:103D500008557D2213491148FFF78EFF0EE01248E7
:103D600085420BD111490C707D2C02D200201049E4
:103D700008557D220E490C48FFF77EFF70BD0000FC
:103D80004C030020B1000020000E0020940300200E
:103D9000B30000200010002010000020DC030020F1
:103DA000B50000200012002004030020B70000200E
:103DB0007D120020704700002DE9F84F044620686E
:103DC00005682068C668206847694FF00009CA4640
:103DD00005F00F09B9F1000F0AD105F0200038B144
:103DE00006F0200020B1204601F09AFCBDE8F88FD3
:103DF000B9F1000F7BD007F0010018B906F49070FC
:103E0000002874D005F0010030B106F4807018B1BC
:103E1000606C40F00100606405F0040030B107F010
:103E2000010018B1606C40F00200606405F002000F
:103E300030B107F0010018B1606C40F0040060641C
:103E400005F0080048B106F0200010B907F00100A5
:103E500018B1606C40F008006064606C002845D0C8
:103E600005F0200028B106F0200010B1204601F036
:103E700057FC20684069C0F3801A606C00F00800AD
:103E800010B9BAF1000F2CD0204601F003FC2068D5
:103E9000406900F0400000B300BF00BF216814314A
:103EA00051E8001F21F040002168143141E8000270
:103EB000002AF3D100BFE06B50B17748E16B486353
:103EC000E06BFDF7D5FC88B1E06B416B88470DE0F6
:103ED0002046FFF76FFF09E009E02046FFF76AFF81
:103EE00004E02046FFF766FF002060647EE7206B59
:103EF000012877D105F01000002873D006F01000DB
:103F00000028FAD000BF00200090206800680090D0
:103F100020684068009000BF00BF2068406900F042
:103F2000400000285FD0E06B006840681FFA80F80E
:103F3000B8F1000F55D0A08D404552DDA4F82E8079
:103F4000E06B8069202843D000BF00BF21680C319E
:103F500051E8001F21F4807021680C3141E8000213
:103F6000002AF3D100BF00BF00BF2168143151E81F
:103F7000001F21F001002168143141E80002002AED
:103F8000F3D100BF00BF00BF2168143151E8001F0A
:103F900021F040002168143141E80002002AF3D1E9
:103FA00000BF202084F842000020206300BF00BF33
:103FB00021680C3151E8001F21F0100021680C31FC
:103FC00041E80002002AF3D100BFE06BFDF724FCBA
:103FD00002206063A08DE28D801A81B22046FFF737
:103FE00085FE03E742E0A08DE18D401A1FFA80F8BC
:103FF000E08DD0B3B8F1000F37D000BF00BF21680B
:104000000C3151E8001F21F4907021680C3141E817
:104010000002002AF3D100BF00BF00BF21681431A5
:1040200051E8001F21F001002168143141E800022D
:10403000002AF3D100BF202084F842000020206332
:1040400000BF00BF21680C3151E8001F21F01000B3
:1040500021680C3141E80002002AF3D100BF0220A0
:10406000606341462046FFF741FEBFE605F0800051
:1040700030B106F0800018B1204601F06DFCB5E6C5
:1040800005F0400030B106F0400018B1204601F0C4
:1040900037FBABE600BFA9E68156000810B5044621
:1040A0000CB9012010BDA06900B100E000BF94F878
:1040B000410028B9002084F84000204600F02AF88A
:1040C000242084F841002068C06820F40050216852
:1040D000C860204601F0A2FB2068006920F49040EF
:1040E000216808612068406920F02A002168486141
:1040F0002068C06840F400502168C86000206064F7
:10410000202084F8410084F842000020606300BF52
:10411000C8E7000010B586B0044600200290039066
:104120000490059077492068884237D100BF7648CF
:10413000C06940F400207449C8610846C06900F4B1
:104140000020019000BF00BF00BF0846806940F01A
:10415000100088610846806900F01000019000BFDF
:1041600000BF08150290022003900320059002A9C9
:104170006648FDF7A9FF4FF400600290002003900D
:10418000049002A96148FDF79FFF002211463420E8
:10419000FEF798FD3420FEF785FDB1E05C4920680C
:1041A000884237D100BF5848806940F48040564962
:1041B00088610846806900F48040019000BF00BF1C
:1041C00000BF0846806940F00400886108468069A5
:1041D00000F00400019000BF00BF481502900220CB
:1041E00003900320059002A94A48FDF76DFF4FF4A4
:1041F0008060029000200390049002A94548FDF7DA
:1042000063FF002211462520FEF75CFD2520FEF706
:1042100049FD75E040492068884236D100BF3A48E0
:10422000C06940F400303849C8610846C06900F4EC
:104230000030019000BF00BF00BF0846806940F019
:10424000040088610846806900F00400019000BF06
:1042500000BF04200290022003900320059002A9D1
:104260002C48FDF731FF08200290002003900490B5
:1042700002A92848FDF728FF002211462620FEF754
:1042800021FD2620FEF70EFD3AE0244920688842F1
:1042900036D100BF1C48C06940F480201A49C8616B
:1042A0000846C06900F48020019000BF00BF00BF35
:1042B0000846806940F0080088610846806900F07F
:1042C0000800019000BF00BF081502900220039073
:1042D0000320059002A91248FDF7F6FE4FF4006096
:1042E000029000200390049002A90D48FDF7ECFE17
:1042F000002211462720FEF7E5FC2720FEF7D2FC1E
:1043000006B010BD004C00400010024000100140FB
:1043100000380140000801400044004000480040CF
:10432000000C014070472DE9F84F04460E46174631
:1043300099464FF0000A94F84100202850D106B168
:1043400017B90120BDE8F88F00206064212084F8AF
:104350004100FEF767F88246A784E784A068B0F5BD
:10436000805F04D1206910B90025B04602E03546CF
:104370004FF000081EE05346002280212046CDF871
:10438000009001F019FB20B1202084F841000320A7
:10439000D8E745B9B8F80000C0F3080021684860C4
:1043A00008F1020803E02878216848606D1CE08C61
:1043B000401EE084E08C0028DDD1534600224021DD
:1043C0002046CDF8009001F0F7FA20B1202084F8C3
:1043D00041000320B6E7202084F841000020B1E727
:1043E0000220AFE7704700BFFEE70146086840695A
:1043F000C0F38020B0B16FF480600A685061002083
:104400000863202081F83D00002081F83E00086C00
:1044100040F00400086400BF002081F83C0000BFA9
:10442000012070470020FCE72DE9F84304460D46C3
:1044300090461E46E76A2068006840F48060216864
:104440000860082F04D0012F02D017F5803F06D155
:104450002068006840F480702168086008E0206BE4
:10446000112805D12068006840F480702168086038
:10447000434600224FF001112046009600F019F942
:1044800060B12068006800F48070B0F5807F02D1D0
:104490004FF4007020640320BDE8F8832069B0F574
:1044A000804F05D1E8B240F001002168086149E081
:1044B00005F44070F02141EAE010216808613346BC
:1044C00042462649204600F053F908B10120E3E7AF
:1044D000E8B221680861334642462049891F2046D8
:1044E00000F046F908B10120D6E700BF0020009097
:1044F00020684069009020688069009000BF00BF7C
:104500002068006840F480702168086043460022FB
:104510004FF001112046009600F0CBF858B120680A
:10452000006800F48070B0F5807F02D14FF4007015
:1045300020640320B0E705F44070F12141EAE01067
:1045400021680861334642460449891F204600F02D
:104550000FF908B101209FE700209DE70800010046
:104560002DE9F84304460D4617469846E66A082E9C
:1045700004D0012E02D016F5803F06D120680068D5
:1045800040F480702168086008E0206B122805D193
:104590002068006840F48070216808603B46002273
:1045A0004FF001112046CDF8008000F082F860B194
:1045B0002068006800F48070B0F5807F02D14FF46D
:1045C000007020640320BDE8F8832069B0F5804FB7
:1045D00004D105F0FE002168086112E005F4407086
:1045E000F02141EAE0102168086143463A460B4950
:1045F000204600F0BDF808B10120E4E7E8B22168E8
:10460000086143463A460549891F204600F0B0F844
:1046100008B10120D7E70020D5E70000080001001D
:1046200010B504462068006840F400402168086026
:1046300000BF2068006820F4004021680860204620
:10464000FDF7F6FE2046FDF711FF10BD70B50446DC
:104650000D46164625E02046FFF7C7FE08B10120AB
:1046600070BD681CE8B1FDF7DDFE801BA84200D8D4
:10467000BDB920684069C0F3800090B90020206374
:10468000202084F83D00002084F83E00206C40F09B
:104690002000206400BF002084F83C0000BF0120FF
:1046A000DEE720684069C0F380000028D3D00020F6
:1046B000D6E72DE9F04104460D4617461E46DDF8C3
:1046C000188038E0701CA8B3FDF7ACFEA0EB080022
:1046D000B04200D876BBC5F3074001280AD1206854
:1046E0004069A9B20840A9B2884201D101200BE07B
:1046F000002009E020688069A9B20840A9B2884278
:1047000001D1012000E00020B84214D10020206334
:10471000202084F83D00002084F83E00206C40F00A
:104720002000206400BF002084F83C0000BF01206E
:10473000BDE8F081FFE7C5F3074001280AD12068F2
:104740004069A9B20840A9B2884201D101200BE01A
:10475000002009E020688069A9B20840A9B2884217
:1047600001D1012000E00020B842ABD00020DFE7FB
:104770002DE9F04104460D4616461F4658E02068D4
:104780004069C0F38020E8B12068006840F4007000
:10479000216808606FF48060216848610020206310
:1047A000202084F83D00002084F83E00206C40F07A
:1047B0000400206400BF002084F83C0000BF0120FA
:1047C000BDE8F081701C90B3FDF72CFEC01BB04219
:1047D00000D866BBC5F3074001280AD120684069AC
:1047E000A9B20840A9B2884201D101200BE0002003
:1047F00009E020688069A9B20840A9B2884201D1C5
:10480000012000E0002090B900202063202084F8DF
:104810003D00002084F83E00206C40F02000206421
:1048200000BF002084F83C0000BF0120C8E7FFE77C
:10483000C5F3074001280AD120684069A9B20840A1
:10484000A9B2884201D101200BE0002009E02068D4
:104850008069A9B20840A9B2884201D1012000E0D4
:10486000002000288BD00020AAE770B504460D4632
:10487000164637E020684069C0F30010A0B16FF021
:1048800010002168486100202063202084F83D004A
:10489000002084F83E00206C206400BF002084F8D3
:1048A0003C0000BF012070BDFDF7BCFD801BA8428D
:1048B00000D8BDB920684069C0F3801090B90020CD
:1048C0002063202084F83D00002084F83E00206C06
:1048D00040F02000206400BF002084F83C0000BFAE
:1048E0000120E0E720684069C0F380100028C1D0B3
:1048F0000020D8E770B504460D46164625E0204650
:10490000FFF773FD08B1012070BD681CE8B1FDF729
:1049100089FD801BA84200D8BDB920684069C0F35A
:10492000C01090B900202063202084F83D000020B2
:1049300084F83E00206C40F02000206400BF00207E
:1049400084F83C0000BF0120DEE720684069C0F326
:10495000C0100028D3D00020D6E700002DE9F04396
:104960009FB081467FA14846FBF742FC10B91FB0BB
:10497000BDE8F08380227C49484602F0E9FF4FF40D
:1049800000727A49484602F0A9FF774803F074F8AC
:1049900005462846012D04D0022821D003287CD1C9
:1049A000D3E000201E901D901EA8692170A31DAAAF
:1049B000CDE9001001216D4803F046FD9DF874001B
:1049C00040B11E98C82805D16BA173481E9A04F007
:1049D000BDFA04E071A170481E9A04F0B7FABEE077
:1049E00000201E901D901C901DA8692173A21EAB73
:1049F000CDE90132CDE90310622071A31CAA022186
:104A000000905A4803F020FD9DF8700098B11E9860
:104A100008B9012000E00020024620216948FDF786
:104A2000FBFC1E9808B168A000E068A0024668A1DF
:104A3000594804F08BFA9DF8710040B11D9988B275
:104A400002F0D2FF66A154481D9A04F07FFA0124B7
:104A50006AE000200B900A9009900890234664A217
:104A6000102114A801F008F8234664A2102110A810
:104A700001F002F8234664A210210CA800F0FCFF0C
:104A800009A869210CAA0AABCDE90432CDE90610C8
:104A9000084610A90BAA692300E05BE0CDE90032CB
:104AA000CDE9021014AB08AA0321304803F0CCFC76
:104AB0009DF8200028B99DF8210010B99DF822002A
:104AC00080B39DF8200010B10B98C0B202E02046E0
:104AD00005F02CFD06469DF8210010B10A98C0B2E1
:104AE00002E0204605F006FD07469DF8220010B1C1
:104AF0000998C0B202E0204605F0DAFC804605F0D5
:104B0000F3FCA0420DDB43463A463146204605F011
:104B100073FD334622463FA11F48CDE9007804F0DB
:104B200015FA00BF601CC4B2042C92DD002018905E
:104B300019901A901B90102218A90C4803F01EF827
:104B400010B118A804F04CF809E03AA1124804F09A
:104B5000FDF904E03CA1104804F0F8F900BF00BFE3
:104B600000BF04E77D0D0A00800B0020000C002030
:104B7000636F6465000000000D0A5B4D53475D20C4
:104B80007570207375636365737328636F64653D27
:104B90002564290D0A0000004C0300200D0A5B4D1E
:104BA00053475D2075702066616C73652028636FC4
:104BB00064653D2564290D0A0000000066616E00F1
:104BC0004C454400001801404F4E00004F4646003F
:104BD0005B4354524C5D204C45442025730D0A0024
:104BE0005B4354524C5D2066616E3D25640D0A00A6
:104BF00052474225645F524144000000524742251B
:104C0000645F475245454E0052474225645F424C1F
:104C1000554500005B4354524C5D20524742256489
:104C200020523D256420473D256420423D25640DEA
:104C30000A0000005B4D53475D636D64207365742B
:104C40007465640D0A0000005B4D53475D20646F7E
:104C50006E2774206B6E6F770D0A00000EB5002072
:104C60000090019002901848184908608115174873
:104C7000816001210173002101754FF46021C16140
:104C8000002012494860022110480161FCF7FCFB3A
:104C900008B1FCF7B4FA01200090019007200290BF
:104CA00069460A48FCF73CFB08B1FCF7A8FA042067
:104CB00000900220019069460448FCF731FB08B1DE
:104CC000FCF79DFA0EBD00000024014028010020E1
:104CD00008B500BF1648406940F00100144948611A
:104CE0000846406900F00100009000BF00BF0022AC
:104CF00011460B20FDF7E6FF0B20FDF7D3FF002246
:104D000011460E20FDF7DEFF0E20FDF7CBFF00223F
:104D100011460F20FDF7D6FF0F20FDF7C3FF00223D
:104D200011461120FDF7CEFF1120FDF7BBFF08BD96
:104D30000010024000B585B0002001900290039061
:104D4000049000BF4848806940F0400046498861AF
:104D50000846806900F04000009000BF00BF00BF1F
:104D60000846806940F0100088610846806900F0BC
:104D70001000009000BF00BF00BF0846806940F0EF
:104D8000040088610846806900F00400009000BFBC
:104D900000BF00BF0846806940F0080088610846EF
:104DA000806900F00800009000BF00BF00BF084607
:104DB000806940F0200088610846806900F020008A
:104DC000009000BF00BF012220212848FDF724FBEE
:104DD000002240212648FDF71FFB012280212448A4
:104DE000FDF71AFB002220212248FDF715FB2020A9
:104DF000019001200290002003900220049001A95C
:104E00001A48FDF761F9042001900020029001206A
:104E1000039001A91848FDF757F94020019001209F
:104E20000290002003900220049001A91048FDF791
:104E30004BF9802001901120029001200390032063
:104E4000049001A90A48FDF73FF9202001900120B4
:104E50000290002003900220049001A90548FDF76C
:104E600033F905B000BD00000010024000180140F9
:104E700000080140000C01400010014010B50B4833
:104E80000B4908600B484860002109488160C160F7
:104E90004FF480410161002141618161C161016282
:104EA000FDF7E4FA08B1FCF7AAF910BD0054004080
:104EB0009C010020A086010000B58DB00020099063
:104EC0000A900B900C90079008901C216846FBF705
:104ED00084F92D482D4908600020486000212B48A6
:104EE00081605921C1600021016180218161FEF74B
:104EF0001DFC08B1FCF783F94FF48050099009A913
:104F00002248FEF7C1FC08B1FCF779F91F48FEF70B
:104F100005FE08B1FCF773F900200790089007A977
:104F20001A48FEF7B5FB08B1FCF769F9602000905C
:104F30000020019002900490002269461348FEF779
:104F40006BFD08B1FCF75BF9042269460F48FEF7D8
:104F500063FD08B1FCF753F9082269460B48FEF7D8
:104F60005BFD08B1FCF74BF9702000900C226946FC
:104F70000648FEF751FD08B1FCF741F90348FEF77A
:104F800009FD0DB000BD000000080040F001002048
:104F900010B50B480B4908604FF4165048600021CB
:104FA00008488160C16001610C214161002181617B
:104FB000C161FFF773F808B1FCF721F910BD0000DB
:104FC000004C00400403002010B50B480B4908605A
:104FD0004FF4E1304860002108488160C160016100
:104FE0000C21416100218161C161FFF757F808B1CF
:104FF000FCF705F910BD0000003801404C0300200B
:1050000010B50B480B4908604FF4E13048600021AF
:1050100008488160C16001610C214161002181610A
:10502000C161FFF73BF808B1FCF7E9F810BD0000DB
:10503000004400409403002010B50B480B49086061
:105040004FF416504860002108488160C16001613A
:105050000C21416100218161C161FFF71FF808B196
:10506000FCF7CDF810BD000000480040DC03002034
:1050700000BFFEE700BFFEE72DE9F04114480068DD
:1050800010B90020BDE8F0811148006804880CB90F
:105090000020F7E72046FBF707FA80460D49FBF7AB
:1050A0008AF907464FF08B41FBF7B7F905460A49E5
:1050B0002846FBF77AF907460849FBF7AEF906469A
:1050C00000213046FBF722FA00D200263046D9E70D
:1050D000DC00002000404E45000016440000A040C7
:1050E00010B50A2002F064FF1B490860012002F09D
:1050F0005FFF1A490860022002F05AFF1849086051
:105100001548006828B11548006810B108460068C5
:1051100028B914A11B4803F019FF00BFFEE70020C7
:105120000F49096808800D490968087000BF06E04A
:105130000021094A126822F81010411CC8B2052843
:10514000F6DB012240211048FDF766F90FA10D485A
:1051500003F0FCFE10BD0000D4000020D8000020A9
:10516000DC0000205B504D32355D20E58685E5ADE5
:1051700098E58886E9858DE5A4B1E8B4A5210D0AF6
:10518000000000004C030020000801405B504D323D
:10519000355D20696E697465640D0A0070B5002282
:1051A00040211E48FDF738F940F23B1001F098FB12
:1051B0001B484588012240211848FDF72DF942F28D
:1051C000D55001F08DFB1748006800781649096832
:1051D00021F81050134800680078401C11490968F4
:1051E0000870104800680078052803DB00200D498E
:1051F000096808700024002006E00B49096831F8AE
:1052000010100C44411CC8B20528F6DB0520B4FB85
:10521000F0F006490968088070BD000000080140F0
:10522000D0000020D8000020D4000020DC000020A6
:105230007047000008B508490968C9084FF47A7238
:10524000B1FBF2F14143009100BF00BF00994A1E3B
:1052500000920029F9D108BD0C000020704710B55C
:10526000FDF7B0FC10BD00B595B028210BA8FAF7EA
:10527000B4FF142106A8FAF7B0FF18216846FAF720
:10528000ACFF01200B9000040C9000200D90012039
:105290000F9002201290C10313914FF4E01114916A
:1052A0000BA8FDF7A9FF08B1FBF7A9FF0F20069097
:1052B00002200790002008904FF4806009900020A1
:1052C0000A90022106A8FDF773FE08B1FBF797FFCD
:1052D00002200090800302906846FDF7D1FD08B1DE
:1052E000FBF78DFF15B000BD7047000070B5064696
:1052F00006F10D0500E06D1C28782028FBD013A1D5
:105300002846FAF775FF044654B90D212846FAF7E6
:105310008DFF044624B90A212846FAF787FF044680
:105320000CB1002020703F2229460948FAF772FF8D
:105330000020074981F83F00012006490870044A0F
:1053400005A10A4803F002FE70BD00000D0A00002E
:1053500040050020250000205B4E54505D2054691C
:105360006D653A2025730D0A000000004C030020F3
:1053700010B50268244B98420ED0244B98420BD0B3
:10538000B0F1804F08D0224B984205D0214B984273
:1053900002D0214B984203D122F070024B681A438D
:1053A000194B98420ED0194B98420BD0B0F1804F58
:1053B00008D0174B984205D0164B984202D0164B96
:1053C000984203D122F44072CB681A4322F0800342
:1053D0004C6943EA040202608B68C3620B68836213
:1053E000094B984202D0094B984201D10B690363E3
:1053F00001234361036903F001031BB1036923F037
:105400000103036110BD0000002C01400034014085
:105410000004004000080040000C004030B501F0DE
:105420001F05012404FA05F3046A9C430462046A1C
:1054300001F01F0502FA05F52C43046230BD30B5BA
:105440000C46816821F47F4142EA03252543294324
:10545000816030BD0A46816821F0700142F0070387
:10546000194381607047000030B5026A056A25F073
:10547000010505624368846924F0700424F0030484
:105480000D682C4322F002028D682A43104DA84279
:1054900000D103E00F4DA84206D100BF22F0080260
:1054A000CD682A4322F00402094DA84202D0094DDA
:1054B000A84207D123F4807323F400734D692B4372
:1054C0008D692B43436084614D684563026230BD42
:1054D000002C01400034014030B5026A056A25F015
:1054E000100505624368846924F4E04424F44074A0
:1054F0000D6844EA052422F020028D6842EA051274
:10550000124DA84200D103E0114DA84207D100BFBF
:1055100022F08002CD6842EA051222F040020B4DD3
:10552000A84202D00A4DA84209D123F4806323F493
:1055300000634D6943EA85038D6943EA850343604F
:1055400084614D688563026230BD0000002C01401B
:105550000034014030B5026A056A25F480750562A1
:105560004368C46924F0700424F003040D682C43DC
:1055700022F400728D6842EA0522124DA84200D141
:1055800003E0114DA84207D100BF22F40062CD68AC
:1055900042EA052222F480620A4DA84202D00A4D56
:1055A000A84209D123F4805323F400534D6943EA00
:1055B00005138D6943EA05134360C4614D68C563F3
:1055C000026230BD002C01400034014030B5036A56
:1055D000056A25F4805505624468C26922F4E042F8
:1055E00022F440720D6842EA052223F400538D68CC
:1055F00043EA0533084DA84202D0084DA84204D121
:1056000024F480444D6944EA85144460C2614D68C5
:105610000564036230BD0000002C014000340140ED
:1056200030B50B461446026A056A25F0010505628D
:10563000816921F0F00141EA041122F00A021A43C3
:105640008161026230BD30B50B461446026A056ABC
:1056500025F010050562816921F4704141EA0431A9
:1056600022F0A00242EA03128161026230BD000012
:1056700010B50248FEF7A0FB10BD00000403002097
:1056800070B505466C6A0020E085E0842046FEF790
:1056900091FB70BD00BF00BF02680C3252E8002FC2
:1056A00022F4907102680C3242E80013002BF3D10F
:1056B00000BF00BF00BF0268143252E8002F22F082
:1056C00001010268143242E80013002BF3D100BF3D
:1056D000016B01290ED100BF00BF02680C3252E8F5
:1056E000002F22F0100102680C3242E80013002B58
:1056F000F3D100BF202180F84210002101637047E0
:1057000010B504462068C06820F040002168C860D9
:10571000202084F841002046FEF764FE002010BDE2
:10572000F8B5044694F84200222875D1A068B0F577
:10573000805F0CD1206950B90025A66A20684068B6
:10574000C0F308003080A06A801CA06215E0A56A42
:105750000026A068B0F5805F03D0A06828B9206952
:1057600018B920684068287004E02068406800F09C
:105770007F002870A06A401CA062E08D401E80B2AD
:10578000E085002846D12068C06820F0200021680C
:10579000C8602068C06820F480702168C8602068F4
:1057A000406920F0010021684861202084F842000F
:1057B00000206063206B012826D10020206300BFF9
:1057C00000BF21680C3151E8001F21F01000216852
:1057D0000C3141E80002002AF3D100BF20680068C4
:1057E00000F0100010280AD100BF002000902068AF
:1057F0000068009020684068009000BF00BFA18D45
:105800002046FEF773FA02E02046FEF78BFD0020EB
:10581000F8BD01E00020FBE70220F9E770B504467F
:105820002168096921F44051E2681143226811613D
:105830002269A1681143626941EA02052168C968C9
:1058400041F20C62914329432268D1602168496981
:1058500021F44071A2691143226851612D4A2168E7
:10586000914202D1FDF780FC01E0FDF76DFC00EBF9
:10587000C00101EB001162689200B1FBF2F100EB94
:10588000C00202EB001263689B00B2FBF3F26423D8
:10589000B2FBF3F202EBC20303EB0212A1EB8201B3
:1058A000322202EB01116422B1FBF2F101F0F001AE
:1058B00000EBC00202EB001263689B00B2FBF3F244
:1058C0006423B2FBF3F201EB021200EBC00101EB27
:1058D000001163689B00B1FBF3F100EBC00303EB25
:1058E00000136668B600B3FBF6F36426B3FBF6F369
:1058F00003EBC30606EB0313A1EB8301322303EB97
:1059000001116423B1FBF3F101F00F01114422688E
:10591000916070BD0038014010B5034699629A85C8
:10592000DA8500205864222083F84200186928B1E3
:105930001868C06840F480701C68E06018684069AE
:1059400040F001001C6860611868C06840F02000E9
:105950001C68E060002010BD014691F8410021283C
:1059600028D18868B0F5805F0BD1086948B90A6A08
:105970001088C0F308000B685860086A801C086231
:1059800005E00B6A581C086218780B685860C88CD0
:10599000401E80B2C88458B90868C06820F08000F2
:1059A0000B68D8600868C06840F040000B68D86099
:1059B000002070470220FCE72DE9F84304460D461D
:1059C00017469846089E31E0701C70B3FCF72AFD1C
:1059D000A0EB0800B04200D816B90320BDE8F88358
:1059E0002068C06800F00400F8B1802D1ED0402D62
:1059F0001CD020680068C0F3C000B0B100BF002018
:105A0000009020680068009020684068009000BF07
:105A100000BF2046FFF73EFE0820606400BF002064
:105A200084F8400000BF0120D8E7FFE72068006845
:105A30002840A84201D1012000E00020B842C3D094
:105A40000020CBE710B50248FEF7B6F910BD000004
:105A50004C03002010B50248FEF7AEF910BD00005F
:105A60009403002010B50248FEF7A6F910BD00000F
:105A7000DC03002000BFFEE70FB47CB50C0009ADCD
:105A800001D0611E00E00021CDE90001064B6A460D
:105A90002946089800F058F9002C02D0009A0021FD
:105AA00011707CBC5DF814FB4F6400080FB4084B08
:105AB00010B504A902AA039800F046F9044602A909
:105AC000002000F0CFFC204610BC5DF814FB000065
:105AD000656400087CB50C001D461646014601D0E1
