:020000040800F2
:100000006809002049010008553400087B300008C9
:1000100051340008F1080008F53B0008000000001A
:10002000000000000000000000000000853400080F
:10003000F10B000800000000593400088734000864
:100040006301000863010008630100086301000800
:1000500063010008630100086301000863010008F0
:10006000630100086301000863010008E10B000858
:1000700063010008630100086301000863010008D0
:1000800063010008630100086301000863010008C0
:1000900063010008630100086301000863010008B0
:1000A00063010008630100086301000863010008A0
:1000B0006301000863010008630100086301000890
:1000C0006301000863010008630100086301000880
:1000D00063010008C53B0008D53B0008E53B00086C
:1000E0006301000863010008630100086301000860
:1000F0006301000863010008630100086301000850
:10010000630100086301000863010008630100083F
:10011000F13700086301000863010008630100086B
:10012000630100086301000863010008630100081F
:10013000DFF810D000F01EFB0048004755450008CE
:10014000AFF3008068090020064880470648004752
:10015000FEE7FEE7FEE7FEE7FEE7FEE7FEE7FEE777
:10016000FEE7FEE71135000831010008202A04DB14
:10017000203A21FA02F00021704721FA02F3D04020
:10018000C2F120029140084319467047D2B201E003
:1001900000F8012B491EFBD270470022F6E710B58C
:1001A00013460A4604461946FFF7F0FF204610BDE5
:1001B000F0B480EA0102D40F4200B2EB410F02D248
:1001C0000246084611464A0042D0C30DDDB2C1F3D3
:1001D000C752AD1A202D35DAC1F3160141F40002E1
:1001E00004B15242C5F1200602FA06F12A41104438
:1001F000B3EBD05F23D0C4B1012DA0EBC35009DC19
:10020000F0BC4FF0004202EAC352DBB200F500003E
:1002100000F0C9B8400000F1807000EBC350A0F1BD
:10022000807040EAD170490009E0490841EAC07194
:10023000A0EBC35000F50000400800EBC350F0BC39
:1002400000F0A8B86142012202EB4101001BF6E771
:10025000F0BC704781F00041AAE780F00040A7E7BA
:1002600080EA010210B502F00043400022D04A00AB
:100270001FD0010E01EB1261C0F35600C2F356020B
:1002800040F4000042F40002A0FB022000047F3989
:10029000140400D0401C50EA124001D44000491E12
:1002A000C2B20C0604EBD010401C4008802A02D0D9
:1002B00003E0002010BD20F00100002900DA00203A
:1002C000184310BDC10F80EAE0700844CA079623A6
:1002D000002100F068B896230022114600F063B8B0
:1002E00000F0004230F000400AD0C10D01F560710D
:1002F000C0F3160042EA0151C2084007114370479B
:1003000000200146704730B50B46014600202022F0
:10031000012409E021FA02F59D4205D303FA02F512
:10032000491B04FA02F52844151EA2F10102F1DC72
:1003300030BD2DE9F05F0546002092469B46884679
:100340000646814640241BE0284641464746224651
:10035000FFF70CFF53465A46C01A914110D311467D
:100360001846224600F018FA2D1A67EB01084F468E
:1003700022460120002100F00FFA17EB00094E4140
:10038000201EA4F10104DFDC484631462A464346DC
:10039000BDE8F09F0029A8BF7047401C490008BF76
:1003A00020F00100704710B4B0FA80FC00FA0CF0A5
:1003B00050EA010404BF10BC704749B1CCF12004DD
:1003C00021FA04F411FA0CF118BF0121214308436A
:1003D000A3EB0C01CB1D4FEA00614FEA102042BF96
:1003E000002010BC704700EBC35010440029A4BF8C
:1003F00010BC7047401C490008BF20F0010010BC31
:1004000070472DE9FE4F804681EA0300C00F0C467D
:10041000009021F0004123F00045B8EB0200A94113
:1004200005D24046214690461C460B46024623F024
:100430000040104347D0270DC7F30A00C3F30A5109
:100440000290401A019040286BDAC3F3130040F485
:10045000801B0098924620B10023D2EB030A63EB85
:100460000B0B01985946C0F14002504600F094F938
:1004700006460D4650465946019A00F09CF910EB8D
:1004800008006141002487EA115284EAE7731A43A5
:1004900040D0009A62B3019A012A4FEA075215DC54
:1004A000001B61EB02014FF0004202EA0752CDE966
:1004B0000042001C41F5801132462B4600F09CF9A9
:1004C00003B0BDE8F08F40462146F9E7001B61EB21
:1004D0000201001C41F5801300185B412018A2F5B1
:1004E000001747EB030140EAD570B6196D4111E0E2
:1004F0006D084FEA360645EAC0754FEA0752001B01
:1005000061EB0201001C41F5801149084FEA3000FF
:100510000019514132462B4603B0BDE8F04F00F0C0
:100520005CB90098012240000023D0EB020263EB8B
:10053000E073009821464FEAE074B8EB000061EBED
:100540000401E9E783F000435BE781F0004158E7ED
:100550002DE9FE4F81EA030404F0004421F000413C
:1005600000944FF0000B23F0004350EA01045ED0EA
:1005700052EA03045BD0C3F30A54C1F30A552C4476
:10058000A4F2F3340194A0FB0254C1F3130141F42B
:100590008011C3F3130343F4801301FB024400FBF7
:1005A000034E840A970A44EA815447EA8357A4FB1E
:1005B000076802958D0A05FB07854FEA932C04FB1B
:1005C0000C542705029D4FEA065847EA1637B5EB4B
:1005D00008056EEB070C870E920E47EA811742EA78
:1005E0008312A7FB0201B6EB0B0164EB00042B0D99
:1005F00043EA0C335E1844EB1C50DA465146E7FBE5
:100600000201C5F313044FEA0B3343EA14534FEAD4
:100610000432019C43EA0603A4F10C040294009CFA
:10062000CDE900B400F0E8F803B0BDE8F08F002099
:100630000146F9E72DE9F04D81EA030404F0004B8F
:1006400021F0004514464FF0000A23F0004150EA23
:10065000050220D054EA01021DD0C5F30A57024614
:10066000C5F31303C1F31300C1F30A5640F4801518
:1006700043F48013A7EB0608101BD64608F2FD389A
:1006800073EB050002D308F1010801E092185B4109
:10069000B8F1000F03DA00200146BDE8F08D00201C
:1006A0004FF48011064684460EE0171B73EB0507D6
:1006B00005D3121B63EB050306434CEA010C490802
:1006C0004FEA300092185B4150EA0107EDD152EA3F
:1006D000030012D082EA040083EA0501084305D032
:1006E000101BAB4106D20122002306E000224FF08E
:1006F000004302E06FF0010253101AEB06004CEBCE
:10070000085110EB0A0041EB0B01BDE8F04D00F081
:1007100064B8C1F30A52C1F3130140F2FF3341F44C
:1007200080119A4202DA00200146704740F23343BA
:100730009A42A2F2334202DC5242FFF717BD00F0A8
:100740002BB8000030B5041E71F1000404DB4FF03B
:100750000044404264EB0101141E73F1000405DB08
:100760001C464FF00043524263EB0403994208BF1A
:10077000904230BD064C074D06E0E06840F00103B2
:1007800094E8070098471034AC42F6D3FFF7D4FC46
:100790000C4700082C470008202A04DB203A00FA06
:1007A00002F1002070479140C2F1200320FA03F3C8
:1007B000194390407047202A06DBCB17203A41FAB4
:1007C00002F043EAE07306E041FA02F3D040C2F1DE
:1007D0002002914008431946704710B5141E73F16A
:1007E000000408DA401C41F1000192185B411A43F1
:1007F00001D120F0010010BD2DE9F04D92469B463D
:1008000011B1B1FA81F202E0B0FA80F220329046E2
:10081000FFF7C2FF04460F4640EA0A0041EA0B0117
:1008200053465A46084313D0114653EA010019D0E3
:10083000C8F140025046FFF799FC05460E46504667
:1008400059464246FFF7A8FF084305D0012004E0BF
:1008500020463946BDE8F08D0020054346EAE076A3
:100860002C4337430A986305E40AA0EB08000022F2
:10087000FD0A44EA47540A3002D500200146E9E760
:10088000010510196941DDE9084500196941BDE814
:10089000F04DA2E770B5044600252068806800F09E
:1008A000010018B32068806820F00100216888608A
:1008B00001F02EF8054613E001F02AF8401B02284B
:1008C0000ED92068806800F0010048B1A06A40F0AD
:1008D0001000A062E06A40F00100E062012070BDFB
:1008E0002068806800F001000028E5D10020F6E7CC
:1008F00000BFFEE71FB5002000900190029003901A
:10090000802000900020019001200290694602485A
:1009100000F050FE1FBD0000000801401FB5002080
:10092000009001900290039080200090112001908F
:1009300001200290032003906946024800F03AFE2D
:100940001FBD00000008014070B50024002532E002
:100950006006040E4FF47A7600BF08E0701E061E93
:1009600005D117A11E4803F07DFE002070BD802137
:100970001C4800F0BFFF0028F0D0282003F0D2FD73
:100980008021184800F0B6FF012801D144F001048D
:100990004FF47A7608E0701E061E05D112A11048A9
:1009A00003F060FE0020E1E780210E4800F0A2FF86
:1009B0000128F0D06D1C082DCADB2046D6E70000C8
:1009C0004572726F723A20427974652062697420B0
:1009D0006C6F772074696D656F75740D0A00000087
:1009E00094010020000801404572726F723A204263
:1009F0007974652062697420686967682074696D1C
:100A0000656F75740D0A00002DE9FC47074688469E
:100A1000002000900190FFF781FF002280214848CC
:100A200000F070FF142000F0B1FD01228021444845
:100A300000F068FF1E2003F075FDFFF75BFF72B644
:100A40004FF47A7506E0681E051E03D162B60120D8
:100A5000BDE8FC8780213A4800F04CFF0128F2D025
:100A60004FF47A7505E0681E051E02D162B60120BA
:100A7000EEE78021324800F03DFF0028F3D04FF42C
:100A80007A7505E0681E051E02D162B60120DFE717
:100A900080212B4800F02EFF0128F3D0002604E02F
:100AA000FFF752FF0DF80600761C052EF8DB62B644
:100AB0009DF800009DF8011008449DF802100844BC
:100AC0009DF8031008449DF80410884205D01DA12C
:100AD000224803F0C7FD0120BAE79DF8011001F09C
:100AE0007F00FFF7EFFB82461D49FFF7B9FB064683
:100AF0009DF80000FFF7EFFB81463146FFF758FBFA
:100B0000C8F800009DF8031001F07F00FFF7DAFB42
:100B100082461349FFF7A4FB06469DF80200FFF743
:100B2000DAFB81463146FFF743FB04469DF803009C
:100B300000F0800008B184F000443C60002087E7AA
:100B4000000801404572726F723A20436865636B1A
:100B500073756D206661696C0D0A000094010020B8
:100B6000CDCCCC3D2DE9FC410F491048FFF74CFF9F
:100B700098B90D480068FFF7B3FB04460D460B48D3
:100B80000068FFF7ADFB064632460B4608A10F484A
:100B9000CDE9004503F066FD03E00DA10B4803F02D
:100BA00061FDBDE8FC810000380000203400002019
:100BB00074656D70203D20252E32662068756D6944
:100BC000203D20252E32660D0A00000094010020F1
:100BD0004448543131204572726F72210D0A000071
:100BE00010B5024800F0C0FA10BD00006C000020F3
:100BF000704772B600BFFEE738B5024600230020FA
:100C0000009000BF92F82400012801D1022038BDD5
:100C1000012082F8240000BF4868072812D210681B
:100C2000406B0C79641E04EB84051F24AC40A04388
:100C30000D796D1E05EB85050C68AC4020431468EA
:100C4000606327E048680D2812D21068006B0C79A9
:100C5000E41F04EB84051F24AC40A0430D79ED1F75
:100C600005EB85050C68AC4020431468206311E057
:100C70001068C06A0C790D3C04EB84051F24AC405D
:100C8000A0430D790D3D05EB85050C68AC40204374
:100C90001468E06208680A2812D31068C0680C78EB
:100CA0000A3C04EB44050724AC40A0430D780A3D00
:100CB00005EB45058C68AC4020431468E0600FE00C
:100CC000106800690C7804EB44050724AC40A0438D
:100CD0000D7805EB45058C68AC4020431468206115
:100CE0000868102802D00868112827D1174C10680E
:100CF000A0421ED11068806800F40000F0B91068AE
:100D0000806840F400001468A0600868102815D1BD
:100D10000F4800680F4CB0FBF4F000EB800040007F
:100D2000009002E00098401E009000980028F9D141
:100D300004E0906A40F020009062012300BF002090
:100D400082F8240000BF184661E70000002401403B
:100D50000C00002040420F002DE9F041044600271E
:100D600000250026A84614B90120BDE8F081A0683E
:100D700010B1207D00B100BFA06A30B90020E06250
:100D800084F82400204600F097F82046FFF782FD03
:100D90000746A06A00F01000002873D1002F7ED112
:100DA000A06A20F4885040F00200A0623F4AD4E9D3
:100DB0000001904208D1E069B0F5402F02D14FF414
:100DC000002002E0E06900E0E0690143207B41EAA5
:100DD00040000643A068B0F5807F02D0A0680128DB
:100DE00002D14FF4807000E000200543207D0128EF
:100DF00011D1207B38B9A069401E4FF4006141EA4F
:100E00004030054307E0A06A40F02000A062E06A9D
:100E100040F00100E0622068406820F46940284307
:100E20002168486020688068214908403043216873
:100E30008860A068B0F5807F02D0A068012802D148
:100E40004FF4807000E00020B0F5807F03D1208A4D
:100E5000401E4FEA00582068C06A20F4700040EA43
:100E600008002168C8622068806812490840B042C2
:100E700009D10020E062A06A20F0020040F00100E9
:100E8000A06211E00BE0A06A20F0020040F0100028
:100E9000A062E06A40F00100E062012704E0A06A7D
:100EA00040F01000A062012738465EE7003C014098
:100EB000FDF7E1FFFE0E1FFF10B586B004460020CF
:100EC00002900390049005902249206888423ED108
:100ED00000BF2148806940F400701F4988610846BE
:100EE000806900F40070019000BF00BF00BF084699
:100EF000806940F0040088610846806900F00400C1
:100F0000019000BF00BF122002900320039002A9AD
:100F1000124800F04FFB1248124908600020486058
:100F20000021104881608021C16049000161890071
:100F30004161202181610021C16100F0E1FA08B125
:100F4000FFF757FE00BF07482062446200BF06B0AB
:100F500010BD0000002401400010024000080140C4
:100F6000080002406C0000200146002291F8210098
:100F7000022808D00420886300BF002081F82000E8
:100F800000BF012070470868006820F00E000B6861
:100F900018600868006820F001000B68186091F87C
:100FA000403001209840CB6B5860012081F821002F
:100FB00000BF002081F8200000BF1046E2E70000DB
:100FC00070B50446002594F82100022803D00420BF
:100FD000A0630125C1E02068006820F00E002168B0
:100FE00008602068006820F00100216808605C4902
:100FF0002068884252D95A4978392068884201D1FC
:10100000012047E0564964392068884201D1102008
:1010100040E0534950392068884201D1801539E0B9
:101020004F493C392068884201D1801432E04C4954
:1010300028392068884202D14FF480302AE048499C
:1010400014392068884202D14FF4801022E04449CC
:101050002068884201D140041CE04249206888424F
:1010600001D1012016E03F4914312068884201D1A6
:1010700010200FE03B4928312068884201D18015BB
:1010800008E038493C312068884201D1801401E0F1
:101090004FF480303349091F086051E030497839F6
:1010A0002068884201D1012047E02D496439206839
:1010B000884201D1102040E02949503920688842F7
:1010C00001D1801539E026493C392068884201D198
:1010D000801432E0224928392068884202D14FF436
:1010E00080302AE01E4914392068884202D14FF42A
:1010F000801022E01A492068884201D140041CE097
:1011000018492068884201D1012016E015491431A0
:101110002068884201D110200FE012492831206850
:10112000884201D1801508E00E493C312068884290
:1011300001D1801401E04FF48030094980394860C2
:10114000012084F8210000BF002084F8200000BFA7
:10115000606B10B12046616B8847284670BD000067
:10116000800002400804024070B50446E06B056848
:101170002068066894F84010042088402840002821
:1011800075D006F004000028FAD02068006800F04E
:10119000200028B92068006820F004002168086059
:1011A000D5492068884254D9D34978392068884283
:1011B00001D1042049E0D04964392068884201D136
:1011C000402042E0CC4950392068884201D10015C6
:1011D0003BE0C9493C392068884202D14FF4804045
:1011E00033E0C54928392068884202D14FF4802075
:1011F0002BE0C14914392068884202D14FF48000A5
:1012000023E0BD492068884201D1C0041DE0BB49EC
:101210002068884201D1042017E0B84914312068C1
:10122000884201D1402010E0B4492831206888422A
:1012300001D1001509E0B1493C312068884202D152
:101240004FF4804001E04FF48020AC49091F086052
:1012500054E0A94978392068884201D104204AE045
:10126000A54964392068884202D1402043E04CE01F
:10127000A14950392068884201D100153BE09E49C0
:101280003C392068884202D14FF4804033E09A49CB
:1012900028392068884202D14FF480202BE09649FB
:1012A00014392068884202D14FF4800023E092492B
:1012B0002068884201D1C0041DE09049206888421E
:1012C00001D1042017E08D4914312068884201D1F2
:1012D000402010E0894928312068884201D100155A
:1012E00009E086493C312068884202D14FF48040B1
:1012F00001E04FF48020804980394860E06A00288E
:1013000002D02046E16A8847F4E094F840100220B9
:1013100088402840002871D006F002000028FAD04A
:101320002068006800F0200040B92068006820F0C4
:101330000A0021680860012084F821006E492068B5
:10134000884254D96C4978392068884201D10220FA
:1013500049E0694964392068884201D1202042E08F
:10136000654950392068884201D140153BE0624907
:101370003C392068884202D14FF4005033E05E4986
:1013800028392068884202D14FF400302BE05A49B6
:1013900014392068884202D14FF4001023E05649E6
:1013A0002068884201D180041DE0544920688842A9
:1013B00001D1022017E0514914312068884201D13F
:1013C000202010E04D4928312068884201D1401585
:1013D00009E04A493C312068884202D14FF400506C
:1013E00001E04FF400304549091F086054E04249CC
:1013F00078392068884202D102204AE057E03E490D
:1014000064392068884201D1202042E03A495039AD
:101410002068884201D140153BE037493C392068BB
:10142000884202D14FF4005033E033492839206814
:10143000884202D14FF400302BE02F491439206844
:10144000884202D14FF4001023E02B4920688842E3
:1014500001D180041DE029492068884201D1022081
:1014600017E0264914312068884201D1202010E07D
:10147000224928312068884201D1401509E01F49DE
:101480003C312068884202D14FF4005001E04FF413
:10149000003019498039486000BF002084F82000DE
:1014A00000BFA06A30B32046A16A884722E094F8C2
:1014B0004010082088402840E0B106F00800C8B17C
:1014C0002068006820F00E002168086094F8401041
:1014D00001208840E16B48600120A06384F821006E
:1014E00000BF002084F8200000BF206B10B1204610
:1014F000216B884770BD0000800002400804024054
:101500000146002209B9012070471E4B0868984225
:101510000BD21D4B0868C01A1423B0FBF3F08000F7
:10152000086419480838C8630AE0164B0868C01AEE
:101530001423B0FBF3F08000086412480838C86335
:10154000022081F821000868026843F6F0708243A7
:10155000D1E901031843CB6818430B6918434B6961
:1015600018438B691843CB6918430243086802602B
:1015700000208863012081F82100002081F82000EC
:1015800000BFC1E7080402400800024070B50446ED
:1015900000F0BEF906462546681C10B104480078E4
:1015A000054400BF00F0B4F9801BA842FAD370BD17
:1015B000080000202DE9F847024600239C467BE105
:1015C0004FF0010808FA03F4D1F8008008EA04009B
:1015D000A0427DD1DFF8F4A2D1F80480A8EB0A097B
:1015E000D0453AD014DCB8F1030F50D009DCB8F183
:1015F000000F31D0B8F1010F1CD0B8F1020F49D162
:1016000020E0B8F1110F18D0B8F1120F42D11EE04E
:10161000B9F5881F25D006DCB9F5803F20D0B9F593
:10162000801F37D11AE0B9F5001F18D0B9F5041F93
:1016300030D117E0D1F80CC02DE0D1F80C8008F1C2
:10164000040C28E0D1F80C8008F1080C23E0D1F854
:101650000C8008F10C0C1EE000BF00BF00BF00BFF3
:1016600000BF00BFD1F80880B8F1000F02D14FF0E1
:10167000040C0BE0D1F80880B8F1010F03D14FF052
:10168000080C146102E04FF0080C546103E04FF0C5
:10169000000C00E000BF00BFFF2801D8904601E029
:1016A00002F104084646FF2802D84FEA830803E007
:1016B000A3F108084FEA88084746D6F800804FF0A3
:1016C0000F0909FA07F928EA09080CFA07F900E0F6
:1016D0007AE048EA0908C6F80080D1F8048008F0EA
:1016E0008058B8F1805F6FD100BFDFF8E481D8F88F
:1016F000188048F00108DFF8D891C9F81880C8466A
:10170000D8F8188008F00108CDF8008000BF00BFAD
:101710004FEAB9384FEA930958F829504FEA8378CD
:101720004FEA18794FF00F0808FA09F825EA08057A
:10173000DFF8A081424502D14FF0000824E0DFF835
:101740009881424502D14FF001081DE0DFF88C81FD
:10175000424502D14FF0020816E0DFF8848142458D
:1017600002D14FF003080FE0DFF87881424502D143
:101770004FF0040808E0DFF87081424502D14FF0D5
:10178000050801E04FF006084FEA83794FEA19791E
:1017900008FA09F848EA0505DFF850814FEA93098D
:1017A00048F82950D1F8048008F48018B8F5801F53
:1017B0000BD1DFF83C81D8F8008048EA0008DFF858
:1017C0003091C9F800800AE075E0DFF82481D8F88C
:1017D000008028EA0008DFF81891C9F80080D1F8E5
:1017E000048008F40018B8F5001F0ED1DFF800815E
:1017F00008F10408D8F8008048EA0008DFF8F09003
:1018000009F10409C9F800800DE0DFF8E48008F16F
:101810000408D8F8008028EA0008DFF8D49009F11D
:101820000409C9F80080D1F8048008F40038B8F53C
:10183000003F0ED1DFF8B880A8F10408D8F8008086
:1018400048EA0008DFF8A890A9F10409C9F8008067
:101850000DE0DFF89C80A8F10408D8F8008028EAA1
:101860000008DFF88C90A9F10409C9F80080D1F8CC
:10187000048008F48038B8F5803F0ED1DFF870801E
:10188000A8F10808D8F8008048EA0008DFF860905E
:10189000A9F10809C9F800800DE0DFF85480A8F12B
:1018A0000808D8F8008028EA0008DFF84490A9F179
:1018B0000809C9F800805B1CD1F8008028FA03F8F9
:1018C000B8F1000F7FF47CAEBDE8F887000011107E
:1018D0000010024000080140000C014000100140CF
:1018E0000014014000180140001C014008000140A4
:1018F00008040140024693680B400BB1012000E050
:10190000002070470AB1016101E00B0403617047D8
:1019100001480068704700000000002070B50446D0
:101920000CB9012070BD94F83D0028B9002084F85E
:101930003C00204600F0DAF8242084F83D002068BE
:10194000006820F00100216808602068006840F409
:101950000040216808602068006820F40040216889
:10196000086000F033FB05465C496068884206D891
:101970005B48854201D2012007E0002005E059487C
:10198000854201D2012000E00020012800D1C9E7F2
:101990005548B5FBF0F62068406820F03F00304322
:1019A000216848604D496068884201D8701C07E092
:1019B0004FF4967070434FF47A71B0FBF1F0401C15
:1019C0002168096A21F03F01084321680862434900
:1019D0006068884214D8681E61684900B0FBF1F065
:1019E000401CC0F30B00042801D204203DE0681E17
:1019F00061684900B0FBF1F0401CC0F30B0034E01B
:101A0000A06838B9681E616801EB4101B0FBF1F0D4
:101A1000401C0AE0681E616801EBC10202EB011183
:101A2000B0FBF1F0401C40F48040C0F30B0008B95B
:101A300001201AE0A06848B9681E616801EB410105
:101A4000B0FBF1F0401CC0F30B000CE0681E6168B5
:101A500001EBC10202EB0111B0FBF1F0401CC0F33D
:101A60000B0040F4804040F400402168C9694CF606
:101A7000FF72914308432168C861D4E90701084314
:101A80002168096821F0C001084321680860D4E991
:101A9000031008432168896848F2FF3291430843E4
:101AA00021688860D4E9050108432168C96821F0EC
:101AB000FF0108432168C8602068006840F0010009
:101AC0002168086000202064202084F83D00002068
:101AD000206384F83E0000BF24E70000A0860100D8
:101AE00080841E0000093D0040420F0010B586B002
:101AF0000446002002900390049005901549206848
:101B0000884225D100BF1448806940F0080012497E
:101B100088610846806900F00800019000BF00BF9E
:101B2000C0200290122003900320059002A90B48C8
:101B3000FFF740FD00BF0848C06940F400100649A7
:101B4000C8610846C06900F40010019000BF00BFE2
:101B500006B010BD0054004000100240000C0140CF
:101B60000348006803490978084401490860704740
:101B7000000000200800002010B50848006840F070
:101B8000100006490860032000F0A8F8002000F0CB
:101B900007F800F02BF8002010BD000000200240E4
:101BA00070B504460E4800784FF47A71B1FBF0F03E
:101BB0000C490968B1FBF0F5284600F091FC08B12A
:101BC000012070BD102C07D200222146501E00F0CB
:101BD00047F80548046001E00120F2E70020F0E743
:101BE000080000200C0000200400002008B500BF01
:101BF0001148806940F001000F49886108468069FA
:101C000000F00100009000BF00BF00BF0846C0699F
:101C100040F08050C8610846C06900F080500090D4
:101C200000BF00BF00BF0549486820F0E06040F0F9
:101C30000070486000BF08BD001002400000014075
:101C400001460846002809DB00F01F0301229A40E4
:101C500043099B0003F1E023C3F8002100BF704754
:101C60002DE9F05F80460D461646002701F0DEFFA5
:101C7000074639462A46334601F00700C0F1070AF5
:101C8000BAF1040F02D94FF0040A01E0C0F1070ACB
:101C9000D14600F1040ABAF1070F02D24FF0000A50
:101CA00001E0A0F1030AD4464FF0010A0AFA09FA4A
:101CB000AAF1010A0AEA020A0AFA0CFA4FF0010B29
:101CC0000BFA0CFBABF1010B0BEA030B4AEA0B041A
:101CD0002146404601F0B2FFBDE8F09F00BF00F092
:101CE0000702064B19684FF6FF031940044B0B43DC
:101CF00043EA0221014B196000BF70470CED00E080
:101D00000000FA05F8B5044600260025207800F00A
:101D1000010000286BD000274348C06900F08050C4
:101D200070B900BF4048C06940F080503E49C8616A
:101D30000846C06900F08050009000BF00BF012736
:101D40003A48006800F48070B0B93848006840F440
:101D5000807036490860FFF7DBFD064606E0FFF7B6
:101D6000D7FD801B642801D90320F8BD2F480068E7
:101D700000F480700028F2D02B48006A00F440750F
:101D80002DB3A08800F44070A84220D02648006AF5
:101D900020F4407501202649086000200860224890
:101DA000056205F0010090B1FFF7B2FD064608E0BC
:101DB000FFF7AEFD801B41F28831884201D9032034
:101DC000D3E71948006A00F002000028F0D0164856
:101DD000006A20F440706168084313490862012FCB
:101DE00004D10846C06920F08050C86100BF207847
:101DF00000F00200022807D10B48406820F4404060
:101E0000A168084308494860207800F010001028B5
:101E100007D10548406820F4800061690843024901
:101E200048600020A1E70000001002400070004060
:101E30004004424270B504460D460CB9012070BD05
:101E40005A48006800F00700A8420ED257480068C0
:101E500020F007002843554908600846006800F054
:101E60000700A84201D00120E9E7207800F0020035
:101E700002281DD1207800F00400042805D14C4828
:101E8000406840F4E0604A494860207800F008006B
:101E9000082805D14648406840F4605044494860ED
:101EA0004348406820F0F000A1680843404948607A
:101EB000207800F0010078B36068012806D13C4822
:101EC000006800F4003090B90120B8E7606802288B
:101ED00006D13748006800F0007040B90120AEE735
:101EE0003348006800F0020008B90120A7E7304835
:101EF000406820F00300616808432D494860FFF7FF
:101F000007FD064609E0FFF703FD801B41F288311B
:101F1000884202D9032092E707E02548406800F094
:101F20000C006168B0EB810FEDD12048006800F033
:101F30000700A8420ED91D48006820F0070028437A
:101F40001A4908600846006800F00700A84201D05E
:101F5000012074E7207800F00400042807D1144819
:101F6000406820F4E060E168084311494860207847
:101F700000F00800082808D10D48406820F460509F
:101F8000216940EAC1000A49486000F03FF8084969
:101F90004968C1F30311074A515CC840064908600B
:101FA00006480068FFF7FCFD002048E700200240DB
:101FB00000100240F24600080C000020040000203F
:101FC00001480068704700000C00002000B5FFF7D2
:101FD000F7FF04494968C1F30221034A515CC84034
:101FE00000BD0000001002400247000800B5FFF7E6
:101FF000E7FF04494968C1F3C221034A515CC84064
:1020000000BD0000001002400247000870B500212A
:102010000022002400230020134D696801F00C0504
:10202000F5B1042D02D0082D19D101E00F4819E0B7
:102030000F4DC1F38346AB5D01F4803555B10A4DB8
:102040006D68C5F340450B4E725D084D5D43B5FBB1
:10205000F2F402E0084D03FB05F4204602E000BF65
:10206000024800BF00BF70BD0010024000127A009D
:10207000E0460008F046000800093D00F8B50446B7
:102080000CB90120F8BD207800F00100002878D0BC
:10209000F848406800F00C0004280CD0F54840686F
:1020A00000F00C00082811D1F248406800F480309C
:1020B000B0F5803F0AD1EF48006800F400300028F6
:1020C0005FD0606800285CD10120DBE700BF60685A
:1020D000B0F5803F06D1E748006840F48030E5491C
:1020E000086028E0606858B9E248006820F4803051
:1020F000E04908600846006820F4802008601AE083
:102100006068B0F5A02F0BD1DA48006840F4802059
:10211000D84908600846006840F4803008600AE04A
:10212000D448006820F48030D2490860084600682E
:1021300020F48020086000BF606888B1FFF7E8FBEA
:10214000054606E0FFF7E4FB401B642801D90320A5
:1021500098E7C848006800F400300028F2D010E08A
:10216000FFF7D6FB054606E0FFF7D2FB401B6428CD
:1021700001D9032086E7BF48006800F4003000283A
:10218000F2D1207800F00200022857D1B948406807
:1021900000F00C0050B1B748406800F00C0008286F
:1021A00018D1B448406800F4803098B9B14800684C
:1021B00000F0020020B12069012801D0012061E770
:1021C000AC48006820F0F800616940EAC100A94904
:1021D000086033E02069E8B10120A7490860FFF7F3
:1021E00097FB054606E0FFF793FB401B022801D949
:1021F000032047E79F48006800F002000028F2D063
:102200009C48006820F0F800616940EAC1009949E3
:10221000086013E0002098490860FFF779FB054645
:1022200006E0FFF775FB401B022801D9032029E7D0
:102230009048006800F002000028F2D1207800F0F9
:10224000080008282DD1A069B8B101208B49086089
:10225000FFF75EFB054606E0FFF75AFB401B02282E
:1022600001D903200EE78348406A00F002000028ED
:10227000F2D0012001F0F2F813E000207F4908605D
:10228000FFF746FB054606E0FFF742FB401B02282E
:1022900001D90320F6E67748406A00F002000028E2
:1022A000F2D1207800F00400042873D1002771488F
:1022B000C06900F0805070B900BF6E48C06940F03E
:1022C00080506C49C8610846C06900F08050009099
:1022D00000BF00BF01276A48006800F48070B0B9F1
:1022E0006748006840F4807065490860FFF710FB9C
:1022F000054606E0FFF70CFB401B642801D90320CC
:10230000C0E65F48006800F480700028F2D000BF8B
:10231000E068012806D15748006A40F0010055499D
:10232000086227E0E06858B95248006A20F00100CE
:10233000504908620846006A20F00400086219E06B
:10234000E06805280BD14B48006A40F00400494979
:1023500008620846006A40F0010008620AE0454849
:10236000006A20F00100434908620846006A20F034
:102370000400086200BFE068A0B1FFF7C9FA054693
:1023800009E0FFF7C5FA401B41F28831884202D9C3
:10239000032077E622E03748006A00F002000028B8
:1023A000EFD012E0FFF7B4FA054608E0FFF7B0FA05
:1023B000401B41F28831884201D9032062E62D4852
:1023C000006A00F002000028F0D1012F05D1294851
:1023D000C06920F080502749C86100BFE069C8B3D8
:1023E0002448406800F00C00082860D0E06902280A
:1023F00048D1002020490866FFF78AFA054606E022
:10240000FFF786FA401B022801D903203AE6194853
:10241000006800F000700028F2D1206AB0F5803F1B
:1024200007D11448406820F40030A16808431149DE
:102430004860D4E9080108430E49496821F4741141
:1024400008430C49486001200B490866FFF760FA11
:10245000054607E03DE0FFF75BFA401B022801D983
:1024600003200FE60348006800F000700028F2D057
:102470002FE000000010024000004242800442426F
:1024800000700040002014490866FFF741FA054635
:1024900006E0FFF73DFA401B022801D90320F1E5D1
:1024A0000E48006800F000700028F2D111E0E069E9
:1024B000012800D1E6E50948466806F48031206A23
:1024C000814204D106F47011606A814201D001207A
:1024D000D8E50020D6E5000000004242001002408E
:1024E00070B504462546681EB0F1807F01D30120F7
:1024F0000FE0681E4FF0E02148610F214FF0FF30E0
:1025000001F09CFB00204FF0E0218861072008616A
:10251000002070BD30B502460B4600BF92F83C006B
:10252000012801D1022030BD012082F83C0000BF0B
:10253000022082F83D00106844681068816824F029
:1025400070041868044310684460144D1068A84271
:1025500013D0134D1068A8420FD01068B0F1804F0F
:102560000BD0104D1068A84207D00F4D1068A8423C
:1025700003D00E4D1068A84205D121F080015868A3
:10258000014310688160012082F83D0000BF0020F7
:1025900082F83C0000BF00BFC5E70000002C0140EE
:1025A000003401400004004000080040000C0040DE
:1025B00010B504460CB9012010BD94F83D0028B9AF
:1025C000002084F83C00204600F026F8022084F821
:1025D0003D00211D206800F09DFF012084F8460089
:1025E00000BF84F83E0001213F20015540200155E5
:1025F0004120015500BF00BF012084F84200432064
:102600000155442001554520015500BF012084F8A3
:102610003D000020D0E7000008B5094A016891425A
:102620000DD100BF0749C96941F00401054AD161D4
:102630001146C96901F00401009100BF00BF08BD47
:1026400000080040001002402DE9F04104460D460C
:10265000002700BF94F83C00012802D10220BDE809
:10266000F081012084F83C0000BF022084F83D0086
:102670002068866826F0770626F47F462068866004
:102680002868502833D00CDC202850D004DC0028E7
:102690004BD0102851D149E0302849D040284CD1A6
:1026A00039E060282DD0702807D0B0F5805F03D0C6
:1026B000B0F5005F41D10DE041E0D5E902136A6851
:1026C000206800F07DFF2068866846F07706206865
:1026D000866034E0D5E902136A68206800F070FF74
:1026E0002068806840F480402168886027E0EA68BC
:1026F0006968206801F054F85021206800F06BFFF1
:102700001DE0EA686968206801F05DF860212068D2
:1027100000F061FF13E0EA686968206801F040F8A2
:102720004021206800F057FF09E000BF00BF00BF54
:102730002968206800F04FFF01E0012700BF00BFBB
:10274000012084F83D0000BF002084F83C0000BF59
:10275000384684E710B586B0044600200290039006
:102760000490059013492068884220D100BF124888
:10277000806940F02000104988610846806900F0B7
:102780002000019000BF00BF4FF4E0400290022003
:102790000390059002A90948FEF70CFF00BF084905
:1027A000486840F0E06040F48050486000BF06B0E8
:1027B00010BD00000008004000100240001401405D
:1027C000000001402DE9F04104460D461646002761
:1027D00000BF94F83C00012802D10220BDE8F0813E
:1027E000012084F83C0000BF36B1042E1BD0082E17
:1027F00031D00C2E5ED145E02946206800F0F4FE71
:102800002068806940F0080021688861206880693C
:1028100020F00400216888612068806929690843E4
:102820002168886148E02946206800F015FF20688B
:10283000806940F40060216888612068806920F424
:1028400080602168886120688069296940EA0120E8
:102850002168886130E02946206800F03BFF20684D
:10286000C06940F008002168C8612068C06920F094
:1028700004002168C8612068C0692969084321688B
:10288000C86119E02946206800F060FF2068C0692F
:1028900040F400602168C8612068C06920F480604D
:1028A0002168C8612068C069296940EA012021685F
:1028B000C86101E0012700BF00BF00BF002084F80D
:1028C0003C0000BF384689E710B504460CB901202A
:1028D00010BD94F83D0028B9002084F83C00204643
:1028E00000F025F8022084F83D00211D206800F04A
:1028F00011FE012084F8460000BF84F83E0001214B
:102900003F200155402001554120015500BF00BF27
:10291000012084F842004320015544200155452000
:10292000015500BF012084F83D000020D0E770472A
:10293000F8B504460E46174694F8420020282ED1DA
:1029400006B10FB90120F8BD0120206300206063AB
:102950003A463146204601F09FF80546EDB9206B16
:10296000012819D100BF0020009020680068009065
:1029700020684068009000BF00BF00BF00BF216812
:102980000C3151E8001F41F0100021680C3141E882
:102990000002002AF3D100E001252846D3E70220F7
:1029A000D1E7000070B505460C461B4885420DD1A5
:1029B0001A490C70FF2C02D80020194908554FF411
:1029C000807217491448FFF7B3FF23E0154885428A
:1029D0000DD115490C70FF2C02D800201349085561
:1029E0004FF4807211490F48FFF7A2FF12E0104820
:1029F000854206D10F490C707D220F49FFF798FFE1
:102A000008E00E48854205D10D490C707D220D4924
:102A1000FFF78EFF70BD0000940100202D00002004
:102A20006C020020DC0100202F0000206C0300203D
:102A300024020020310000206C0400204C01002002
:102A400033000020E9040020704700002DE9F84F12
:102A50000446206805682068C668206847694FF00A
:102A60000009CA4605F00F09B9F1000F0AD105F0B7
:102A7000200038B106F0200020B1204600F010FF01
:102A8000BDE8F88FB9F1000F7BD007F0010018B94D
:102A900006F49070002874D005F0010030B106F4FF
:102AA000807018B1606C40F00100606405F00400B3
:102AB00030B107F0010018B1606C40F002006064B2
:102AC00005F0020030B107F0010018B1606C40F071
:102AD0000400606405F0080048B106F0200010B959
:102AE00007F0010018B1606C40F008006064606C91
:102AF000002845D005F0200028B106F0200010B1D4
:102B0000204600F0CDFE20684069C0F3801A606C5A
:102B100000F0080010B9BAF1000F2CD0204600F0E8
:102B200079FE2068406900F0400000B300BF00BF9C
:102B30002168143151E8001F21F040002168143150
:102B400041E80002002AF3D100BFE06B50B17748A2
:102B5000E16B4863E06BFEF733FA88B1E06B416BE1
:102B600088470DE02046FFF76FFF09E009E02046A7
:102B7000FFF76AFF04E02046FFF766FF002060646D
:102B80007EE7206B012877D105F01000002873D074
:102B900006F010000028FAD000BF00200090206846
:102BA0000068009020684068009000BF00BF206867
:102BB000406900F0400000285FD0E06B006840688A
:102BC0001FFA80F8B8F1000F55D0A08D404552DDB6
:102BD000A4F82E80E06B8069202843D000BF00BF9E
:102BE00021680C3151E8001F21F4807021680C31FC
:102BF00041E80002002AF3D100BF00BF00BF2168F6
:102C0000143151E8001F21F001002168143141E81E
:102C10000002002AF3D100BF00BF00BF21681431B9
:102C200051E8001F21F040002168143141E8000202
:102C3000002AF3D100BF202084F842000020206346
:102C400000BF00BF21680C3151E8001F21F01000C7
:102C500021680C3141E80002002AF3D100BFE06B8B
:102C6000FEF782F902206063A08DE28D801A81B2A6
:102C70002046FFF797FE03E742E0A08DE18D401A62
:102C80001FFA80F8E08DD0B3B8F1000F37D000BF45
:102C900000BF21680C3151E8001F21F490702168B9
:102CA0000C3141E80002002AF3D100BF00BF00BF91
:102CB0002168143151E8001F21F00100216814310E
:102CC00041E80002002AF3D100BF202084F842002E
:102CD0000020206300BF00BF21680C3151E8001FB5
:102CE00021F0100021680C3141E80002002AF3D1E4
:102CF00000BF0220606341462046FFF753FEBFE657
:102D000005F0800030B106F0800018B1204600F0D8
:102D1000E3FEB5E605F0400030B106F0400018B122
:102D2000204600F0ADFDABE600BFA9E60138000883
:102D300010B504460CB9012010BDA06900B100E037
:102D400000BF94F8410028B9002084F840002046D4
:102D500000F02AF8242084F841002068C06820F49C
:102D600000502168C860204600F018FE2068006905
:102D700020F49040216808612068406920F02A0012
:102D8000216848612068C06840F400502168C8602C
:102D900000206064202084F8410084F84200002074
:102DA000606300BFC8E7000010B586B0044600208D
:102DB000029003900490059077492068884237D1AB
:102DC00000BF7648C06940F400207449C8610846D5
:102DD000C06900F40020019000BF00BF00BF08469A
:102DE000806940F0100088610846806900F010009A
:102DF000019000BF00BF081502900220039003203D
:102E0000059002A96648FEF7D5FB4FF400600290DA
:102E100000200390049002A96148FEF7CBFB00223A
:102E200011463420FEF71CFF3420FEF709FFB1E005
:102E30005C492068884237D100BF5848806940F417
:102E40008040564988610846806900F480400190BE
:102E500000BF00BF00BF0846806940F004008861E1
:102E60000846806900F00400019000BF00BF4815CB
:102E70000290022003900320059002A94A48FEF721
:102E800099FB4FF48060029000200390049002A907
:102E90004548FEF78FFB002211462520FEF7E0FE95
:102EA0002520FEF7CDFE75E040492068884236D1E6
:102EB00000BF3A48C06940F400303849C86108464C
:102EC000C06900F40030019000BF00BF00BF084699
:102ED000806940F0040088610846806900F00400C1
:102EE000019000BF00BF0420029002200390032045
:102EF000059002A92C48FEF75DFB082002900020F7
:102F00000390049002A92848FEF754FB00221146C2
:102F10002620FEF7A5FE2620FEF792FE3AE0244981
:102F20002068884236D100BF1C48C06940F4802028
:102F30001A49C8610846C06900F48020019000BFAA
:102F400000BF00BF0846806940F00800886108465D
:102F5000806900F00800019000BF00BF08150290D2
:102F6000022003900320059002A91248FEF722FBDD
:102F70004FF40060029000200390049002A90D48D5
:102F8000FEF718FB002211462720FEF769FE2720D6
:102F9000FEF756FE06B010BD004C00400010024087
:102FA000001001400038014000080140004400408A
:102FB00000480040000C014070472DE9F84F0446DE
:102FC0000E46174699464FF0000A94F84100202813
:102FD00050D106B117B90120BDE8F88F0020606418
:102FE000212084F84100FEF793FC8246A784E78401
:102FF000A068B0F5805F04D1206910B90025B04603
:1030000002E035464FF000081EE0534600228021C2
:103010002046CDF8009000F08FFD20B1202084F8EC
:1030200041000320D8E745B9B8F80000C0F3080014
:103030002168486008F1020803E0287821684860A8
:103040006D1CE08C401EE084E08C0028DDD15346EE
:10305000002240212046CDF8009000F06DFD20B107
:10306000202084F841000320B6E7202084F84100A6
:103070000020B1E70220AFE7704700BFFEE7000085
:103080000EB5002000900190029018481849086081
:1030900081151748816001210173002101754FF4EA
:1030A0006021C1610020124948600221104801617D
:1030B000FDF752FE08B1FDF79CFD01200090019044
:1030C0000720029069460A48FDF796FD08B1FDF712
:1030D00090FD042000900220019069460448FDF70D
:1030E0008BFD08B1FDF785FD0EBD000000240140F9
:1030F0003C00002008B500BF0A48406940F00100CC
:10310000084948610846406900F00100009000BF8E
:1031100000BF002211460B20FEF7A2FD0B20FEF798
:103120008FFD08BD0010024000B585B00020019061
:1031300002900390049000BF4848806940F040002E
:10314000464988610846806900F04000009000BF51
:1031500000BF00BF0846806940F010008861084643
:10316000806900F01000009000BF00BF00BF08465B
:10317000806940F0040088610846806900F004001E
:10318000009000BF00BF00BF0846806940F0080003
:1031900088610846806900F00800009000BF00BF09
:1031A00000BF0846806940F02000886108468069B9
:1031B00000F02000009000BF00BF0122202128481D
:1031C000FEF7A0FB002240212648FEF79BFB0122D0
:1031D00080212448FEF796FB002220212248FEF79A
:1031E00091FB2020019001200290002003900220FA
:1031F000049001A91A48FEF7DDF90420019000208F
:1032000002900120039001A91848FEF7D3F940204D
:10321000019001200290002003900220049001A957
:103220001048FEF7C7F9802001901120029001207C
:1032300003900320049001A90A48FEF7BBF920205F
:10324000019001200290002003900220049001A927
:103250000548FEF7AFF905B000BD000000100240C0
:103260000018014000080140000C0140001001401E
:1032700010B50B480B4908600B484860002109480D
:103280008160C1604FF48041016100214161816131
:10329000C1610162FEF742FB08B1FDF7AAFC10BD57
:1032A00000540040B0000020A086010000B58DB0A1
:1032B000002009900A900B900C90079008901C2118
:1032C0006846FCF76AFF28482849086000204860E3
:1032D00000212648816040F2E731C1600021016190
:1032E0008161FFF765F908B1FDF783FC4FF4805069
:1032F000099009A91D48FFF7A7F908B1FDF779FC66
:103300001A48FFF7E1FA08B1FDF773FC00200790B7
:10331000089007A91548FFF7FDF808B1FDF769FC0B
:1033200070200090002001900290049000226946D5
:103330000E48FFF747FA08B1FDF75BFC0422694627
:103340000A48FFF73FFA08B1FDF753FC0822694627
:103350000648FFF737FA08B1FDF74BFC0348FFF7C3
:10336000F9F90DB000BD0000000800400401002084
:1033700010B50B480B4908604FF4E130486000215C
:1033800008488160C16001610C21416100218161B7
:10339000C161FFF7CDFC08B1FDF72BFC10BD0000AB
:1033A000004C00404C01002010B50B480B49086050
:1033B0004FF4E1304860002108488160C16001613C
:1033C0000C21416100218161C161FFF7B1FC08B1AD
:1033D000FDF70FFC10BD00000038014094010020F3
:1033E00010B50B480B4908604FF4E13048600021EC
:1033F00008488160C16001610C2141610021816147
:10340000C161FFF795FC08B1FDF7F3FB10BD0000AB
:1034100000440040DC01002010B50B480B49086057
:103420004FF4E1304860002108488160C1600161CB
:103430000C21416100218161C161FFF779FC08B174
:10344000FDF7D7FB10BD000000480040240200201B
:1034500000BFFEE700BFFEE77047000008B508495F
:103460000968C9084FF47A72B1FBF2F14143009147
:1034700000BF00BF00994A1E00920029F9D108BD83
:103480000C000020704710B5FEF76AFB10BD00B5B8
:1034900095B028210BA8FCF780FE142106A8FCF7A4
:1034A0007CFE18216846FCF778FE01200B90000492
:1034B0000C9000200D9001200F9002201290C1036B
:1034C00013914FF4E01114910BA8FEF7D7FD08B14A
:1034D000FDF78FFB0F200690022007900020089038
:1034E0004FF48060099000200A90022106A8FEF7A0
:1034F000A1FC08B1FDF77DFB022000908003029043
:103500006846FEF7FFFB08B1FDF773FB15B000BD81
:103510007047000010B50268244B98420ED0244B2F
:1035200098420BD0B0F1804F08D0224B984205D082
:10353000214B984202D0214B984203D122F07002D5
:103540004B681A43194B98420ED0194B98420BD036
:10355000B0F1804F08D0174B984205D0164B9842D7
:1035600002D0164B984203D122F44072CB681A4322
:1035700022F080034C6943EA040202608B68C36254
:103580000B688362094B984202D0094B984201D1E3
:103590000B69036301234361036903F001031BB15A
:1035A000036923F00103036110BD0000002C0140FA
:1035B000003401400004004000080040000C0040BE
:1035C00030B50C46816821F47F4142EA032525434A
:1035D0002943816030BD0A46816821F0700142F0C4
:1035E000070319438160704730B5026A056A25F008
:1035F000010505624368846924F0700424F0030423
:103600000D682C4322F002028D682A43104DA84217
:1036100000D103E00F4DA84206D100BF22F00802FE
:10362000CD682A4322F00402094DA84202D0094D78
:10363000A84207D123F4807323F400734D692B4310
:103640008D692B43436084614D684563026230BDE0
:10365000002C01400034014030B5026A056A25F0B3
:10366000100505624368846924F4E04424F440743E
:103670000D6844EA052422F020028D6842EA051212
:10368000124DA84200D103E0114DA84207D100BF5E
:1036900022F08002CD6842EA051222F040020B4D72
:1036A000A84202D00A4DA84209D123F4806323F432
:1036B00000634D6943EA85038D6943EA85034360EE
:1036C00084614D688563026230BD0000002C0140BA
:1036D0000034014030B5026A056A25F48075056240
:1036E0004368C46924F0700424F003040D682C437B
:1036F00022F400728D6842EA0522124DA84200D1E0
:1037000003E0114DA84207D100BF22F40062CD684A
:1037100042EA052222F480620A4DA84202D00A4DF4
:10372000A84209D123F4805323F400534D6943EA9E
:1037300005138D6943EA05134360C4614D68C56391
:10374000026230BD002C01400034014030B5036AF4
:10375000056A25F4805505624468C26922F4E04296
:1037600022F440720D6842EA052223F400538D686A
:1037700043EA0533084DA84202D0084DA84204D1BF
:1037800024F480444D6944EA85144460C2614D6864
:103790000564036230BD0000002C0140003401408C
:1037A00030B50B461446026A056A25F0010505622C
:1037B000816921F0F00141EA041122F00A021A4362
:1037C0008161026230BD30B50B461446026A056A5B
:1037D00025F010050562816921F4704141EA043148
:1037E00022F0A00242EA03128161026230BD0000B1
:1037F00010B50248FFF72AF910BD00004C01002067
:1038000070B505466C6A0020E085E0842046FFF72D
:103810001BF970BD00BF00BF02680C3252E8002FD8
:1038200022F4907102680C3242E80013002BF3D1AD
:1038300000BF00BF00BF0268143252E8002F22F020
:1038400001010268143242E80013002BF3D100BFDB
:10385000016B01290ED100BF00BF02680C3252E893
:10386000002F22F0100102680C3242E80013002BF6
:10387000F3D100BF202180F842100021016370477E
:1038800010B504462068C06820F040002168C86078
:10389000202084F841002046FFF7EEFB002010BDF9
:1038A000F8B5044694F84200222875D1A068B0F516
:1038B000805F0CD1206950B90025A66A2068406855
:1038C000C0F308003080A06A801CA06215E0A56AE1
:1038D0000026A068B0F5805F03D0A06828B92069F1
:1038E00018B920684068287004E02068406800F03B
:1038F0007F002870A06A401CA062E08D401E80B24C
:10390000E085002846D12068C06820F020002168AA
:10391000C8602068C06820F480702168C860206892
:10392000406920F0010021684861202084F84200AD
:1039300000206063206B012826D10020206300BF97
:1039400000BF21680C3151E8001F21F010002168F0
:103950000C3141E80002002AF3D100BF2068006862
:1039600000F0100010280AD100BF0020009020684D
:103970000068009020684068009000BF00BFA18DE3
:103980002046FFF70FF802E02046FFF715FB002066
:10399000F8BD01E00020FBE70220F9E770B504461E
:1039A0002168096921F44051E268114322681161DC
:1039B0002269A1681143626941EA02052168C96868
:1039C00041F20C62914329432268D1602168496920
:1039D00021F44071A2691143226851612D4A216886
:1039E000914202D1FEF702FB01E0FEF7EFFA00EB95
:1039F000C00101EB001162689200B1FBF2F100EB33
:103A0000C00202EB001263689B00B2FBF3F2642376
:103A1000B2FBF3F202EBC20303EB0212A1EB820151
:103A2000322202EB01116422B1FBF2F101F0F0014C
:103A300000EBC00202EB001263689B00B2FBF3F2E2
:103A40006423B2FBF3F201EB021200EBC00101EBC5
:103A5000001163689B00B1FBF3F100EBC00303EBC3
:103A600000136668B600B3FBF6F36426B3FBF6F307
:103A700003EBC30606EB0313A1EB8301322303EB35
:103A800001116423B1FBF3F101F00F01114422682D
:103A9000916070BD0038014010B5034699629A8567
:103AA000DA8500205864222083F84200186928B182
:103AB0001868C06840F480701C68E060186840694D
:103AC00040F001001C6860611868C06840F0200088
:103AD0001C68E060002010BD014691F841002128DB
:103AE00028D18868B0F5805F0BD1086948B90A6AA7
:103AF0001088C0F308000B685860086A801C0862D0
:103B000005E00B6A581C086218780B685860C88C6E
:103B1000401E80B2C88458B90868C06820F0800090
:103B20000B68D8600868C06840F040000B68D86037
:103B3000002070470220FCE72DE9F84304460D46BB
:103B400017469846089E31E0701C70B3FDF7E0FE02
:103B5000A0EB0800B04200D816B90320BDE8F883F6
:103B60002068C06800F00400F8B1802D1ED0402D00
:103B70001CD020680068C0F3C000B0B100BF0020B6
:103B8000009020680068009020684068009000BFA6
:103B900000BF2046FFF73EFE0820606400BF002003
:103BA00084F8400000BF0120D8E7FFE720680068E4
:103BB0002840A84201D1012000E00020B842C3D033
:103BC0000020CBE710B50248FEF740FF10BD000013
:103BD0009401002010B50248FEF738FF10BD000028
:103BE000DC01002010B50248FEF730FF10BD0000D8
:103BF0002402002000BFFEE77CB50C001D461646DF
:103C0000014601D0601E00E00020CDE90010064B07
:103C10006A462946304600F0F7F8002C02D0009A98
:103C2000002111707CBD00000F45000802480068AB
:103C3000C0F30220704700000CED00E010B5002832
:103C400004DB0A07130E054A135406E00A07140E94
:103C5000034A00F00F031B1FD45410BD00E400E022
:103C600018ED00E002E008C8121F08C1002AFAD1CE
:103C700070477047002001E001C1121F002AFBD1EC
:103C8000704700002DE9FF5F82B00021DDE90430BC
:103C9000020DDDF840B0034318D044F61050A2F2F4
:103CA000FF3242431514119801281FD0A5EB0B00D9
:103CB000401C5FEA000A4FF000064E4FDFF83891D3
:103CC000B046504615D5CAF1000413E011980124FE
:103CD0004AA3012801D16FEA0B010298119AC0E9A9
:103CE0000031C0E9024206B0BDE8F09FCBF1000010
:103CF000DFE704460021404A491842EB0450CDE971
:103D0000001012E0E00707D032463B4640464946E5
:103D1000FCF71EFC8046894632463B461046194653
:103D2000FCF716FC06460F466410002CEAD1DDE9CC
:103D30000401DDE90023BAF1000F06DAFCF708FC04
:103D400042464B46FCF704FC05E0FCF773FC424698
:103D50004B46FCF76FFC04460E460022284BFCF74E
:103D6000F1FC03D84FF0FF30014607E00022254B5D
:103D700020463146FCF745FBFCF7CBFC102409E05C
:103D8000002C0ADB0A220023FCF7D3FA039B303213
:103D90001A55641E50EA0102F2D1641C039AC4F160
:103DA00011031444119A012A03D0012208430DD1B2
:103DB0000AE0084304D000204FF0110B119072E785
:103DC000A3EB0B056D1E0DE05B4504DD4FF000021B
:103DD00005F1010504E003DA4FF00002A5F1010549
:103DE000002AECD002981199C0E90231C0E90045DF
:103DF00079E70000000014400000F03F30000000B0
:103E00000000F0430000E03F2DE9FF4F95B09A46D7
:103E1000884606460025EEE1252877D1002427466E
:103E2000F94A0121039400E0044316F8013F203BC6
:103E300001FA03F01042F7D130782A2811D06FF040
:103E40002F033078A0F13002092A16D8039A44F0E3
:103E5000020402EB820203EB42021044761C039040
:103E6000EFE758F8042B0392002A03DA504244F497
:103E70000054039044F00204761C30782E2816D1AA
:103E800016F8010F44F004042A280DD06FF02F0219
:103E90003078A0F13003092B09D807EB870302EB38
:103EA0004303C718761CF3E758F8047B761C307878
:103EB0006C280FD006DC4C2817D068280DD06A2853
:103EC00014D104E0742810D07A280FD10DE044F406
:103ED00000140AE044F4801401E044F440147278C1
:103EE000824202D104F58014761C761C3078662854
:103EF0000BD013DC582877D009DC002875D0452872
:103F0000F6D04628F4D047281AD193E118E0632868
:103F100035D0642879D0652812D18BE1702873D010
:103F200008DC6728F1D069286FD06E280DD06F2883
:103F300006D1ACE073282CD0752874D0782853D0E3
:103F40005246179990476D1C54E1C4F30250022861
:103F500009D003280DD0D8F8001004280DD00D602A
:103F600008F1040846E1D8F80010EA17C1E9005248
:103F7000F6E7D8F800100D80F2E70D70F0E718F8BA
:103F8000041B8DF8001000208DF80100EB46012085
:103F900003E058F804BB4FF0FF3061074FF0000119
:103FA00002D40DE009F101018946B9420FDA8145D9
:103FB000F8DB1BF809100029F4D108E009F1010130
:103FC00089468142FADB1BF809100029F6D10398D3
:103FD0005346A0EB090721463846179A00F080FAAD
:103FE000284400EB090507E044E008E10DE01BF878
:103FF000010B524617999047B9F10109F7D2534680
:1040000021463846179AF2E039E00A21C4F30252F9
:104010004FF0000B0091022A06D058F8040BC1178C
:10402000032A09D00AE023E008F1070020F0070284
:10403000F2E80201904605E000B2C117042A01D15E
:1040400040B2C117002906DA0A460021404261EB5E
:1040500002012D2202E0220504D52B228DF8042036
:10406000012203E0E20701D02022F7E7914657E062
:104070000A2100E010214FF0000B00910BE010210D
:104080004FF0000B44F004040827009103E00820DF
:104090004FF0000B0090C4F30252022A05D058F8EA
:1040A000040B0021032A08D008E008F1070020F0E3
:1040B0000702F2E80201904603E080B2042A00D130
:1040C000C0B24FF0000922072AD53278702A07D0F3
:1040D000DDF800C08CF0100C5CEA0B0C05D00EE093
:1040E00040228DF80420012208E050EA010306D0A6
:1040F00030238DF804308DF8052002229146009B74
:1041000083F0080353EA0B030AD150EA010201D1FC
:10411000620705D530228DF804204FF001097F1E7B
:104120003278582A04D039A20C920CAA02920BE0E1
:104130003BA2F9E75B46009AFCF7FBF80C9B9B5C03
:10414000029A521E0292137050EA0102F2D10298B2
:1041500004A9081A00F1200B600702D524F480346A
:1041600000E001275F4502DDA7EB0B0000E0002027
:1041700000EB0B01009003984944401A0390E003C0
:1041800006D453462146179A039800F0A9F905442E
:10419000002706E001A85246C05D179990476D1CA4
:1041A0007F1C4F45F6DBE0030CD553462146179A9A
:1041B000039800F095F9054404E030205246179921
:1041C00090476D1C0099481E00900029F5DC08E01E
:1041D0000298029952460078491C0291179990471B
:1041E0006D1CBBF10001ABF1010BF1DC5BE100F0F8
:1041F00065F90544761C307800287FF40DAE19B0BF
:104200002846BDE8F08F0000092801003031323324
:104210003435363738396162636465660000000002
:1042200030313233343536373839414243444546EC
:1042300000000000600700D4062708F1070020F006
:104240000700F0E80223804603F0004C5FEA0C0010
:1042500001D097A009E0200501D596A005E0E00770
:1042600001D095A001E0AFF24C001390307823F01C
:10427000004365280CD006DC452809D046281DD00F
:1042800047287FD13BE0662818D067287AD136E0EE
:104290000021112F01DB112000E0781CCDE9000185
:1042A00004A90CA8FFF7EEFCDDE90D010C9A4FF014
:1042B000000B07F10109109200914EE04FF0004011
:1042C0000097CDE9011004A90CA8FFF7DBFCDDE99C
:1042D0000D020C9B0F994FF0000B9146109300922A
:1042E00011B9791C00EB0109B7EB090003D4C0F147
:1042F000FF3B07F10109A9EB0700019042E0012F04
:1043000000DA01270021112F01DD112000E03846DD
:10431000CDE9000104A90CA8FFF7B4FCDDE90D010B
:104320000C9A00914FF0000BB946109221070FD460
:10433000009A4A4503DA914601E0A9F10109B9F171
:10434000010F05DD109AA9F10101515C3029F4D06B
:10435000B84202DA10F1040F03DA0121CDE90110AD
:1043600010E0002803DC8344A9EB000102E0411CBB
:10437000494500DD8946A0EB0B00401C01904FF041
:1043800000400290200705D40198484502DB4FF019
:10439000FF30019000208DF84B0002980DF14B0783
:1043A000B0F1004F25D002200C902B200D900298E8
:1043B00000280CDA404202902D200D9007E00A21DF
:1043C0000298FBF7A0FF3031029007F8011D0C990D
:1043D000481E0C900029F2DC02980028EFD1791ECB
:1043E0000D980870307800F0200040F0450007F884
:1043F000020D11A8C01BC01D02901398007800B1D7
:10440000012000EB0901019801EBE07102980144E1
:104410000398401A401E0390E00306D453462146F9
:10442000179A039800F05CF805441398007818B1C7
:104430005246179990476D1CE00323D553462146F9
:10444000179A039800F04CF805441BE0BBF1000FED
:1044500007DB0098584504DD1098179910F80B00F9
:1044600001E0179930205246904701980BF1010B5B
:10447000401E05F10105019004D12E2052461799E6
:1044800090476D1CB9F10001A9F10109DEDC05E0DE
:1044900017F8010B5246179990476D1C0299481E58
:1044A00002900029F4DC53462146179A03989EE6B1
:1044B0002D0000002B000000200000002DE9F0413D
:1044C000044600251E461746880404D405E03946F4
:1044D0002020B0476D1C641EF9D52846BDE8F08148
:1044E0002DE9F041044600251E469046C80301D53B
:1044F000302700E02027880404D505E041463846EF
:10450000B0476D1C641EF9D52846BDE8F0814A68A5
:10451000002A06D00A68531C0B6010704868401EC1
:104520004860704710B5084B5968084B1B68084C29
:10453000B3FBF4F303FB00F200E000BF024B5B6847
:104540005B1A9342F9D310BD001000E00C0000206C
:1045500040420F00FDF710FBFEF799FFFEF7E4FD68
:10456000FEF7C8FDFEF720FFFEF73AFFFEF788FDD5
:10457000FEF79CFEFEF77CFEFEF7FAFEFEF74CFF10
:104580000948006840F080700749086007480068E3
:1045900040F001000549086000F032F800F008F82A
:1045A00001E000F033F8FCE7FCED00E0001000E073
:1045B00010B54FF480720A490A48FEF7B9F94FF472
:1045C000807209490948FEF7B3F97D220849094874
:1045D000FEF7AEF97D2208490848FEF7A9F910BD9B
:1045E0006C020020940100206C030020DC010020FC
:1045F0006C04002024020020E90400204C0100206B
:1046000002200149087070471000002070B5002496
:1046100000BF1EE0FDF77CF9054604EB44000F499E
:1046200001EB8000406804EB44010C4A02EB81017D
:1046300089680844A8420AD804EB4400114601EBFB
:104640008000856004EB440152F821008047601C23
:10465000C4B2034800788442DCDB70BD1400002043
:10466000100000200FB430B5C1B0054646A8009038
:104670004FF4807101A8009B459AFFF7BDFA0446EC
:1046800000200090002C05DDA2B2431E01A928469F
:10469000FEF793FC41B030BC5DF814FB10B509483F
:1046A000007800B910BD084A08A10C48FFF7DAFFEE
:1046B0007D210548FBF771FD00200249087000BF0D
:1046C000F0E70000310000206C0400205B766F6989
:1046D00063655D3D25730D0A000000009401002014
:1046E00002030405060708090A0B0C0D0E0F101033
:1046F00001020000000000000000010203040607A0
:104700000809000000000102030400002C47000813
:10471000000000203C000000643C000868470008DE
:104720003C0000202C090000743C00080000000040
:10473000100000000100000000127A0000000000DC
:104740009D4600080A00000000000000650B0008FC
:104750002C0100000000000000000000000000002C
:08476000000000000000000051
:0400000508000131BD
:00000001FF
