:020000040800F2
:10000000B81400204901000851430008AF3A000825
:100010004D430008310B0008CD4C000800000000E3
:10002000000000000000000000000000594500082A
:10003000710B0008000000002D4500085B4500081A
:100040006301000863010008630100086301000800
:1000500063010008630100086301000863010008F0
:10006000630100086301000863010008350B000804
:1000700063010008630100086301000863010008D0
:1000800063010008630100086301000863010008C0
:1000900063010008630100086301000863010008B0
:1000A00063010008630100086301000863010008A0
:1000B0006301000863010008630100086301000890
:1000C0006301000863010008630100086301000880
:1000D00063010008AD4C0008BD4C00086301000836
:1000E0006301000863010008630100086301000860
:1000F0006301000863010008630100086301000850
:10010000630100086301000863010008630100083F
:10011000630100086301000863010008630100082F
:10012000630100086301000863010008630100081F
:10013000DFF810D000F0A4FB00480047B9620008C7
:10014000AFF30080B81400200648804706480047F7
:10015000FEE7FEE7FEE7FEE7FEE7FEE7FEE7FEE777
:10016000FEE7FEE7E545000831010008202A04DB30
:10017000203A21FA02F00021704721FA02F3D04020
:10018000C2F120029140084319467047D2B201E003
:1001900000F8012B491EFBD270470022F6E710B58C
:1001A00013460A4604461946FFF7F0FF204610BDE5
:1001B00030B505462A460B4612F8010B13F8014BE1
:1001C00008B1A042F8D01CB1002802D06D1CF1E7A4
:1001D000284630BD10B5044604E00B7800F8013B1A
:1001E00003B1491C521EF8D2204610BDCAB2401EAF
:1001F00010F8011F8A4202D00029F9D1002070476F
:10020000421C10F8011B0029FBD1801A704730B541
:1002100005460020034600E05B1C934205D2EC5CDF
:10022000C85C201A01D1002CF6D130BDF0B480EAB0
:100230000102D40F4200B2EB410F02D2024608463F
:1002400011464A0042D0C30DDDB2C1F3C752AD1A08
:10025000202D35DAC1F3160141F4000204B15242F7
:10026000C5F1200602FA06F12A411044B3EBD05F33
:1002700023D0C4B1012DA0EBC35009DCF0BC4FF07A
:10028000004202EAC352DBB200F5000000F012B9EE
:10029000400000F1807000EBC350A0F1807040EA94
:1002A000D170490009E0490841EAC071A0EBC35090
:1002B00000F50000400800EBC350F0BC00F0F1B8BE
:1002C0006142012202EB4101001BF6E7F0BC7047DE
:1002D00081F00041AAE780F00040A7E780EA010230
:1002E00010B502F00043400022D04A001FD0010E9A
:1002F00001EB1261C0F35600C2F3560240F4000055
:1003000042F40002A0FB022000047F39140400D054
:10031000401C50EA124001D44000491EC2B20C06F3
:1003200004EBD010401C4008802A02D003E00020DB
:1003300010BD20F00100002900DA0020184310BD94
:1003400030B480EA010202F0004530F0004221F0B2
:10035000004013D090B1C30DD40DC2F31601C0F309
:100360001600E41A41F4000140F400027D34914289
:1003700001D3641C00E04900002C02DA30BC0020EC
:1003800070474FF400000023914201D3891A0343C0
:1003900040084FEA4101F7D151B1914202D14FF0EB
:1003A000004105E002D24FF0010101E06FF00101D0
:1003B00003EBC450284430BC00F073B8C10F80EA8E
:1003C000E0700844CA079623002100F073B8962312
:1003D0000022114600F06EB800F0004230F00040FC
:1003E0000AD0C10D01F56071C0F3160042EA015157
:1003F000C2084007114370470020014670470000C3
:10040000002801DBC0F10040002901DBC1F10041FF
:100410008142704730B50B4601460020202201245E
:1004200009E021FA02F59D4205D303FA02F5491BC2
:1004300004FA02F52844151EA2F10102F1DC30BDD8
:100440002DE9F05F0546002092469B468846064609
:10045000814640241BE02846414647462246FFF796
:1004600085FE53465A46C01A914110D3114618468C
:10047000224600F017FA2D1A67EB01084F46224674
:100480000120002100F00EFA17EB00094E41201E5A
:10049000A4F10104DFDC484631462A464346BDE864
:1004A000F09F0029A8BF7047401C490008BF20F0FA
:1004B0000100704710B4B0FA80FC00FA0CF050EA6A
:1004C000010404BF10BC704749B1CCF1200421FAEB
:1004D00004F411FA0CF118BF012121430843A3EBE6
:1004E0000C01CB1D4FEA00614FEA102042BF0020F3
:1004F00010BC704700EBC35010440029A4BF10BCCF
:100500007047401C490008BF20F0010010BC704734
:100510002DE9FE4F804681EA0300C00F0C46009093
:1005200021F0004123F00045B8EB0200A94105D2BB
:100530004046214690461C460B46024623F00040AA
:10054000104347D0270DC7F30A00C3F30A510290A6
:10055000401A019040286BDAC3F3130040F4801B6B
:100560000098924620B10023D2EB030A63EB0B0BF9
:1005700001985946C0F14002504600F093F90646F2
:100580000D4650465946019A00F09BF910EB0800C1
:100590006141002487EA115284EAE7731A4340D08C
:1005A000009A62B3019A012A4FEA075215DC001B38
:1005B00061EB02014FF0004202EA0752CDE900422E
:1005C000001C41F5801132462B4600F09BF903B028
:1005D000BDE8F08F40462146F9E7001B61EB0201C0
:1005E000001C41F5801300185B412018A2F500178C
:1005F00047EB030140EAD570B6196D4111E06D0873
:100600004FEA360645EAC0754FEA0752001B61EB18
:100610000201001C41F5801149084FEA3000001921
:10062000514132462B4603B0BDE8F04F00F05BB9B4
:100630000098012240000023D0EB020263EBE0733C
:10064000009821464FEAE074B8EB000061EB04012A
:10065000E9E783F000435BE781F0004158E72DE9CB
:10066000FE4F81EA030404F0004421F000410094AD
:100670004FF0000B23F0004350EA01045ED052EA31
:1006800003045BD0C3F30A54C1F30A552C44A4F20B
:10069000F3340194A0FB0254C1F3130141F480111F
:1006A000C3F3130343F4801301FB024400FB034E26
:1006B000840A970A44EA815447EA8357A4FB0768EF
:1006C00002958D0A05FB07854FEA932C04FB0C5419
:1006D0002705029D4FEA065847EA1637B5EB08058D
:1006E0006EEB070C870E920E47EA811742EA8312DF
:1006F000A7FB0201B6EB0B0164EB00042B0D43EAF0
:100700000C335E1844EB1C50DA465146E7FB0201FD
:10071000C5F313044FEA0B3343EA14534FEA043290
:10072000019C43EA0603A4F10C040294009CCDE969
:1007300000B400F0E7F803B0BDE8F08F00200146F8
:10074000F9E72DE9F04D81EA030404F0004B21F0B4
:10075000004514464FF0000A23F0004150EA05021C
:1007600020D054EA01021DD0C5F30A570246C5F352
:100770001303C1F31300C1F30A5640F4801543F488
:100780008013A7EB0608101BD64608F2FD3873EB62
:10079000050002D308F1010801E092185B41B8F1AD
:1007A000000F03DA00200146BDE8F08D00204FF471
:1007B0008011064684460EE0171B73EB050705D330
:1007C000121B63EB050306434CEA010C49084FEA90
:1007D000300092185B4150EA0107EDD152EA030064
:1007E00012D082EA040083EA0501084305D0101BF9
:1007F000AB4106D20122002306E000224FF0004365
:1008000002E06FF0010253101AEB06004CEB0851A6
:1008100010EB0A0041EB0B01BDE8F04D00F063B8AE
:10082000C1F30A52C1F3130140F2FF3341F48011C6
:100830009A4202DA00200146704740F233439A425E
:10084000A2F2334202DC5242FFF790BC00F02AB819
:1008500030B5041E71F1000404DB4FF00044404247
:1008600064EB0101141E73F1000405DB1C464FF01C
:100870000043524263EB0403994208BF904230BDEB
:10088000064C074D06E0E06840F0010394E80700DD
:1008900098471034AC42F6D3FFF74EFCCC6A000800
:1008A000EC6A0008202A04DB203A00FA02F100205A
:1008B00070479140C2F1200320FA03F3194390409E
:1008C0007047202A06DBCB17203A41FA02F043EAB0
:1008D000E07306E041FA02F3D040C2F120029140F9
:1008E00008431946704710B5141E73F1000408DA66
:1008F000401C41F1000192185B411A4301D120F0E4
:10090000010010BD2DE9F04D92469B4611B1B1FAA0
:1009100081F202E0B0FA80F220329046FFF7C2FF87
:1009200004460F4640EA0A0041EA0B0153465A4684
:10093000084313D0114653EA010019D0C8F1400210
:100940005046FFF713FC05460E46504659464246B0
:10095000FFF7A8FF084305D0012004E020463946F0
:10096000BDE8F08D0020054346EAE0762C4337438E
:100970000A986305E40AA0EB08000022FD0A44EA95
:1009800047540A3002D500200146E9E70105101955
:100990006941DDE9084500196941BDE8F04DA2E76C
:1009A00070B5044600252068806800F0010018B387
:1009B0002068806820F001002168886001F0B2F9A9
:1009C000054613E001F0AEF9401B02280ED920685D
:1009D000806800F0010048B1A06A40F01000A062F9
:1009E000E06A40F00100E062012070BD206880688C
:1009F00000F001000028E5D10020F6E770B50546BB
:100A00006C6AA06A00F05000E0B9A06A40F400707F
:100A1000A0622068806800F46020B0F5602F0DD1DE
:100A2000207B58B9A06A20F48070A062A06A00F40C
:100A3000805018B9A06A40F00100A062204600F082
:100A4000D9F903E0206A016B2846884770BD70B56C
:100A500005466C6AA06A40F04000A062E06A40F07F
:100A60000400E062204600F0C7F970BD70B504468E
:100A7000656A284600F0BFF970BD000038B504462D
:100A80000025002000902068806800F0010078BBFD
:100A90002068806840F0010021688860194800687B
:100AA0001949B0FBF1F0009002E00098401E009060
:100AB00000980028F9D101F035F9054619E001F058
:100AC00031F9401B022814D92068806800F0010029
:100AD00078B9A06A40F01000A062E06A40F001001E
:100AE000E06200BF002084F8240000BF012038BD70
:100AF00005E02068806800F001000028DFD00020B9
:100B0000F5E700000C00002040420F0033B581B033
:100B100005466420012302AA46210090284601F0E0
:100B2000C3FB044614B1284603F0DEF820463EBD60
:100B300000BFFEE710B5024800F028FC10BD000021
:100B4000C800002030B590F840500124AC40C56B7F
:100B50006C60046863604468102C04D10468A2606F
:100B60000468E16003E00468A1600468E26030BDED
:100B7000704772B600BFFEE7F8B5044600260020B5
:100B8000009000BF94F82400012801D10220F8BD94
:100B9000012084F8240000BF2046FFF701FF06462D
:100BA0002046FFF76BFF0646002E69D1A06A20F4AD
:100BB000885040F00200A062022001F055FD344947
:100BC0000968B1FBF0F04000009002E00098401E80
:100BD000009000980028F9D12068806840F0080053
:100BE0002168886001F09EF8054616E001F09AF849
:100BF000401B0A2811D92068806800F0080060B105
:100C0000A06A20F0020040F01000A06200BF0020A7
:100C100084F8240000BF0120B9E72068806800F054
:100C200008000028E2D12068806840F004002168B4
:100C3000886001F077F8054616E001F073F8401B74
:100C40000A2811D92068806800F0040060B1A06A09
:100C500020F0020040F01000A06200BF002084F8E5
:100C6000240000BF012092E72068806800F00400A3
:100C70000028E2D1A06A20F0020040F00100A0624A
:100C800000BF002084F8240000BF30467FE700004A
:100C90000C00002038B5024600230020009000BF61
:100CA00092F82400012801D1022038BD012082F8E9
:100CB000240000BF4868072812D21068406B0C79E6
:100CC000641E04EB84051F24AC40A0430D796D1E07
:100CD00005EB85050C68AC4020431468606327E091
:100CE00048680D2812D21068006B0C79E41F04EBE1
:100CF00084051F24AC40A0430D79ED1F05EB85054D
:100D00000C68AC4020431468206311E01068C06A8E
:100D10000C790D3C04EB84051F24AC40A0430D79F5
:100D20000D3D05EB85050C68AC4020431468E0627E
:100D300008680A2812D31068C0680C780A3C04EBD3
:100D400044050724AC40A0430D780A3D05EB45055A
:100D50008C68AC4020431468E0600FE010680069C4
:100D60000C7804EB44050724AC40A0430D7805EB58
:100D700045058C68AC402043146820610868102841
:100D800002D00868112827D1174C1068A0421ED144
:100D90001068806800F40000F0B91068806840F4C2
:100DA00000001468A0600868102815D10F4800687A
:100DB0000F4CB0FBF4F000EB80004000009002E02C
:100DC0000098401E009000980028F9D104E0906A35
:100DD00040F020009062012300BF002082F8240030
:100DE00000BF184661E70000002401400C0000200D
:100DF00040420F0070477047704700002DE9F041F6
:100E00000446002700250026A84614B90120BDE8A5
:100E1000F081A06810B1207D00B100BFA06A30B998
:100E20000020E06284F82400204600F097F8204675
:100E3000FFF7B6FD0746A06A00F01000002873D146
:100E4000002F7ED1A06A20F4885040F00200A062FA
:100E50003F4AD4E90001904208D1E069B0F5402F43
:100E600002D14FF4002002E0E06900E0E0690143B4
:100E7000207B41EA40000643A068B0F5807F02D0A5
:100E8000A068012802D14FF4807000E000200543E3
:100E9000207D012811D1207B38B9A069401E4FF474
:100EA000006141EA4030054307E0A06A40F02000BD
:100EB000A062E06A40F00100E0622068406820F42F
:100EC00069402843216848602068806821490840BB
:100ED000304321688860A068B0F5807F02D0A068A8
:100EE000012802D14FF4807000E00020B0F5807F2F
:100EF00003D1208A401E4FEA00582068C06A20F4BF
:100F0000700040EA08002168C862206880681249C1
:100F10000840B04209D10020E062A06A20F002003F
:100F200040F00100A06211E00BE0A06A20F0020096
:100F300040F01000A062E06A40F00100E06201278A
:100F400004E0A06A40F01000A062012738465EE786
:100F5000003C0140FDF7E1FFFE0E1FFF10B586B01B
:100F600004460020029003900490059022492068D6
:100F700088423ED100BF2148806940F400701F497B
:100F800088610846806900F40070019000BF00BFCE
:100F900000BF0846806940F0040088610846806907
:100FA00000F00400019000BF00BF11200290032058
:100FB000039002A9124800F007FD12481249086088
:100FC000002048600021104881608021C1604900F4
:100FD000016189004161202181610021C16100F02E
:100FE000A1FB08B1FFF7C5FD00BF074820624462BE
:100FF00000BF06B010BD00000024014000100240F8
:101000000008014008000240C80000202DE9F0411E
:1010100004460D461646002757492068884203D0EB
:1010200056492068884205D15348001D006800F4E5
:10103000702000E0002000287ED100BF94F824003A
:10104000012802D10220BDE8F081012084F82400AB
:1010500000BF2046FFF712FD0746002F6DD1A06AA2
:1010600040F60161884340F48070A06243492068E3
:10107000884209D14048001D006800F4702008B97A
:10108000012002E0002000E0012078B1A06A20F4F5
:101090008010A0622068406800F4806000B3A06AFD
:1010A00020F4005040F48050A06219E0A06A40F49F
:1010B0008010A06230492068884203D02F49206800
:1010C000884205D12C48001D006800F4806000E0D3
:1010D000002028B1A06A20F4005040F48050A062A3
:1010E000A06A00F4805020B1E06A20F00600E062BF
:1010F00001E00020E06200BF002084F8240000BF6F
:101100001F48216A88621F48216AC8621E48216AF6
:1011100008636FF00200216808602068806840F46E
:10112000807021688860226802F14C0133462A46AB
:10113000206A00F03DFB01E01AE014E020688068BE
:1011400000F46020B0F5602F06D12068806840F47C
:10115000A000216888600CE02068806840F480105E
:101160002168886005E000BF002084F8240000E0CA
:101170000127384667E700000024014000280140AD
:10118000FD0900086D0A00084F0A00080146002208
:1011900091F82100022808D00420886300BF0020B5
:1011A00081F8200000BF012070470868006820F027
:1011B0000E000B6818600868006820F001000B68DA
:1011C000186091F8403001209840CB6B58600120A6
:1011D00081F8210000BF002081F8200000BF1046E8
:1011E000E2E7000070B50446002594F821000228CB
:1011F00003D00420A0630125C1E02068006820F02E
:101200000E00216808602068006820F00100216855
:1012100008605C492068884252D95A497839206868
:10122000884201D1012047E056496439206888424C
:1012300001D1102040E0534950392068884201D143
:10124000801539E04F493C392068884201D180142B
:1012500032E04C4928392068884202D14FF480306E
:101260002AE0484914392068884202D14FF480109E
:1012700022E044492068884201D140041CE04249F0
:101280002068884201D1012016E03F4914312068CE
:10129000884201D110200FE03B4928312068884264
:1012A00001D1801508E038493C312068884201D1DD
:1012B000801401E04FF480303349091F086051E089
:1012C000304978392068884201D1012047E02D4912
:1012D00064392068884201D1102040E02949503902
:1012E0002068884201D1801539E026493C392068C0
:1012F000884201D1801432E022492839206888428E
:1013000002D14FF480302AE01E4914392068884207
:1013100002D14FF4801022E01A492068884201D19E
:1013200040041CE018492068884201D1012016E0E1
:10133000154914312068884201D110200FE012496C
:1013400028312068884201D1801508E00E493C31DF
:101350002068884201D1801401E04FF480300949AF
:1013600080394860012084F8210000BF002084F803
:10137000200000BF606B10B12046616B8847284693
:1013800070BD0000800002400804024070B50446B1
:10139000E06B05682068066894F8401004208840D7
:1013A0002840002875D006F004000028FAD02068F4
:1013B000006800F0200028B92068006820F00400D0
:1013C00021680860D5492068884254D9D3497839C2
:1013D0002068884201D1042049E0D049643920685E
:1013E000884201D1402042E0CC49503920688842EF
:1013F00001D100153BE0C9493C392068884202D13F
:101400004FF4804033E0C54928392068884202D132
:101410004FF480202BE0C14914392068884202D162
:101420004FF4800023E0BD492068884201D1C00408
:101430001DE0BB492068884201D1042017E0B8496B
:1014400014312068884201D1402010E0B44928318D
:101450002068884201D1001509E0B1493C3120687B
:10146000884202D14FF4804001E04FF48020AC4923
:10147000091F086054E0A94978392068884201D1E1
:1014800004204AE0A54964392068884202D14020FE
:1014900043E04CE0A14950392068884201D1001551
:1014A0003BE09E493C392068884202D14FF480409D
:1014B00033E09A4928392068884202D14FF48020CD
:1014C0002BE0964914392068884202D14FF48000FD
:1014D00023E092492068884201D1C0041DE0904970
:1014E0002068884201D1042017E08D49143120681A
:1014F000884201D1402010E0894928312068884283
:1015000001D1001509E086493C312068884202D1AA
:101510004FF4804001E04FF48020804980394860DA
:10152000E06A002802D02046E16A8847F4E094F897
:101530004010022088402840002871D006F00200A8
:101540000028FAD02068006800F0200040B9206828
:10155000006820F00A0021680860012084F821005A
:101560006E492068884254D96C497839206888428D
:1015700001D1022049E0694964392068884201D1DB
:10158000202042E0654950392068884201D1401549
:101590003BE062493C392068884202D14FF4005058
:1015A00033E05E4928392068884202D14FF4003088
:1015B0002BE05A4914392068884202D14FF40010B8
:1015C00023E056492068884201D180041DE0544937
:1015D0002068884201D1022017E051491431206867
:1015E000884201D1202010E04D49283120688842EE
:1015F00001D1401509E04A493C312068884202D1B6
:101600004FF4005001E04FF400304549091F0860D5
:1016100054E0424978392068884202D102204AE0E9
:1016200057E03E4964392068884201D1202042E0D9
:101630003A4950392068884201D140153BE037498A
:101640003C392068884202D14FF4005033E03349DE
:1016500028392068884202D14FF400302BE02F490E
:1016600014392068884202D14FF4001023E02B493E
:101670002068884201D180041DE029492068884201
:1016800001D1022017E0264914312068884201D197
:10169000202010E0224928312068884201D14015DD
:1016A00009E01F493C312068884202D14FF40050C4
:1016B00001E04FF4003019498039486000BF002034
:1016C00084F8200000BFA06A30B32046A16A884792
:1016D00022E094F84010082088402840E0B106F04D
:1016E0000800C8B12068006820F00E00216808607A
:1016F00094F8401001208840E16B48600120A0630D
:1017000084F8210000BF002084F8200000BF206B77
:1017100010B12046216B884770BD00008000024058
:10172000080402400146002209B9012070471E4BFF
:10173000086898420BD21D4B0868C01A1423B0FBEE
:10174000F3F08000086419480838C8630AE0164BB3
:101750000868C01A1423B0FBF3F080000864124834
:101760000838C863022081F821000868026843F63F
:10177000F0708243D1E901031843CB6818430B6929
:1017800018434B6918438B691843CB6918430243CC
:101790000868026000208863012081F82100002091
:1017A00081F8200000BFC1E70804024008000240A1
:1017B0002DE9F04104460D4616461F464FF000083D
:1017C00000BF94F82000012802D10220BDE8F0817A
:1017D000012084F8200000BF94F8210001282CD1BA
:1017E000022084F821000020A0632068006820F017
:1017F0000100216808603B46324629462046FFF733
:10180000A1F9E06A30B12068006840F00E0021685C
:1018100008600BE02068006820F004002168086080
:101820002068006840F00A002168086020680068AD
:1018300040F001002168086006E000BF002084F845
:10184000200000BF4FF002084046BFE770B50446D5
:1018500000F068FA06462546681C10B10448007876
:10186000054400BF00F05EFA801BA842FAD370BDA9
:10187000080000202DE9F04102460B4600208CE0D4
:101880000127874007EA030100296FD0464F4FEA3E
:10189000900C57F82C4087074FEA177C0F2707FA60
:1018A0000CF73C40414FBA4201D1002719E0404FAC
:1018B000BA4201D1012714E03E4FBA4201D10227BA
:1018C0000FE03D4FBA4201D103270AE03B4FBA4235
:1018D00001D1042705E03A4FBA4201D1052700E0C3
:1018E00006274FEA807C4FEA1C7C07FA0CF7A742D8
:1018F00032D1344F3F688F43DFF8C8C0CCF8007056
:101900000CF104073F688F430CF1040CCCF8007015
:101910002C4F0C373F688F43DFF8A8C00CF10C0C3C
:10192000CCF80070ACF104073F688F43ACF1040CB5
:10193000CCF8007087074FEA177C0F2707FA0CF4E2
:10194000194F4FEA900C57F82C70A743DFF858C096
:101950004FEA90084CF82870FF2901D8174600E09C
:10196000171D3D46FF2902D8870003E014E0A0F1CF
:101970000807BF003E462F684FF00F0C0CFA06FC1C
:1019800027EA0C074FF0040C0CFA06FC47EA0C0798
:101990002F60D7688F43D760401C23FA00F7002FD1
:1019A0007FF46EAFBDE8F0810800014000080140FF
:1019B000000C0140001001400014014000180140DB
:1019C000001C0140000401402DE9F84702460023B5
:1019D0009C467BE14FF0010808FA03F4D1F800803F
:1019E00008EA0400A0427DD1DFF8F4A2D1F8048017
:1019F000A8EB0A09D0453AD014DCB8F1030F50D057
:101A000009DCB8F1000F31D0B8F1010F1CD0B8F1EA
:101A1000020F49D120E0B8F1110F18D0B8F1120F20
:101A200042D11EE0B9F5881F25D006DCB9F5803F0C
:101A300020D0B9F5801F37D11AE0B9F5001F18D0B2
:101A4000B9F5041F30D117E0D1F80CC02DE0D1F862
:101A50000C8008F1040C28E0D1F80C8008F1080C87
:101A600023E0D1F80C8008F10C0C1EE000BF00BF91
:101A700000BF00BF00BF00BFD1F80880B8F1000F61
:101A800002D14FF0040C0BE0D1F80880B8F1010F3F
:101A900003D14FF0080C146102E04FF0080C5461C0
:101AA00003E04FF0000C00E000BF00BFFF2801D8AA
:101AB000904601E002F104084646FF2802D84FEAAA
:101AC000830803E0A3F108084FEA88084746D6F8E0
:101AD00000804FF00F0909FA07F928EA09080CFA03
:101AE00007F900E07AE048EA0908C6F80080D1F872
:101AF000048008F08058B8F1805F6FD100BFDFF834
:101B0000E481D8F8188048F00108DFF8D891C9F8C6
:101B10001880C846D8F8188008F00108CDF8008071
:101B200000BF00BF4FEAB9384FEA930958F829506F
:101B30004FEA83784FEA18794FF00F0808FA09F84E
:101B400025EA0805DFF8A081424502D14FF00008E0
:101B500024E0DFF89881424502D14FF001081DE0F2
:101B6000DFF88C81424502D14FF0020816E0DFF821
:101B70008481424502D14FF003080FE0DFF87881FD
:101B8000424502D14FF0040808E0DFF87081424579
:101B900002D14FF0050801E04FF006084FEA8379C3
:101BA0004FEA197908FA09F848EA0505DFF8508183
:101BB0004FEA930948F82950D1F8048008F48018B6
:101BC000B8F5801F0BD1DFF83C81D8F8008048EAD7
:101BD0000008DFF83091C9F800800AE075E0DFF80E
:101BE0002481D8F8008028EA0008DFF81891C9F8A5
:101BF0000080D1F8048008F40018B8F5001F0ED159
:101C0000DFF8008108F10408D8F8008048EA0008ED
:101C1000DFF8F09009F10409C9F800800DE0DFF861
:101C2000E48008F10408D8F8008028EA0008DFF80A
:101C3000D49009F10409C9F80080D1F8048008F4AF
:101C40000038B8F5003F0ED1DFF8B880A8F10408DD
:101C5000D8F8008048EA0008DFF8A890A9F1040944
:101C6000C9F800800DE0DFF89C80A8F10408D8F8DE
:101C7000008028EA0008DFF88C90A9F10409C9F86F
:101C80000080D1F8048008F48038B8F5803F0ED188
:101C9000DFF87080A8F10808D8F8008048EA00084A
:101CA000DFF86090A9F10809C9F800800DE0DFF8BD
:101CB0005480A8F10808D8F8008028EA0008DFF866
:101CC0004490A9F10809C9F800805B1CD1F8008094
:101CD00028FA03F8B8F1000F7FF47CAEBDE8F8876E
:101CE000000011100010024000080140000C0140EB
:101CF000001001400014014000180140001C014088
:101D00000800014008040140024693680B400BB1F3
:101D1000012000E0002070470AB1016101E00B04DE
:101D20000361704701480068704700000000002010
:101D300010B504460CB9012010BD242084F83D00E4
:101D40002068006820F0010021680860204600F04B
:101D500063FB0020206484F83D00206384F83E008B
:101D600000BF84F83C0000BF00BFE5E770B5044643
:101D70000CB9012070BD94F83D0028B9002084F80A
:101D80003C00204600F064FB242084F83D002068DD
:101D9000006820F00100216808602068006840F4B5
:101DA0000040216808602068006820F40040216835
:101DB000086000F049FE05465C496068884206D824
:101DC0005B48854201D2012007E0002005E0594828
:101DD000854201D2012000E00020012800D1C9E79E
:101DE0005548B5FBF0F62068406820F03F003043CE
:101DF000216848604D496068884201D8701C07E03E
:101E00004FF4967070434FF47A71B0FBF1F0401CC0
:101E10002168096A21F03F010843216808624349AB
:101E20006068884214D8681E61684900B0FBF1F010
:101E3000401CC0F30B00042801D204203DE0681EC2
:101E400061684900B0FBF1F0401CC0F30B0034E0C6
:101E5000A06838B9681E616801EB4101B0FBF1F080
:101E6000401C0AE0681E616801EBC10202EB01112F
:101E7000B0FBF1F0401C40F48040C0F30B0008B907
:101E800001201AE0A06848B9681E616801EB4101B1
:101E9000B0FBF1F0401CC0F30B000CE0681E616861
:101EA00001EBC10202EB0111B0FBF1F0401CC0F3E9
:101EB0000B0040F4804040F400402168C9694CF6B2
:101EC000FF72914308432168C861D4E907010843C0
:101ED0002168096821F0C001084321680860D4E93D
:101EE000031008432168896848F2FF329143084390
:101EF00021688860D4E9050108432168C96821F098
:101F0000FF0108432168C8602068006840F00100B4
:101F10002168086000202064202084F83D00002013
:101F2000206384F83E0000BF24E70000A086010083
:101F300080841E0000093D0040420F002DE9FC474F
:101F400004468946174698460A9E00200190FFF7EE
:101F5000E9FE054694F83D0020286FD1192301229F
:101F6000CD492046009501F008FF10B10220BDE8E0
:101F7000FC8700BF94F83C00012801D10220F6E75D
:101F8000012084F83C0000BF2068006800F00100D8
:101F900028B92068006840F00100216808602068C6
:101FA000006820F4006021680860222084F83D0069
:101FB000102084F83E00002020646762A4F82A8084
:101FC000608D2085B548E0622B4632464946204662
:101FD00001F08EFD08B10120C9E7208D88B900BF4E
:101FE000002000902068406900902068806900907F
:101FF00000BF00BF2068006840F4007021680860DE
:102000004BE0208D01281AD12068006820F4806000
:102010002168086072B600BF002000902068406907
:10202000009020688069009000BF00BF20680068B1
:1020300040F400702168086062B62EE029E1208D2E
:10204000022819D12068006840F400602168086007
:1020500072B600BF002000902068406900902068A0
:102060008069009000BF00BF2068006820F4806095
:102070002168086062B610E02068006840F4806063
:102080002168086000BF002000902068406900902F
:1020900020688069009000BF00BFEBE0208D03281E
:1020A0007ED8208D012815D12A463146204601F0E0
:1020B00040FF08B101205AE720680069616A087092
:1020C000606A401C6062208D401E2085608D401E2D
:1020D0006085CFE0208D02282CD133460022704944
:1020E0002046009501F049FE08B101203FE772B695
:1020F0002068006840F4007021680860206800696A
:10210000616A0870606A401C6062208D401E2085F4
:10211000608D401E608562B620680069616A087043
:10212000606A401C6062208D401E2085608D401ECC
:1021300060859FE03346002259492046009501F012
:102140001CFE08B1012012E72068006820F48060BE
:102150002168086072B620680069616A0870606A68
:10216000401C6062208D401E2085608D401E608571
:102170004C4800681921B0FBF1F04FF47A71B0FBC4
:10218000F1F0C0EBC00000EB8000019000BF0198AF
:10219000401E01900198A8B900202063202000E093
:1021A00038E084F83D00002084F83E00206C40F0C8
:1021B0002000206462B600BF002084F83C0000BF0D
:1021C0000120D4E620684069C0F380000028DED0FA
:1021D0002068006840F40070216808602068006989
:1021E000616A0870606A401C6062208D401E208514
:1021F000608D401E608562B620680069616A087063
:10220000606A401C6062208D401E2085608D401EEB
:1022100060852FE02A463146204601F08AFE08B14B
:102220000120A4E620680069616A0870606A401CA9
:102230006062208D401E2085608D401E6085206874
:102240004069C0F38000A8B1208D032805D1206823
:10225000006820F480602168086020680069616A75
:102260000870606A401C6062208D401E2085608D71
:10227000401E6085208D00287FF410AF202084F858
:102280003D00002084F83E0000BF84F83C0000BF01
:102290006DE602206BE60000020010000000FFFF68
:1022A000040001000C0000202DE9F8430446894693
:1022B00016461F46DDF82080FFF734FD054694F8EA
:1022C0003D0020287ED11923012251492046009546
:1022D00001F053FD10B10220BDE8F88300BF94F86F
:1022E0003C00012801D10220F6E7012084F83C00DF
:1022F00000BF2068006800F0010028B9206800686D
:1023000040F00100216808602068006820F4006047
:1023100021680860212084F83D00102084F83E00E8
:102320000020206466626785608D20853948E06200
:102330002B4642464946204601F076FC08B1012072
:10234000CAE700BF00200090206840690090206824
:102350008069009000BF00BF44E02A464146204605
:1023600001F02CFE50B1206C042805D120680068D3
:1023700040F40070216808600120ADE7606A0078D1
:1023800021680861606A401C6062608D401E608543
:10239000208D401E208520684069C0F3800070B108
:1023A000208D60B1606A007821680861606A401C15
:1023B0006062608D401E6085208D401E20852A460B
:1023C000414600E022E0204601F0A4FC50B1206C20
:1023D000042805D12068006840F400702168086076
:1023E000012079E7208D0028B7D12068006840F4EB
:1023F000007021680860202084F83D00002084F8E7
:102400003E0000BF84F83C0000BF65E7022063E7A0
:10241000020010000000FFFF10B5044609492068C3
:1024200088420DD10848C06920F400100649C861EF
:1024300040210648FFF71EFA80210448FFF71AFAE8
:1024400010BD00000054004000100240000C01408C
:1024500010B586B0044600200290039004900590C9
:1024600015492068884225D100BF1448806940F092
:102470000800124988610846806900F00800019050
:1024800000BF00BFC02002901220039003200590DF
:1024900002A90B48FFF798FA00BF0848C06940F44A
:1024A00000100649C8610846C06900F40010019098
:1024B00000BF00BF06B010BD005400400010024035
:1024C000000C0140034800680349097808440149A9
:1024D00008607047000000200800002010B5084880
:1024E000006840F0100006490860032000F0A8F8DA
:1024F000002000F007F800F02BF8002010BD0000CD
:102500000020024070B504460E4800784FF47A71FE
:10251000B1FBF0F00C490968B1FBF0F5284600F07A
:102520001DFD08B1012070BD102C07D200222146EC
:10253000501E00F047F80548046001E00120F2E772
:102540000020F0E7080000200C000020040000201C
:1025500008B500BF1148806940F001000F4988614B
:102560000846806900F00100009000BF00BF00BF76
:102570000846C06940F08050C8610846C06900F054
:102580008050009000BF00BF00BF0549486820F0A0
:10259000E06040F00070486000BF08BD00100240DD
:1025A0000000014001460846002809DB00F01F0337
:1025B00001229A4043099B0003F1E023C3F8002164
:1025C00000BF70472DE9F05F80460D461646002794
:1025D00002F0ACFB074639462A46334601F00700B5
:1025E000C0F1070ABAF1040F02D94FF0040A01E062
:1025F000C0F1070AD14600F1040ABAF1070F02D26E
:102600004FF0000A01E0A0F1030AD4464FF0010A9E
:102610000AFA09FAAAF1010A0AEA020A0AFA0CFA03
:102620004FF0010B0BFA0CFBABF1010B0BEA030BA8
:102630004AEA0B042146404602F080FBBDE8F09FC9
:1026400000BF00F00702064B19684FF6FF03194060
:10265000044B0B4343EA0221014B196000BF704752
:102660000CED00E00000FA052DE9F04706464FF0BA
:102670000008002500270024A146042E37D004DCE2
:10268000012E3CD0022E6CD160E0082E33D0102EEB
:1026900067D136484468006800F0807008B3344859
:1026A000C4F38341475C04F4803078B12F4840681C
:1026B000C0F340402F4911F8008004F4803040B14D
:1026C0002D48B0FBF8F000FB07F502E02B4807FBB4
:1026D00000F52648406800F48000B0F5800F01D175
:1026E000A94603E068000321B0FBF1F93AE000F0ED
:1026F000CBF9814636E000F0C7F9814632E01B484D
:10270000046A04F44070B0F5807F05D104F0020043
:1027100010B14FF4004918E004F44070B0F5007FA8
:1027200007D11248406A00F0020010B149F6404952
:102730000BE004F44070B0F5407F06D10B48006810
:1027400000F4003008B14FF224490BE000F08CF99E
:1027500006494968C1F38131491C4900B0FBF1F9D0
:1027600000E000BF00BF4846BDE8F087001002400F
:10277000D2690008E269000800127A0000093D00F1
:10278000F8B5044600260025207800F00100002856
:102790006BD000274348C06900F0805070B900BF7B
:1027A0004048C06940F080503E49C8610846C06951
:1027B00000F08050009000BF00BF01273A48006839
:1027C00000F48070B0B93848006840F48070364931
:1027D0000860FFF7A7FA064606E0FFF7A3FA801B9A
:1027E000642801D90320F8BD2F48006800F48070E8
:1027F0000028F2D02B48006A00F440752DB3A08861
:1028000000F44070A84220D02648006A20F44075A9
:10281000012026490860002008602248056205F072
:10282000010090B1FFF77EFA064608E0FFF77AFA5A
:10283000801B41F28831884201D90320D3E719482F
:10284000006A00F002000028F0D01648006A20F468
:1028500040706168084313490862012F04D108469B
:10286000C06920F08050C86100BF207800F00200ED
:10287000022807D10B48406820F44040A168084373
:1028800008494860207800F01000102807D105485A
:10289000406820F4800061690843024948600020D4
:1028A000A1E70000001002400070004040044242D6
:1028B00070B504460D460CB9012070BD5A48006839
:1028C00000F00700A8420ED25748006820F0070029
:1028D0002843554908600846006800F00700A842F0
:1028E00001D00120E9E7207800F0020002281DD184
:1028F000207800F00400042805D14C48406840F4DA
:10290000E0604A494860207800F00800082805D1B6
:102910004648406840F46050444948604348406835
:1029200020F0F000A168084340494860207800F09A
:10293000010078B36068012806D13C48006800F4C3
:10294000003090B90120B8E76068022806D1374806
:10295000006800F0007040B90120AEE7334800681D
:1029600000F0020008B90120A7E73048406820F0D5
:102970000300616808432D494860FFF7D3F9064614
:1029800009E0FFF7CFF9801B41F28831884202D974
:10299000032092E707E02548406800F00C006168DA
:1029A000B0EB810FEDD12048006800F00700A8428D
:1029B0000ED91D48006820F0070028431A49086016
:1029C0000846006800F00700A84201D0012074E723
:1029D000207800F00400042807D11448406820F44F
:1029E000E060E168084311494860207800F0080081
:1029F000082808D10D48406820F46050216940EA59
:102A0000C1000A49486000F03FF808494968C1F32D
:102A10000311074A515CC84006490860064800682F
:102A2000FFF770FD002048E7002002400010024040
:102A3000E46900080C000020040000200148006840
:102A4000704700000C00002000B5FFF7F7FF0449B5
:102A50004968C1F30221034A515CC84000BD00002F
:102A600000100240F469000800B5FFF7E7FF0449D1
:102A70004968C1F3C221034A515CC84000BD00004F
:102A800000100240F469000870B500210022002403
:102A900000230020134D696801F00C05F5B1042DE9
:102AA00002D0082D19D101E00F4819E00F4DC1F3F4
:102AB0008346AB5D01F4803555B10A4D6D68C5F3B1
:102AC00040450B4E725D084D5D43B5FBF2F402E0EC
:102AD000084D03FB05F4204602E000BF024800BF9A
:102AE00000BF70BD0010024000127A00C0690008EB
:102AF000D069000800093D00F8B504460CB9012072
:102B0000F8BD207800F00100002878D0F84840682F
:102B100000F00C0004280CD0F548406800F00C00D0
:102B2000082811D1F248406800F48030B0F5803FA9
:102B30000AD1EF48006800F4003000285FD06068D8
:102B400000285CD10120DBE700BF6068B0F5803F62
:102B500006D1E748006840F48030E549086028E085
:102B6000606858B9E248006820F48030E0490860A5
:102B70000846006820F4802008601AE06068B0F51C
:102B8000A02F0BD1DA48006840F48020D8490860B3
:102B90000846006840F4803008600AE0D4480068C5
:102BA00020F48030D24908600846006820F4802074
:102BB000086000BF606888B1FFF7B4F8054606E01A
:102BC000FFF7B0F8401B642801D9032098E7C848F4
:102BD000006800F400300028F2D010E0FFF7A2F8FF
:102BE000054606E0FFF79EF8401B642801D9032044
:102BF00086E7BF48006800F400300028F2D1207852
:102C000000F00200022857D1B948406800F00C00DB
:102C100050B1B748406800F00C00082818D1B448FB
:102C2000406800F4803098B9B148006800F00200B4
:102C300020B12069012801D0012061E7AC4800687B
:102C400020F0F800616940EAC100A949086033E05A
:102C50002069E8B10120A7490860FFF763F805463D
:102C600006E0FFF75FF8401B022801D9032047E781
:102C70009F48006800F002000028F2D09C480068DD
:102C800020F0F800616940EAC1009949086013E04A
:102C9000002098490860FFF745F8054606E0FFF771
:102CA00041F8401B022801D9032029E79048006819
:102CB00000F002000028F2D1207800F00800082877
:102CC0002DD1A069B8B101208B490860FFF72AF81F
:102CD000054606E0FFF726F8401B022801D903202D
:102CE0000EE78348406A00F002000028F2D001207D
:102CF00001F01EFC13E000207F490860FFF712F886
:102D0000054606E0FFF70EF8401B022801D9032014
:102D1000F6E67748406A00F002000028F2D12078F9
:102D200000F00400042873D100277148C06900F046
:102D3000805070B900BF6E48C06940F080506C4947
:102D4000C8610846C06900F08050009000BF00BF15
:102D500001276A48006800F48070B0B967480068CD
:102D600040F4807065490860FEF7DCFF054606E028
:102D7000FEF7D8FF401B642801D90320C0E65F4856
:102D8000006800F480700028F2D000BFE0680128DD
:102D900006D15748006A40F001005549086227E013
:102DA000E06858B95248006A20F0010050490862B2
:102DB0000846006A20F00400086219E0E06805286F
:102DC0000BD14B48006A40F00400494908620846AC
:102DD000006A40F0010008620AE04548006A20F0FD
:102DE0000100434908620846006A20F004000862B6
:102DF00000BFE068A0B1FEF795FF054609E0FEF7C9
:102E000091FF401B41F28831884202D9032077E6C6
:102E100022E03748006A00F002000028EFD012E0FC
:102E2000FEF780FF054608E0FEF77CFF401B41F2FD
:102E30008831884201D9032062E62D48006A00F0FB
:102E400002000028F0D1012F05D12948C06920F0E7
:102E500080502749C86100BFE069C8B32448406872
:102E600000F00C00082860D0E069022848D100205A
:102E700020490866FEF756FF054606E0FEF752FFBA
:102E8000401B022801D903203AE61948006800F0E7
:102E900000700028F2D1206AB0F5803F07D11448B5
:102EA000406820F40030A168084311494860D4E923
:102EB000080108430E49496821F4741108430C497C
:102EC000486001200B490866FEF72CFF054607E025
:102ED0003DE0FEF727FF401B022801D903200FE643
:102EE0000348006800F000700028F2D02FE00000D6
:102EF0000010024000004242800442420070004044
:102F0000002014490866FEF70DFF054606E0FEF7AF
:102F100009FF401B022801D90320F1E50E48006893
:102F200000F000700028F2D111E0E069012800D122
:102F3000E6E50948466806F48031206A814204D1FA
:102F400006F47011606A814201D00120D8E50020AA
:102F5000D6E50000000042420010024070B5044671
:102F60002546681EB0F1807F01D301200FE0681E66
:102F70004FF0E02148610F214FF0FF3001F0DEFEFD
:102F800000204FF0E021886107200861002070BD1B
:102F900030B502460B4600BF92F83C00012801D133
:102FA000022030BD012082F83C0000BF022082F8E0
:102FB0003D00106844681068816824F07004186847
:102FC000044310684460144D1068A84213D0134D98
:102FD0001068A8420FD01068B0F1804F0BD0104D90
:102FE0001068A84207D00F4D1068A84203D00E4DBC
:102FF0001068A84205D121F080015868014310688B
:103000008160012082F83D0000BF002082F83C0072
:1030100000BF00BFC5E70000002C014000340140A4
:103020000004004000080040000C004010B50446B9
:103030000CB9012010BD94F83D0028B9002084F897
:103040003C00204600F026F8022084F83D00211DB7
:10305000206801F0C9FA012084F8460000BF84F816
:103060003E0001213F2001554020015541200155DE
:1030700000BF00BF012084F84200432001554420D6
:1030800001554520015500BF012084F83D00002076
:10309000D0E7000008B5094A016891420DD100BF90
:1030A0000749C96941F00401054AD1611146C9695E
:1030B00001F00401009100BF00BF08BD00080040FE
:1030C000001002402DE9F04104460D46002700BFE4
:1030D00094F83C00012802D10220BDE8F0810120D3
:1030E00084F83C0000BF022084F83D002068866818
:1030F00026F0770626F47F462068866028685028E8
:1031000033D00CDC202850D004DC00284BD0102811
:1031100051D149E0302849D040284CD139E06028CD
:103120002DD0702807D0B0F5805F03D0B0F5005FD8
:1031300041D10DE041E0D5E902136A68206801F051
:10314000BAFA2068866846F077062068866034E020
:10315000D5E902136A68206801F0ADFA206880683A
:1031600040F480402168886027E0EA686968206848
:1031700001F092FB5021206801F0A8FA1DE0EA68F6
:103180006968206801F09BFB6021206801F09EFACD
:1031900013E0EA686968206801F07EFB402120683E
:1031A00001F094FA09E000BF00BF00BF2968206861
:1031B00001F08CFA01E0012700BF00BF012084F874
:1031C0003D0000BF002084F83C0000BF384684E783
:1031D00010B586B00446002002900390049005903C
:1031E00013492068884220D100BF1248806940F00E
:1031F0002000104988610846806900F02000019095
:1032000000BF00BF4FF44050029002200390059091
:1032100002A90948FEF7D8FB00BF0849486840F0FA
:10322000E06040F48050486000BF06B010BD000070
:10323000000800400010024000140140000001405E
:103240002DE9F04104460D461646002700BF94F8CC
:103250003C00012802D10220BDE8F081012084F861
:103260003C0000BF36B1042E1BD0082E31D00C2EEE
:103270005ED145E02946206801F032FA2068806975
:1032800040F00800216888612068806920F004000F
:1032900021688861206880692969084321688861FC
:1032A00048E02946206801F053FA2068806940F41C
:1032B0000060216888612068806920F4806021684E
:1032C000886120688069296940EA01202168886155
:1032D00030E02946206801F079FA2068C06940F0A2
:1032E00008002168C8612068C06920F004002168D6
:1032F000C8612068C069296908432168C86119E06C
:103300002946206801F09EFA2068C06940F40060F8
:103310002168C8612068C06920F480602168C861A4
:103320002068C069296940EA01202168C86101E07C
:10333000012700BF00BF00BF002084F83C0000BF91
:10334000384689E710B504460CB9012010BD94F841
:103350003D0028B9002084F83C00204600F025F804
:10336000022084F83D00211D206801F03DF9012074
:1033700084F8460000BF84F83E0001213F2001553B
:10338000402001554120015500BF00BF012084F8B5
:10339000420043200155442001554520015500BFFE
:1033A000012084F83D000020D0E7704770B5044646
:1033B0000D4615B994F83E000BE0042D02D13F20D4
:1033C000005D06E0082D02D14020005D01E04120B3
:1033D000005D012801D0012070BD1DB9022084F8D4
:1033E0003E000EE0042D03D102213F20015508E0EC
:1033F000082D03D102214020015502E00221412085
:10340000015501222946206801F044F91F4920682E
:10341000884203D01E492068884201D1012000E083
:10342000002028B12068406C40F4004021684864C6
:1034300016492068884213D01549206888420FD069
:103440002068B0F1804F0BD012492068884207D025
:1034500011492068884203D01049206888420CD165
:103460002068806800F00706062E0CD020680068EF
:1034700040F001002168086005E02068006840F025
:103480000100216808600020A6E70000002C014030
:10349000003401400004004000080040000C0040DF
:1034A000F8B504460E46174694F8420020282ED15F
:1034B00006B10FB90120F8BD012020630020606330
:1034C0003A463146204601F05BFB0546EDB9206BDC
:1034D000012819D100BF00200090206800680090EA
:1034E00020684068009000BF00BF00BF00BF216897
:1034F0000C3151E8001F41F0100021680C3141E807
:103500000002002AF3D100E001252846D3E702207B
:10351000D1E7000070B505460C46124885420ED131
:1035200011490C70B4F5007F02D200200F490855F4
:103530004FF400720D490B48FFF7B2FF10E00C4842
:1035400085420DD10B490C70B4F5007F02D20020EA
:10355000094908554FF4007207490548FFF7A0FFD5
:1035600070BD0000A801002057000020B80C00200A
:10357000F001002055000020B80A0020704700002C
:103580002DE9F84F0446206805682068C668206861
:1035900047694FF00009CA4605F00F09B9F1000F5D
:1035A0000AD105F0200038B106F0200020B12046F5
:1035B00001F0E9F9BDE8F88FB9F1000F7BD007F011
:1035C000010018B906F49070002874D005F00100CD
:1035D00030B106F4807018B1606C40F00100606496
:1035E00005F0040030B107F0010018B1606C40F044
:1035F0000200606405F0020030B107F0010018B16C
:10360000606C40F00400606405F0080048B106F00A
:10361000200010B907F0010018B1606C40F00800FC
:103620006064606C002845D005F0200028B106F0E9
:10363000200010B1204601F0A6F920684069C0F3CF
:10364000801A606C00F0080010B9BAF1000F2CD09D
:10365000204601F052F92068406900F0400000B3B4
:1036600000BF00BF2168143151E8001F21F0400065
:103670002168143141E80002002AF3D100BFE06B59
:1036800050B17748E16B4863E06BFDF7ABFD88B163
:10369000E06B416B88470DE02046FFF76FFF09E0C4
:1036A00009E02046FFF76AFF04E02046FFF766FFC7
:1036B000002060647EE7206B012877D105F01000C0
:1036C000002873D006F010000028FAD000BF0020B8
:1036D000009020680068009020684068009000BF5B
:1036E00000BF2068406900F0400000285FD0E06B18
:1036F000006840681FFA80F8B8F1000F55D0A08D1F
:10370000404552DDA4F82E80E06B8069202843D02C
:1037100000BF00BF21680C3151E8001F21F4807008
:1037200021680C3141E80002002AF3D100BF00BF3C
:1037300000BF2168143151E8001F21F00100216809
:10374000143141E80002002AF3D100BF00BF00BFDE
:103750002168143151E8001F21F040002168143124
:1037600041E80002002AF3D100BF202084F8420083
:103770000020206300BF00BF21680C3151E8001F0A
:1037800021F0100021680C3141E80002002AF3D139
:1037900000BFE06BFDF7FAFC02206063A08DE28DB4
:1037A000801A81B22046FFF7B5FE03E742E0A08D04
:1037B000E18D401A1FFA80F8E08DD0B3B8F1000F08
:1037C00037D000BF00BF21680C3151E8001F21F441
:1037D000907021680C3141E80002002AF3D100BF4B
:1037E00000BF00BF2168143151E8001F21F0010023
:1037F0002168143141E80002002AF3D100BF2020E3
:1038000084F842000020206300BF00BF21680C3113
:1038100051E8001F21F0100021680C3141E800023E
:10382000002AF3D100BF0220606341462046FFF723
:1038300071FEBFE605F0800030B106F0800018B1DF
:10384000204601F0BDF9B5E605F0400030B106F0C4
:10385000400018B1204601F086F8ABE600BFA9E6AB
:10386000E748000810B504460CB9012010BDA06956
:1038700000B100E000BF94F8410028B9002084F8AE
:103880004000204600F02AF8242084F841002068F7
:10389000C06820F400502168C860204601F0F2F8AA
:1038A0002068006920F49040216808612068406920
:1038B00020F02A00216848612068C06840F4005068
:1038C0002168C86000206064202084F8410084F8EA
:1038D00042000020606300BFC8E7000010B586B05A
:1038E0000446002002900390049005903B49206814
:1038F000884237D100BF3A48806940F48040384957
:1039000088610846806900F48040019000BF00BFD4
:1039100000BF0846806940F004008861084680695D
:1039200000F00400019000BF00BF48150290022083
:1039300003900320059002A92A48FEF745F84FF4AA
:103940008060029000200390049002A92548FEF7B1
:103950003BF8002211462520FEF734FE2520FEF715
:1039600021FE39E020492068884235D100BF1C483B
:10397000C06940F400301A49C8610846C06900F4C3
:103980000030019000BF00BF00BF0846806940F0D2
:10399000040088610846806900F00400019000BFBF
:1039A00000BF04200290022003900320059002A98A
:1039B0000C48FEF709F808200290002003900490BC
:1039C00002A90848FEF700F8002211462620FEF75B
:1039D000F9FD2620FEF7E6FD06B010BD00380140D7
:1039E00000100240000801400044004070472DE9EB
:1039F000F84F04460E46174699464FF0000A94F8D1
:103A00004100202850D106B117B90120BDE8F88F38
:103A100000206064212084F84100FEF783F982468B
:103A2000A784E784A068B0F5805F04D1206910B94D
:103A30000025B04602E035464FF000081EE0534630
:103A4000002280212046CDF8009001F0E9F820B155
:103A5000202084F841000320D8E745B9B8F80000D9
:103A6000C0F308002168486008F1020803E02878E4
:103A7000216848606D1CE08C401EE084E08C0028CA
:103A8000DDD15346002240212046CDF8009001F0C0
:103A9000C7F820B1202084F841000320B6E7202099
:103AA00084F841000020B1E70220AFE7704700BF73
:103AB000FEE7014608684069C0F38020B0B16FF4AA
:103AC00080600A68506100200863202081F83D0072
:103AD000002081F83E00086C40F00400086400BF3C
:103AE000002081F83C0000BF012070470020FCE767
:103AF0002DE9F84304460D4690461E46E76A2068C5
:103B0000006840F4806021680860082F04D0012F0D
:103B100002D017F5803F06D12068006840F480701D
:103B20002168086008E0206B112805D12068006832
:103B300040F4807021680860434600224FF0011174
:103B40002046009600F019F960B12068006800F482
:103B50008070B0F5807F02D14FF4007020640320A4
:103B6000BDE8F8832069B0F5804F05D1E8B240F098
:103B700001002168086149E005F44070F02141EA44
:103B8000E01021680861334642462649204600F08D
:103B900053F908B10120E3E7E8B221680861334630
:103BA00042462049891F204600F046F908B101200D
:103BB000D6E700BF00200090206840690090206890
:103BC0008069009000BF00BF2068006840F48070EA
:103BD00021680860434600224FF0011120460096FC
:103BE00000F0CBF858B12068006800F48070B0F5A0
:103BF000807F02D14FF4007020640320B0E705F409
:103C00004070F12141EAE0102168086133464246E4
:103C10000449891F204600F00FF908B101209FE7F1
:103C200000209DE7080001002DE9F84304460D46F9
:103C300017469846E66A082E04D0012E02D016F5E3
:103C4000803F06D12068006840F4807021680860D9
:103C500008E0206B122805D12068006840F48070CD
:103C6000216808603B4600224FF001112046CDF844
:103C7000008000F082F860B12068006800F4807075
:103C8000B0F5807F02D14FF4007020640320BDE8BE
:103C9000F8832069B0F5804F04D105F0FE0021685B
:103CA000086112E005F44070F02141EAE01021685B
:103CB000086143463A460B49204600F0BDF808B17A
:103CC0000120E4E7E8B22168086143463A46054925
:103CD000891F204600F0B0F808B10120D7E7002086
:103CE000D5E700000800010010B504462068006810
:103CF00040F400402168086000BF2068006820F49C
:103D00000040216808602046FEF712F82046FEF7C2
:103D10002DF810BD70B504460D46164625E0204628
:103D2000FFF7C7FE08B1012070BD681CE8B1FDF7C0
:103D3000F9FF801BA84200D8BDB920684069C0F3D4
:103D4000800090B900202063202084F83D000020EE
:103D500084F83E00206C40F02000206400BF00206A
:103D600084F83C0000BF0120DEE720684069C0F312
:103D700080000028D3D00020D6E72DE9F04104468A
:103D80000D4617461E46DDF8188038E0701CA8B3B3
:103D9000FDF7C8FFA0EB0800B04200D876BBC5F322
:103DA000074001280AD120684069A9B20840A9B299
:103DB000884201D101200BE0002009E020688069E1
:103DC000A9B20840A9B2884201D1012000E0002038
:103DD000B84214D100202063202084F83D00002048
:103DE00084F83E00206C40F02000206400BF0020DA
:103DF00084F83C0000BF0120BDE8F081FFE7C5F377
:103E0000074001280AD120684069A9B20840A9B238
:103E1000884201D101200BE0002009E02068806980
:103E2000A9B20840A9B2884201D1012000E00020D7
:103E3000B842ABD00020DFE72DE9F04104460D4643
:103E400016461F4658E020684069C0F38020E8B15C
:103E50002068006840F40070216808606FF480609A
:103E60002168486100202063202084F83D00002064
:103E700084F83E00206C40F00400206400BF002065
:103E800084F83C0000BF0120BDE8F081701C90B3B5
:103E9000FDF748FFC01BB04200D866BBC5F3074022
:103EA00001280AD120684069A9B20840A9B2884215
:103EB00001D101200BE0002009E020688069A9B24F
:103EC0000840A9B2884201D1012000E0002090B949
:103ED00000202063202084F83D00002084F83E006C
:103EE000206C40F02000206400BF002084F83C00DB
:103EF00000BF0120C8E7FFE7C5F3074001280AD14A
:103F000020684069A9B20840A9B2884201D10120C5
:103F10000BE0002009E020688069A9B20840A9B23E
:103F2000884201D1012000E0002000288BD0002031
:103F3000AAE770B504460D46164637E0206840698A
:103F4000C0F30010A0B16FF010002168486100209C
:103F50002063202084F83D00002084F83E00206C7F
:103F6000206400BF002084F83C0000BF012070BD29
:103F7000FDF7D8FE801BA84200D8BDB92068406973
:103F8000C0F3801090B900202063202084F83D0009
:103F9000002084F83E00206C40F02000206400BF28
:103FA000002084F83C0000BF0120E0E72068406961
:103FB000C0F380100028C1D00020D8E770B50446B7
:103FC0000D46164625E02046FFF773FD08B1012097
:103FD00070BD681CE8B1FDF7A5FE801BA84200D8A3
:103FE000BDB920684069C0F3C01090B900202063BB
:103FF000202084F83D00002084F83E00206C40F032
:104000002000206400BF002084F83C0000BF012095
:10401000DEE720684069C0F3C0100028D3D000203C
:10402000D6E700000EB500200090019002901848DD
:10403000184908608115174881600121017300212A
:1040400001754FF46021C1610020124948600221CE
:1040500010480161FCF7D2FE08B1FCF78AFD002090
:104060000090012001900720029069460948FCF762
:1040700011FE08B1FCF77DFD0420009002200190A4
:1040800069460448FCF706FE08B1FCF772FD0EBD58
:10409000002401409800002008B500BF0A4840698C
:1040A00040F00100084948610846406900F00100FD
:1040B000009000BF00BF002211460B20FEF782FADD
:1040C0000B20FEF76FFA08BD0010024000B585B066
:1040D0000020019002900390049000BF3F48806947
:1040E00040F040003D4988610846806900F040008A
:1040F000009000BF00BF00BF0846806940F010007C
:1041000088610846806900F01000009000BF00BF81
:1041100000BF0846806940F0040088610846806955
:1041200000F00400009000BF00BF00BF0846806997
:1041300040F0200088610846806900F0200000906F
:1041400000BF00BF00BF0846806940F008008861DA
:104150000846806900F00800009000BF00BF0122FF
:1041600020211F48FDF7D8FD002240211D48FDF702
:10417000D3FD002220211C48FDF7CEFD2020019018
:1041800001200290002003900220049001A914480D
:10419000FDF71AFC042001900020029001200390FA
:1041A00001A91248FDF710FC402001900120029067
:1041B000002003900220049001A90A48FDF704FCA6
:1041C0002020019001200290002003900220049002
:1041D00001A90548FDF7F8FB05B000BD001002403D
:1041E0000018014000080140000C0140001001408F
:1041F00010B50B480B4908600B484860002109487E
:104200008160C1604FF480410161002141618161A1
:10421000C1610162FDF7AAFD08B1FCF7AAFC10BD5F
:10422000005400400C010020A086010000B58DB0B4
:10423000002009900A900B900C90079008901C2188
:104240006846FBF7AAFF23482349086047204860D7
:104250000021214881606321C160002101618161E9
:10426000FEF7E4FE08B1FCF784FC4FF4805009909F
:1042700009A91948FEF726FF08B1FCF77AFC164891
:10428000FFF760F808B1FCF774FC00200790089075
:1042900007A91148FEF77CFE08B1FCF76AFC702004
:1042A00000900020019002900490002269460A4884
:1042B000FEF7C6FF08B1FCF75CFC0422694606481D
:1042C000FEF7BEFF08B1FCF754FC0348FEF780FF81
:1042D0000DB000BD000800406001002010B50B4883
:1042E0000B4908604FF4E1304860002108488160C4
:1042F000C16001610C21416100218161C161FFF751
:10430000B1FA08B1FCF735FC10BD000000380140DF
:10431000A801002010B50B480B4908604FF4E130AC
:104320004860002108488160C16001610C21416141
:1043300000218161C161FFF795FA08B1FCF719FC12
:1043400010BD000000440040F001002000BFFEE767
:1043500000BFFEE70448006818B103480068008801
:1043600070470020FCE700007C00002010B50A2008
:1043700001F0C8FF1B490860012001F0C3FF1A4982
:104380000860022001F0BEFF184908601548006867
:1043900028B11548006810B10846006828B914A172
:1043A0001B4802F0F1FA00BFFEE700200F49096840
:1043B00008800D490968087000BF06E00021094A1D
:1043C000126822F81010411CC8B20528F6DB012241
:1043D00040211048FDF7A0FC0FA10D4802F0D4FACF
:1043E00010BD000074000020780000207C00002038
:1043F0005B504D32355D20E58685E5AD98E58886D4
:10440000E9858DE5A4B1E8B4A5210D0A00000000FE
:10441000A8010020000801405B504D32355D206945
:104420006E697465640D0A007FB5002240212B4837
:10443000FDF772FC40F23B1001F0F4FA2848458881
:10444000012240212548FDF767FC42F2D55001F0DA
:10445000E9FA2448006800782349096821F81050D7
:10446000204800680078401C1E49096808701D48F3
:1044700000680078052803DB00201A4909680870E5
:104480000024002006E01849096831F810100C4497
:10449000411CC8B20528F6DB0520B4FBF0F0134937
:1044A000096808801148006800880F49096809896F
:1044B0000D4A1268D2880C4B1B689B88CDE90032EC
:1044C000CDE9021008480068438807480068028860
:1044D00007A1154802F058FA7FBD0000000801400E
:1044E0007000002078000020740000207C00002074
:1044F0005B504D32355D206275665B305D3D2564F5
:10450000205B315D3D2564205B325D3D2564205B91
:10451000335D3D2564205B345D3D25642061766715
:104520003D25640D0A000000A8010020704700002E
:1045300008B508490968C9084FF47A72B1FBF2F16D
:104540004143009100BF00BF00994A1E009200291C
:10455000F9D108BD0C000020704710B5FDF7B2FF7F
:1045600010BD00B595B028210BA8FBF716FE14214D
:1045700006A8FBF712FE18216846FBF70EFE012085
:104580000B9000040C9000200D9001200F90022051
:104590001290C10313914FF4E01114910BA8FEF790
:1045A000ABFA08B1FCF7E5FA0F200690022007905D
:1045B000002008904FF48060099000200A900221AA
:1045C00006A8FEF775F908B1FCF7D3FA02200090AF
:1045D000800302906846FEF7D3F808B1FCF7C9FAE9
:1045E00015B000BD7047000010B50268244B98421A
:1045F0000ED0244B98420BD0B0F1804F08D0224B04
:10460000984205D0214B984202D0214B984203D1C9
:1046100022F070024B681A43194B98420ED0194B86
:1046200098420BD0B0F1804F08D0174B984205D07C
:10463000164B984202D0164B984203D122F4407296
:10464000CB681A4322F080034C6943EA04020260FB
:104650008B68C3620B688362094B984202D0094B96
:10466000984201D10B69036301234361036903F09D
:1046700001031BB1036923F00103036110BD0000B6
:10468000002C0140003401400004004000080040BC
:10469000000C004030B501F01F05012404FA05F3B9
:1046A000046A9C430462046A01F01F0502FA05F5DE
:1046B0002C43046230BD30B50C46816821F47F4143
:1046C00042EA032525432943816030BD0A468168BB
:1046D00021F0700142F00703194381607047000028
:1046E00030B5026A056A25F00105056243688469F0
:1046F00024F0700424F003040D682C4322F002021D
:104700008D682A43104DA84200D103E00F4DA84206
:1047100006D100BF22F00802CD682A4322F004022D
:10472000094DA84202D0094DA84207D123F4807355
:1047300023F400734D692B438D692B4343608461DF
:104740004D684563026230BD002C014000340140D9
:1047500030B5026A056A25F0100505624368846970
:1047600024F4E04424F440740D6844EA052422F063
:1047700020028D6842EA0512124DA84200D103E0E2
:10478000114DA84207D100BF22F08002CD6842EA55
:10479000051222F040020B4DA84202D00A4DA84259
:1047A00009D123F4806323F400634D6943EA850350
:1047B0008D6943EA8503436084614D6885630262C5
:1047C00030BD0000002C01400034014030B5026AC9
:1047D000056A25F4807505624368C46924F0700495
:1047E00024F003040D682C4322F400728D6842EA21
:1047F0000522124DA84200D103E0114DA84207D175
:1048000000BF22F40062CD6842EA052222F48062F1
:104810000A4DA84202D00A4DA84209D123F4805380
:1048200023F400534D6943EA05138D6943EA0513E8
:104830004360C4614D68C563026230BD002C014015
:104840000034014030B5036A056A25F480550562DD
:104850004468C26922F4E04222F440720D6842EAE0
:10486000052223F400538D6843EA0533084DA8421E
:1048700002D0084DA84204D124F480444D6944EA92
:1048800085144460C2614D680564036230BD000058
:10489000002C01400034014030B50B461446026A3A
:1048A000056A25F001050562816921F0F00141EA00
:1048B000041122F00A021A438161026230BD30B550
:1048C0000B461446026A056A25F0100505628169E7
:1048D00021F4704141EA043122F0A00242EA0312BD
:1048E0008161026230BD70B505466C6A0020E085CA
:1048F000E0842046FEF742FE70BD00BF00BF0268A4
:104900000C3252E8002F22F4907102680C3242E817
:104910000013002BF3D100BF00BF00BF02681432A8
:1049200052E8002F22F001010268143242E800131D
:10493000002BF3D100BF016B01290ED100BF00BFD6
:1049400002680C3252E8002F22F0100102680C328B
:1049500042E80013002BF3D100BF202180F8421061
:1049600000210163704710B504462068C06820F03C
:1049700040002168C860202084F841002046FFF7ED
:1049800095F8002010BDF8B5044694F8420022289E
:1049900075D1A068B0F5805F0CD1206950B90025B1
:1049A000A66A20684068C0F308003080A06A801CB6
:1049B000A06215E0A56A0026A068B0F5805F03D06C
:1049C000A06828B9206918B920684068287004E0F8
:1049D0002068406800F07F002870A06A401CA06238
:1049E000E08D401E80B2E085002846D12068C06876
:1049F00020F020002168C8602068C06820F4807022
:104A00002168C8602068406920F001002168486181
:104A1000202084F8420000206063206B012826D10A
:104A20000020206300BF00BF21680C3151E8001F47
:104A300021F0100021680C3141E80002002AF3D176
:104A400000BF2068006800F0100010280AD100BFE5
:104A50000020009020680068009020684068009066
:104A600000BF00BFA18D2046FEF754FD02E02046A6
:104A7000FEF7BCFF0020F8BD01E00020FBE70220AC
:104A8000F9E7000070B504462168096921F4405136
:104A9000E2681143226811612269A16811436269C9
:104AA00041EA02052168C96841F20C629143294339
:104AB0002268D1602168496921F44071A2691143DB
:104AC000226851612D4A2168914202D1FDF7CCFF45
:104AD00001E0FDF7B9FF00EBC00101EB00116268D6
:104AE0009200B1FBF2F100EBC00202EB001263682E
:104AF0009B00B2FBF3F26423B2FBF3F202EBC203BE
:104B000003EB0212A1EB8201322202EB01116422BB
:104B1000B1FBF2F101F0F00100EBC00202EB001278
:104B200063689B00B2FBF3F26423B2FBF3F201EB88
:104B3000021200EBC00101EB001163689B00B1FBA6
:104B4000F3F100EBC00303EB00136668B600B3FBA0
:104B5000F6F36426B3FBF6F303EBC30606EB03138D
:104B6000A1EB8301322303EB01116423B1FBF3F1C9
:104B700001F00F0111442268916070BD00380140BE
:104B800010B5034699629A85DA8500205864222080
:104B900083F84200186928B11868C06840F4807032
:104BA0001C68E0601868406940F001001C686061A2
:104BB0001868C06840F020001C68E060002010BD4C
:104BC000014691F84100212828D18868B0F5805F1E
:104BD0000BD1086948B90A6A1088C0F308000B684D
:104BE0005860086A801C086205E00B6A581C08625D
:104BF00018780B685860C88C401E80B2C88458B9B9
:104C00000868C06820F080000B68D8600868C06839
:104C100040F040000B68D860002070470220FCE79D
:104C20002DE9F84304460D4617469846089E31E0A4
:104C3000701C70B3FDF776F8A0EB0800B04200D806
:104C400016B90320BDE8F8832068C06800F00400AE
:104C5000F8B1802D1ED0402D1CD020680068C0F314
:104C6000C000B0B100BF0020009020680068009034
:104C700020684068009000BF00BF2046FFF73DFE5F
:104C80000820606400BF002084F8400000BF0120BD
:104C9000D8E7FFE7206800682840A84201D101203A
:104CA00000E00020B842C3D00020CBE710B5024896
:104CB000FEF766FC10BD0000A801002010B50248F8
:104CC000FEF75EFC10BD0000F001002000BFFEE713
:104CD0000FB4084B10B504A902AA039800F014F908
:104CE000044602A9002000F09DFC204610BC5DF89F
:104CF00014FB0000255600087CB50C001D46164626
:104D0000014601D0601E00E00020CDE90010064BF6
:104D10006A462946304600F0F7F8002C02D0009A87
:104D2000002111707CBD00000F5600080248006889
:104D3000C0F30220704700000CED00E010B5002821
:104D400004DB0A07130E054A135406E00A07140E83
:104D5000034A00F00F031B1FD45410BD00E400E011
:104D600018ED00E002E008C8121F08C1002AFAD1BD
:104D700070477047002001E001C1121F002AFBD1DB
:104D8000704700002DE9FF5F82B00021DDE90430AB
:104D9000020DDDF840B0034318D044F61050A2F2E3
:104DA000FF3242431514119801281FD0A5EB0B00C8
:104DB000401C5FEA000A4FF000064E4FDFF83891C2
:104DC000B046504615D5CAF1000413E011980124ED
:104DD0004AA3012801D16FEA0B010298119AC0E998
:104DE0000031C0E9024206B0BDE8F09FCBF10000FF
:104DF000DFE704460021404A491842EB0450CDE960
:104E0000001012E0E00707D032463B4640464946D4
:104E1000FBF725FC8046894632463B46104619463C
:104E2000FBF71DFC06460F466410002CEAD1DDE9B5
:104E30000401DDE90023BAF1000F06DAFBF70FFCED
:104E400042464B46FBF70BFC05E0FBF77AFC42467B
:104E50004B46FBF776FC04460E460022284BFBF738
:104E6000F7FC03D84FF0FF30014607E00022254B46
:104E700020463146FBF74CFBFBF7D2FC102409E03F
:104E8000002C0ADB0A220023FBF7DAFA039B3032FC
:104E90001A55641E50EA0102F2D1641C039AC4F14F
:104EA00011031444119A012A03D0012208430DD1A1
:104EB0000AE0084304D000204FF0110B119072E774
:104EC000A3EB0B056D1E0DE05B4504DD4FF000020A
:104ED00005F1010504E003DA4FF00002A5F1010538
:104EE000002AECD002981199C0E90231C0E90045CE
:104EF00079E70000000014400000F03F300000009F
:104F00000000F0430000E03F2DE9FF4F95B09A46C6
:104F1000884606460025EEE1252877D1002427465D
:104F2000F94A0121039400E0044316F8013F203BB5
:104F300001FA03F01042F7D130782A2811D06FF02F
:104F40002F033078A0F13002092A16D8039A44F0D2
:104F5000020402EB820203EB42021044761C03902F
:104F6000EFE758F8042B0392002A03DA504244F486
:104F70000054039044F00204761C30782E2816D199
:104F800016F8010F44F004042A280DD06FF02F0208
:104F90003078A0F13003092B09D807EB870302EB27
:104FA0004303C718761CF3E758F8047B761C307867
:104FB0006C280FD006DC4C2817D068280DD06A2842
:104FC00014D104E0742810D07A280FD10DE044F4F5
:104FD00000140AE044F4801401E044F440147278B0
:104FE000824202D104F58014761C761C3078662843
:104FF0000BD013DC582877D009DC002875D0452861
:10500000F6D04628F4D047281AD193E118E0632857
:1050100035D0642879D0652812D18BE1702873D0FF
:1050200008DC6728F1D069286FD06E280DD06F2872
:1050300006D1ACE073282CD0752874D0782853D0D2
:105040005246179990476D1C54E1C4F30250022850
:1050500009D003280DD0D8F8001004280DD00D6019
:1050600008F1040846E1D8F80010EA17C1E9005237
:10507000F6E7D8F800100D80F2E70D70F0E718F8A9
:10508000041B8DF8001000208DF80100EB46012074
:1050900003E058F804BB4FF0FF3061074FF0000108
:1050A00002D40DE009F101018946B9420FDA8145C8
:1050B000F8DB1BF809100029F4D108E009F101011F
:1050C00089468142FADB1BF809100029F6D10398C2
:1050D0005346A0EB090721463846179A00F080FA9C
:1050E000284400EB090507E044E008E10DE01BF867
:1050F000010B524617999047B9F10109F7D253466F
:1051000021463846179AF2E039E00A21C4F30252E8
:105110004FF0000B0091022A06D058F8040BC1177B
:10512000032A09D00AE023E008F1070020F0070273
:10513000F2E80201904605E000B2C117042A01D14D
:1051400040B2C117002906DA0A460021404261EB4D
:1051500002012D2202E0220504D52B228DF8042025
:10516000012203E0E20701D02022F7E7914657E051
:105170000A2100E010214FF0000B00910BE01021FC
:105180004FF0000B44F004040827009103E00820CE
:105190004FF0000B0090C4F30252022A05D058F8D9
:1051A000040B0021032A08D008E008F1070020F0D2
:1051B0000702F2E80201904603E080B2042A00D11F
:1051C000C0B24FF0000922072AD53278702A07D0E2
:1051D000DDF800C08CF0100C5CEA0B0C05D00EE082
:1051E00040228DF80420012208E050EA010306D095
:1051F00030238DF804308DF8052002229146009B63
:1052000083F0080353EA0B030AD150EA010201D1EB
:10521000620705D530228DF804204FF001097F1E6A
:105220003278582A04D039A20C920CAA02920BE0D0
:105230003BA2F9E75B46009AFBF702F90C9B9B5CEB
:10524000029A521E0292137050EA0102F2D10298A1
:1052500004A9081A00F1200B600702D524F4803459
:1052600000E001275F4502DDA7EB0B0000E0002016
:1052700000EB0B01009003984944401A0390E003AF
:1052800006D453462146179A039800F0A9F905441D
:10529000002706E001A85246C05D179990476D1C93
:1052A0007F1C4F45F6DBE0030CD553462146179A89
:1052B000039800F095F9054404E030205246179910
:1052C00090476D1C0099481E00900029F5DC08E00D
:1052D0000298029952460078491C0291179990470A
:1052E0006D1CBBF10001ABF1010BF1DC5BE100F0E7
:1052F00065F90544761C307800287FF40DAE19B0AE
:105300002846BDE8F08F0000092801003031323313
:1053100034353637383961626364656600000000F1
:1053200030313233343536373839414243444546DB
:1053300000000000600700D4062708F1070020F0F5
:105340000700F0E80223804603F0004C5FEA0C00FF
:1053500001D097A009E0200501D596A005E0E0075F
:1053600001D095A001E0AFF24C001390307823F00B
:10537000004365280CD006DC452809D046281DD0FE
:1053800047287FD13BE0662818D067287AD136E0DD
:105390000021112F01DB112000E0781CCDE9000174
:1053A00004A90CA8FFF7EEFCDDE90D010C9A4FF003
:1053B000000B07F10109109200914EE04FF0004000
:1053C0000097CDE9011004A90CA8FFF7DBFCDDE98B
:1053D0000D020C9B0F994FF0000B91461093009219
:1053E00011B9791C00EB0109B7EB090003D4C0F136
:1053F000FF3B07F10109A9EB0700019042E0012FF3
:1054000000DA01270021112F01DD112000E03846CC
:10541000CDE9000104A90CA8FFF7B4FCDDE90D01FA
:105420000C9A00914FF0000BB946109221070FD44F
:10543000009A4A4503DA914601E0A9F10109B9F160
:10544000010F05DD109AA9F10101515C3029F4D05A
:10545000B84202DA10F1040F03DA0121CDE901109C
:1054600010E0002803DC8344A9EB000102E0411CAA
:10547000494500DD8946A0EB0B00401C01904FF030
:1054800000400290200705D40198484502DB4FF008
:10549000FF30019000208DF84B0002980DF14B0772
:1054A000B0F1004F25D002200C902B200D900298D7
:1054B00000280CDA404202902D200D9007E00A21CE
:1054C0000298FAF7A7FF3031029007F8011D0C99F6
:1054D000481E0C900029F2DC02980028EFD1791EBA
:1054E0000D980870307800F0200040F0450007F873
:1054F000020D11A8C01BC01D02901398007800B1C6
:10550000012000EB0901019801EBE07102980144D0
:105510000398401A401E0390E00306D453462146E8
:10552000179A039800F05CF805441398007818B1B6
:105530005246179990476D1CE00323D553462146E8
:10554000179A039800F04CF805441BE0BBF1000FDC
:1055500007DB0098584504DD1098179910F80B00E8
:1055600001E0179930205246904701980BF1010B4A
:10557000401E05F10105019004D12E2052461799D5
:1055800090476D1CB9F10001A9F10109DEDC05E0CD
:1055900017F8010B5246179990476D1C0299481E47
:1055A00002900029F4DC53462146179A03989EE6A0
:1055B0002D0000002B000000200000002DE9F0412C
:1055C000044600251E461746880404D405E03946E3
:1055D0002020B0476D1C641EF9D52846BDE8F08137
:1055E0002DE9F041044600251E469046C80301D52A
:1055F000302700E02027880404D505E041463846DE
:10560000B0476D1C641EF9D52846BDE8F0814A6894
:10561000002A06D00A68531C0B6010704868401EB0
:10562000486070470A68531C0B6010707047000098
:105630000448006818B103480068006870470020FB
:10564000FCE700008800002010B5142000F05AFE8E
:1056500028490860012000F055FE27490860042011
:1056600000F050FE25490860042000F04BFE24495C
:1056700008602048006840B11F48006828B11F48F2
:10568000006810B10846006828B91EA1244801F03E
:105690007BF900BFFEE70020184909680860184937
:1056A0000968086014490968087000BF06E0002115
:1056B000104A126842F82010411CC8B20528F6DBD7
:1056C00001211848FBF722FA0A20FCF7BFF807214E
:1056D0001448FBF71BFA0A20FCF7B8F81021114810
:1056E000FBF714FAB420FCF7B1F80FA10C4801F055
:1056F0004BF910BD800000208400002088000020AD
:105700008C0000205B4248313735305D206D616C84
:105710006C6F63206661696C6564210D0A0000008E
:10572000A80100200C0100205B4248313735305D74
:1057300020696E69742C2077616974203138306D6E
:10574000730D0A0070B500F055F804461D48006856
:10575000046000212046FAF753FE04D21AA1204823
:1057600001F012F970BD1F48006800781E490968F1
:1057700041F820401B4800680078401C194909681E
:105780000870184800680078052803DB00201549D8
:10579000096808700026002509E01348006850F8E1
:1057A00025103046FAF742FD0646681CC5B2052DA5
:1057B000F3DB0E493046FAF7C3FD0D49096808606E
:1057C00000BFCFE78C0000205B4248313735305DA9
:1057D0002072656164206661696C65640D0A000071
:1057E000A801002084000020800000200000A040CC
:1057F000880000207CB5002001906420022301AACB
:10580000462100900F48FCF799FB05465DB10D4815
:10581000FEF76AFA10210B48FBF778F9B420FCF781
:1058200015F809487CBD9DF805009DF8041040EA74
:1058300001242046FAF7CBFD06460449FAF780FD1D
:10584000F0E700000C010020000080BF9A99993F0A
:105850000FB42DE9FE4F824689464FF400713C4853
:10586000FAF79BFC002410A802903949081939A1C5
:105870000E9AFFF72DFA0444002654E0029850F8DF
:1058800004BB0290029820C80290002E05DD30492A
:1058900008193DA1FFF71CFA0444692D0BD10298A9
:1058A00080C802902A4908193B465A4637A1FFF79B
:1058B0000FFA044435E0662D13D10298C01D20F084
:1058C00007000290D0E90078029A0832029220493B
:1058D00008195A4633A1CDE90078FFF7F9F90444D5
:1058E0001FE0622D0FD1029880C802900FB133A142
:1058F00000E034A10B46164908195A4633A1FFF7B8
:10590000E7F904440DE0732D0BD1029880C8029092
:105910000F4908193B465A4632A1FFF7D9F904440A
:1059200000BF701CC6B29DF83C008642A6DB00207A
:1059300002900749081932A1FFF7CAF9044B4A46F9
:1059400030A15046FFF7C4F9BDE8FE0F5DF814FB27
:10595000B80800207B5C2269645C223A5C222573D3
:105960005C225C2C5C2276657273696F6E5C223AF5
:105970005C22312E305C225C2C5C22706172616D85
:10598000735C223A7B0000005C2C00005C222573D3
:105990005C223A7B5C2276616C75655C223A2564F8
:1059A0007D0000005C2225735C223A7B5C227661DC
:1059B0006C75655C223A252E32667D0074727565C1
:1059C0000000000066616C73650000005C222573B6
:1059D0005C223A7B5C2276616C75655C223A2573A9
:1059E0007D0000005C2225735C223A7B5C2276619C
:1059F0006C75655C223A5C2225735C227D00000098
:105A00007D7D000041542B4D5154545055423D3042
:105A10002C222573222C222573222C302C300D0AA7
:105A20000000000070B50446FDF708F80549B0FB1A
:105A3000F1F000FB04F500BF281EA5F10105FBD124
:105A400070BD000000093D0008B503204FF4FA6363
:105A500031A232A10090334800F026FE32A1314835
:105A600000F092FF4FF4FA60FBF7F0FE03204FF4D2
:105A7000FA6329A22FA100902A4800F015FE31A355
:105A800033A236A13B48FFF723F9032042F21073FB
:105A900021A238490090234800F006FE364837A37B
:105AA00039A23CA100903348FFF712F903204FF4CC
:105AB000FA5319A22F4900901A4800F0F5FD40F260
:105AC0005B733FA243A12B48FFF702F903204FF479
:105AD000FA5311A227490090124800F0E5FD44A2B4
